{
  "contractName": "PoorWifeToken",
  "abi": [
    {
      "inputs": [],
      "stateMutability": "nonpayable",
      "type": "constructor"
    },
    {
      "anonymous": false,
      "inputs": [
        {
          "indexed": true,
          "internalType": "address",
          "name": "owner",
          "type": "address"
        },
        {
          "indexed": true,
          "internalType": "address",
          "name": "spender",
          "type": "address"
        },
        {
          "indexed": false,
          "internalType": "uint256",
          "name": "value",
          "type": "uint256"
        }
      ],
      "name": "Approval",
      "type": "event"
    },
    {
      "anonymous": false,
      "inputs": [
        {
          "indexed": false,
          "internalType": "address",
          "name": "recipient",
          "type": "address"
        },
        {
          "indexed": false,
          "internalType": "uint256",
          "name": "ethReceived",
          "type": "uint256"
        },
        {
          "indexed": false,
          "internalType": "uint256",
          "name": "nextAvailableClaimDate",
          "type": "uint256"
        }
      ],
      "name": "ClaimBNBSuccessfully",
      "type": "event"
    },
    {
      "anonymous": false,
      "inputs": [
        {
          "indexed": true,
          "internalType": "address",
          "name": "previousOwner",
          "type": "address"
        },
        {
          "indexed": true,
          "internalType": "address",
          "name": "newOwner",
          "type": "address"
        }
      ],
      "name": "OwnershipTransferred",
      "type": "event"
    },
    {
      "anonymous": false,
      "inputs": [
        {
          "indexed": false,
          "internalType": "uint256",
          "name": "tokensSwapped",
          "type": "uint256"
        },
        {
          "indexed": false,
          "internalType": "uint256",
          "name": "ethReceived",
          "type": "uint256"
        },
        {
          "indexed": false,
          "internalType": "uint256",
          "name": "tokensIntoLiqudity",
          "type": "uint256"
        }
      ],
      "name": "SwapAndLiquify",
      "type": "event"
    },
    {
      "anonymous": false,
      "inputs": [
        {
          "indexed": false,
          "internalType": "bool",
          "name": "enabled",
          "type": "bool"
        }
      ],
      "name": "SwapAndLiquifyEnabledUpdated",
      "type": "event"
    },
    {
      "anonymous": false,
      "inputs": [
        {
          "indexed": true,
          "internalType": "address",
          "name": "from",
          "type": "address"
        },
        {
          "indexed": true,
          "internalType": "address",
          "name": "to",
          "type": "address"
        },
        {
          "indexed": false,
          "internalType": "uint256",
          "name": "value",
          "type": "uint256"
        }
      ],
      "name": "Transfer",
      "type": "event"
    },
    {
      "inputs": [],
      "name": "_liquidityFee",
      "outputs": [
        {
          "internalType": "uint256",
          "name": "",
          "type": "uint256"
        }
      ],
      "stateMutability": "view",
      "type": "function"
    },
    {
      "inputs": [],
      "name": "_maxTxAmount",
      "outputs": [
        {
          "internalType": "uint256",
          "name": "",
          "type": "uint256"
        }
      ],
      "stateMutability": "view",
      "type": "function"
    },
    {
      "inputs": [],
      "name": "_taxFee",
      "outputs": [
        {
          "internalType": "uint256",
          "name": "",
          "type": "uint256"
        }
      ],
      "stateMutability": "view",
      "type": "function"
    },
    {
      "inputs": [],
      "name": "charityAddress",
      "outputs": [
        {
          "internalType": "address payable",
          "name": "",
          "type": "address"
        }
      ],
      "stateMutability": "view",
      "type": "function"
    },
    {
      "inputs": [],
      "name": "disableEasyRewardFrom",
      "outputs": [
        {
          "internalType": "uint256",
          "name": "",
          "type": "uint256"
        }
      ],
      "stateMutability": "view",
      "type": "function"
    },
    {
      "inputs": [],
      "name": "disruptiveCoverageFee",
      "outputs": [
        {
          "internalType": "uint256",
          "name": "",
          "type": "uint256"
        }
      ],
      "stateMutability": "view",
      "type": "function"
    },
    {
      "inputs": [],
      "name": "disruptiveTransferEnabledFrom",
      "outputs": [
        {
          "internalType": "uint256",
          "name": "",
          "type": "uint256"
        }
      ],
      "stateMutability": "view",
      "type": "function"
    },
    {
      "inputs": [],
      "name": "easyRewardCycleBlock",
      "outputs": [
        {
          "internalType": "uint256",
          "name": "",
          "type": "uint256"
        }
      ],
      "stateMutability": "view",
      "type": "function"
    },
    {
      "inputs": [],
      "name": "geUnlockTime",
      "outputs": [
        {
          "internalType": "uint256",
          "name": "",
          "type": "uint256"
        }
      ],
      "stateMutability": "view",
      "type": "function"
    },
    {
      "inputs": [
        {
          "internalType": "uint256",
          "name": "time",
          "type": "uint256"
        }
      ],
      "name": "lock",
      "outputs": [],
      "stateMutability": "nonpayable",
      "type": "function"
    },
    {
      "inputs": [
        {
          "internalType": "address",
          "name": "",
          "type": "address"
        }
      ],
      "name": "nextAvailableClaimDate",
      "outputs": [
        {
          "internalType": "uint256",
          "name": "",
          "type": "uint256"
        }
      ],
      "stateMutability": "view",
      "type": "function"
    },
    {
      "inputs": [],
      "name": "owner",
      "outputs": [
        {
          "internalType": "address",
          "name": "",
          "type": "address"
        }
      ],
      "stateMutability": "view",
      "type": "function"
    },
    {
      "inputs": [],
      "name": "pancakePair",
      "outputs": [
        {
          "internalType": "address",
          "name": "",
          "type": "address"
        }
      ],
      "stateMutability": "view",
      "type": "function"
    },
    {
      "inputs": [],
      "name": "pancakeRouter",
      "outputs": [
        {
          "internalType": "contract IPancakeRouter02",
          "name": "",
          "type": "address"
        }
      ],
      "stateMutability": "view",
      "type": "function"
    },
    {
      "inputs": [],
      "name": "reflectionFeesdiabled",
      "outputs": [
        {
          "internalType": "bool",
          "name": "",
          "type": "bool"
        }
      ],
      "stateMutability": "view",
      "type": "function"
    },
    {
      "inputs": [],
      "name": "renounceOwnership",
      "outputs": [],
      "stateMutability": "nonpayable",
      "type": "function"
    },
    {
      "inputs": [],
      "name": "rewardCycleBlock",
      "outputs": [
        {
          "internalType": "uint256",
          "name": "",
          "type": "uint256"
        }
      ],
      "stateMutability": "view",
      "type": "function"
    },
    {
      "inputs": [],
      "name": "rewardThreshold",
      "outputs": [
        {
          "internalType": "uint256",
          "name": "",
          "type": "uint256"
        }
      ],
      "stateMutability": "view",
      "type": "function"
    },
    {
      "inputs": [],
      "name": "routerAddress",
      "outputs": [
        {
          "internalType": "address payable",
          "name": "",
          "type": "address"
        }
      ],
      "stateMutability": "view",
      "type": "function"
    },
    {
      "inputs": [],
      "name": "swapAndLiquifyEnabled",
      "outputs": [
        {
          "internalType": "bool",
          "name": "",
          "type": "bool"
        }
      ],
      "stateMutability": "view",
      "type": "function"
    },
    {
      "inputs": [],
      "name": "threshHoldTopUpRate",
      "outputs": [
        {
          "internalType": "uint256",
          "name": "",
          "type": "uint256"
        }
      ],
      "stateMutability": "view",
      "type": "function"
    },
    {
      "inputs": [
        {
          "internalType": "address",
          "name": "newOwner",
          "type": "address"
        }
      ],
      "name": "transferOwnership",
      "outputs": [],
      "stateMutability": "nonpayable",
      "type": "function"
    },
    {
      "inputs": [],
      "name": "unlock",
      "outputs": [],
      "stateMutability": "nonpayable",
      "type": "function"
    },
    {
      "stateMutability": "payable",
      "type": "receive"
    },
    {
      "inputs": [],
      "name": "name",
      "outputs": [
        {
          "internalType": "string",
          "name": "",
          "type": "string"
        }
      ],
      "stateMutability": "view",
      "type": "function"
    },
    {
      "inputs": [],
      "name": "symbol",
      "outputs": [
        {
          "internalType": "string",
          "name": "",
          "type": "string"
        }
      ],
      "stateMutability": "view",
      "type": "function"
    },
    {
      "inputs": [],
      "name": "decimals",
      "outputs": [
        {
          "internalType": "uint8",
          "name": "",
          "type": "uint8"
        }
      ],
      "stateMutability": "view",
      "type": "function"
    },
    {
      "inputs": [],
      "name": "totalSupply",
      "outputs": [
        {
          "internalType": "uint256",
          "name": "",
          "type": "uint256"
        }
      ],
      "stateMutability": "view",
      "type": "function"
    },
    {
      "inputs": [
        {
          "internalType": "address",
          "name": "account",
          "type": "address"
        }
      ],
      "name": "balanceOf",
      "outputs": [
        {
          "internalType": "uint256",
          "name": "",
          "type": "uint256"
        }
      ],
      "stateMutability": "view",
      "type": "function"
    },
    {
      "inputs": [
        {
          "internalType": "address",
          "name": "recipient",
          "type": "address"
        },
        {
          "internalType": "uint256",
          "name": "amount",
          "type": "uint256"
        }
      ],
      "name": "transfer",
      "outputs": [
        {
          "internalType": "bool",
          "name": "",
          "type": "bool"
        }
      ],
      "stateMutability": "nonpayable",
      "type": "function"
    },
    {
      "inputs": [
        {
          "internalType": "address",
          "name": "owner",
          "type": "address"
        },
        {
          "internalType": "address",
          "name": "spender",
          "type": "address"
        }
      ],
      "name": "allowance",
      "outputs": [
        {
          "internalType": "uint256",
          "name": "",
          "type": "uint256"
        }
      ],
      "stateMutability": "view",
      "type": "function"
    },
    {
      "inputs": [
        {
          "internalType": "address",
          "name": "spender",
          "type": "address"
        },
        {
          "internalType": "uint256",
          "name": "amount",
          "type": "uint256"
        }
      ],
      "name": "approve",
      "outputs": [
        {
          "internalType": "bool",
          "name": "",
          "type": "bool"
        }
      ],
      "stateMutability": "nonpayable",
      "type": "function"
    },
    {
      "inputs": [
        {
          "internalType": "address",
          "name": "sender",
          "type": "address"
        },
        {
          "internalType": "address",
          "name": "recipient",
          "type": "address"
        },
        {
          "internalType": "uint256",
          "name": "amount",
          "type": "uint256"
        }
      ],
      "name": "transferFrom",
      "outputs": [
        {
          "internalType": "bool",
          "name": "",
          "type": "bool"
        }
      ],
      "stateMutability": "nonpayable",
      "type": "function"
    },
    {
      "inputs": [
        {
          "internalType": "address",
          "name": "spender",
          "type": "address"
        },
        {
          "internalType": "uint256",
          "name": "addedValue",
          "type": "uint256"
        }
      ],
      "name": "increaseAllowance",
      "outputs": [
        {
          "internalType": "bool",
          "name": "",
          "type": "bool"
        }
      ],
      "stateMutability": "nonpayable",
      "type": "function"
    },
    {
      "inputs": [
        {
          "internalType": "address",
          "name": "spender",
          "type": "address"
        },
        {
          "internalType": "uint256",
          "name": "subtractedValue",
          "type": "uint256"
        }
      ],
      "name": "decreaseAllowance",
      "outputs": [
        {
          "internalType": "bool",
          "name": "",
          "type": "bool"
        }
      ],
      "stateMutability": "nonpayable",
      "type": "function"
    },
    {
      "inputs": [
        {
          "internalType": "address",
          "name": "account",
          "type": "address"
        }
      ],
      "name": "isExcludedFromReward",
      "outputs": [
        {
          "internalType": "bool",
          "name": "",
          "type": "bool"
        }
      ],
      "stateMutability": "view",
      "type": "function"
    },
    {
      "inputs": [],
      "name": "totalFees",
      "outputs": [
        {
          "internalType": "uint256",
          "name": "",
          "type": "uint256"
        }
      ],
      "stateMutability": "view",
      "type": "function"
    },
    {
      "inputs": [
        {
          "internalType": "uint256",
          "name": "tAmount",
          "type": "uint256"
        }
      ],
      "name": "deliver",
      "outputs": [],
      "stateMutability": "nonpayable",
      "type": "function"
    },
    {
      "inputs": [
        {
          "internalType": "uint256",
          "name": "tAmount",
          "type": "uint256"
        },
        {
          "internalType": "bool",
          "name": "deductTransferFee",
          "type": "bool"
        }
      ],
      "name": "reflectionFromToken",
      "outputs": [
        {
          "internalType": "uint256",
          "name": "",
          "type": "uint256"
        }
      ],
      "stateMutability": "view",
      "type": "function"
    },
    {
      "inputs": [
        {
          "internalType": "uint256",
          "name": "rAmount",
          "type": "uint256"
        }
      ],
      "name": "tokenFromReflection",
      "outputs": [
        {
          "internalType": "uint256",
          "name": "",
          "type": "uint256"
        }
      ],
      "stateMutability": "view",
      "type": "function"
    },
    {
      "inputs": [
        {
          "internalType": "address",
          "name": "account",
          "type": "address"
        }
      ],
      "name": "excludeFromReward",
      "outputs": [],
      "stateMutability": "nonpayable",
      "type": "function"
    },
    {
      "inputs": [
        {
          "internalType": "address",
          "name": "account",
          "type": "address"
        }
      ],
      "name": "includeInReward",
      "outputs": [],
      "stateMutability": "nonpayable",
      "type": "function"
    },
    {
      "inputs": [
        {
          "internalType": "address",
          "name": "account",
          "type": "address"
        }
      ],
      "name": "excludeFromFee",
      "outputs": [],
      "stateMutability": "nonpayable",
      "type": "function"
    },
    {
      "inputs": [
        {
          "internalType": "address",
          "name": "account",
          "type": "address"
        }
      ],
      "name": "includeInFee",
      "outputs": [],
      "stateMutability": "nonpayable",
      "type": "function"
    },
    {
      "inputs": [
        {
          "internalType": "uint256",
          "name": "taxFee",
          "type": "uint256"
        }
      ],
      "name": "setTaxFeePercent",
      "outputs": [],
      "stateMutability": "nonpayable",
      "type": "function"
    },
    {
      "inputs": [
        {
          "internalType": "uint256",
          "name": "liquidityFee",
          "type": "uint256"
        }
      ],
      "name": "setLiquidityFeePercent",
      "outputs": [],
      "stateMutability": "nonpayable",
      "type": "function"
    },
    {
      "inputs": [
        {
          "internalType": "bool",
          "name": "_enabled",
          "type": "bool"
        }
      ],
      "name": "setSwapAndLiquifyEnabled",
      "outputs": [],
      "stateMutability": "nonpayable",
      "type": "function"
    },
    {
      "inputs": [
        {
          "internalType": "address",
          "name": "account",
          "type": "address"
        }
      ],
      "name": "isExcludedFromFee",
      "outputs": [
        {
          "internalType": "bool",
          "name": "",
          "type": "bool"
        }
      ],
      "stateMutability": "view",
      "type": "function"
    },
    {
      "inputs": [
        {
          "internalType": "uint256",
          "name": "maxTxPercent",
          "type": "uint256"
        }
      ],
      "name": "setMaxTxPercent",
      "outputs": [],
      "stateMutability": "nonpayable",
      "type": "function"
    },
    {
      "inputs": [
        {
          "internalType": "address",
          "name": "_address",
          "type": "address"
        },
        {
          "internalType": "bool",
          "name": "value",
          "type": "bool"
        }
      ],
      "name": "setExcludeFromMaxTx",
      "outputs": [],
      "stateMutability": "nonpayable",
      "type": "function"
    },
    {
      "inputs": [
        {
          "internalType": "address",
          "name": "ofAddress",
          "type": "address"
        }
      ],
      "name": "calculateBNBReward",
      "outputs": [
        {
          "internalType": "uint256",
          "name": "",
          "type": "uint256"
        }
      ],
      "stateMutability": "view",
      "type": "function"
    },
    {
      "inputs": [],
      "name": "getRewardCycleBlock",
      "outputs": [
        {
          "internalType": "uint256",
          "name": "",
          "type": "uint256"
        }
      ],
      "stateMutability": "view",
      "type": "function"
    },
    {
      "inputs": [],
      "name": "claimBNBReward",
      "outputs": [],
      "stateMutability": "nonpayable",
      "type": "function"
    },
    {
      "inputs": [
        {
          "internalType": "address",
          "name": "recipient",
          "type": "address"
        },
        {
          "internalType": "uint256",
          "name": "amount",
          "type": "uint256"
        }
      ],
      "name": "disruptiveTransfer",
      "outputs": [
        {
          "internalType": "bool",
          "name": "",
          "type": "bool"
        }
      ],
      "stateMutability": "payable",
      "type": "function"
    },
    {
      "inputs": [],
      "name": "activateContract",
      "outputs": [],
      "stateMutability": "nonpayable",
      "type": "function"
    },
    {
      "inputs": [
        {
          "internalType": "uint256",
          "name": "newcycle",
          "type": "uint256"
        }
      ],
      "name": "changerewardCycleBlock",
      "outputs": [],
      "stateMutability": "nonpayable",
      "type": "function"
    },
    {
      "inputs": [
        {
          "internalType": "address payable",
          "name": "_newaddress",
          "type": "address"
        }
      ],
      "name": "changeCharityAddress",
      "outputs": [],
      "stateMutability": "nonpayable",
      "type": "function"
    },
    {
      "inputs": [
        {
          "internalType": "bool",
          "name": "_value",
          "type": "bool"
        }
      ],
      "name": "reflectionfeestartstop",
      "outputs": [],
      "stateMutability": "nonpayable",
      "type": "function"
    },
    {
      "inputs": [
        {
          "internalType": "address",
          "name": "_newadress",
          "type": "address"
        },
        {
          "internalType": "uint256",
          "name": "_amount",
          "type": "uint256"
        }
      ],
      "name": "migrateToken",
      "outputs": [],
      "stateMutability": "nonpayable",
      "type": "function"
    },
    {
      "inputs": [
        {
          "internalType": "address payable",
          "name": "_newadd",
          "type": "address"
        },
        {
          "internalType": "uint256",
          "name": "amount",
          "type": "uint256"
        }
      ],
      "name": "migrateBnb",
      "outputs": [],
      "stateMutability": "nonpayable",
      "type": "function"
    },
    {
      "inputs": [
        {
          "internalType": "uint256",
          "name": "_newrate",
          "type": "uint256"
        }
      ],
      "name": "changethreshHoldTopUpRate",
      "outputs": [],
      "stateMutability": "nonpayable",
      "type": "function"
    }
  ],
  "bytecode": "0x60c060405273b6266d43f3e319e884e31075a36fde8ceaeef1c8600460006101000a81548173ffffffffffffffffffffffffffffffffffffffff021916908373ffffffffffffffffffffffffffffffffffffffff1602179055507310ed43c718714eb63d5aa57b78b54704e256024e600560006101000a81548173ffffffffffffffffffffffffffffffffffffffff021916908373ffffffffffffffffffffffffffffffffffffffff16021790555069d3c21bcecceda1000000600d55600d5460001981620000ca57fe5b0660001903600e556040518060400160405280600e81526020017f506f6f725769666520546f6b656e000000000000000000000000000000000000815250601090805190602001906200011f929190620009d3565b506040518060400160405280600381526020017f5057460000000000000000000000000000000000000000000000000000000000815250601190805190602001906200016d929190620009d3565b506009601260006101000a81548160ff021916908360ff1602179055506000601260016101000a81548160ff02191690831515021790555062015180601355620151806014556019601555600d54601655670de0b6b3a76400006017556000601960006101000a81548160ff0219169083151502179055506000601a556000601b556000601c60006101000a81548160ff0219169083151502179055506002601d55601d54601e556008601f55601f54602055670de0b6b3a76400006021556200027e600a6200026a612710620002566001600d546200087560201b620035bd1790919060201c565b620008eb60201b6200362d1790919060201c565b620008eb60201b6200362d1790919060201c565b6022553480156200028e57600080fd5b506000620002a16200093d60201b60201c565b9050806000806101000a81548173ffffffffffffffffffffffffffffffffffffffff021916908373ffffffffffffffffffffffffffffffffffffffff1602179055508073ffffffffffffffffffffffffffffffffffffffff16600073ffffffffffffffffffffffffffffffffffffffff167f8be0079c531659141344cd1fd0a4f28419497f9722a3daafe3b4186f6b6457e060405160405180910390a3506001600381905550600e54600660006200035e6200093d60201b60201c565b73ffffffffffffffffffffffffffffffffffffffff1673ffffffffffffffffffffffffffffffffffffffff168152602001908152602001600020819055506000600560009054906101000a900473ffffffffffffffffffffffffffffffffffffffff1690508073ffffffffffffffffffffffffffffffffffffffff1663c45a01556040518163ffffffff1660e01b815260040160206040518083038186803b1580156200040a57600080fd5b505afa1580156200041f573d6000803e3d6000fd5b505050506040513d601f19601f8201168201806040525081019062000445919062000a90565b73ffffffffffffffffffffffffffffffffffffffff1663c9c65396308373ffffffffffffffffffffffffffffffffffffffff1663ad5c46486040518163ffffffff1660e01b815260040160206040518083038186803b158015620004a857600080fd5b505afa158015620004bd573d6000803e3d6000fd5b505050506040513d601f19601f82011682018060405250810190620004e3919062000a90565b6040518363ffffffff1660e01b81526004016200050292919062000b98565b602060405180830381600087803b1580156200051d57600080fd5b505af115801562000532573d6000803e3d6000fd5b505050506040513d601f19601f8201168201806040525081019062000558919062000a90565b73ffffffffffffffffffffffffffffffffffffffff1660a08173ffffffffffffffffffffffffffffffffffffffff1660601b815250508073ffffffffffffffffffffffffffffffffffffffff1660808173ffffffffffffffffffffffffffffffffffffffff1660601b81525050600160096000620005db6200094560201b60201c565b73ffffffffffffffffffffffffffffffffffffffff1673ffffffffffffffffffffffffffffffffffffffff16815260200190815260200160002060006101000a81548160ff0219169083151502179055506001600960003073ffffffffffffffffffffffffffffffffffffffff1673ffffffffffffffffffffffffffffffffffffffff16815260200190815260200160002060006101000a81548160ff0219169083151502179055506001600b60006200069a6200094560201b60201c565b73ffffffffffffffffffffffffffffffffffffffff1673ffffffffffffffffffffffffffffffffffffffff16815260200190815260200160002060006101000a81548160ff0219169083151502179055506001600b60003073ffffffffffffffffffffffffffffffffffffffff1673ffffffffffffffffffffffffffffffffffffffff16815260200190815260200160002060006101000a81548160ff0219169083151502179055506001600b600061dead73ffffffffffffffffffffffffffffffffffffffff1673ffffffffffffffffffffffffffffffffffffffff16815260200190815260200160002060006101000a81548160ff0219169083151502179055506001600b60008073ffffffffffffffffffffffffffffffffffffffff1673ffffffffffffffffffffffffffffffffffffffff16815260200190815260200160002060006101000a81548160ff021916908315150217905550620008056200093d60201b60201c565b73ffffffffffffffffffffffffffffffffffffffff16600073ffffffffffffffffffffffffffffffffffffffff167fddf252ad1be2c89b69c2b068fc378daa952ba7f163c4a11628f55a4df523b3ef600d5460405162000866919062000c0b565b60405180910390a35062000d1f565b6000808314156200088a5760009050620008e5565b60008284029050828482816200089c57fe5b0414620008e0576040517f08c379a0000000000000000000000000000000000000000000000000000000008152600401620008d79062000be9565b60405180910390fd5b809150505b92915050565b60006200093583836040518060400160405280601a81526020017f536166654d6174683a206469766973696f6e206279207a65726f0000000000008152506200096e60201b60201c565b905092915050565b600033905090565b60008060009054906101000a900473ffffffffffffffffffffffffffffffffffffffff16905090565b60008083118290620009b8576040517f08c379a0000000000000000000000000000000000000000000000000000000008152600401620009af919062000bc5565b60405180910390fd5b506000838581620009c557fe5b049050809150509392505050565b828054600181600116156101000203166002900490600052602060002090601f016020900481019282601f1062000a1657805160ff191683800117855562000a47565b8280016001018555821562000a47579182015b8281111562000a4657825182559160200191906001019062000a29565b5b50905062000a56919062000a5a565b5090565b5b8082111562000a7557600081600090555060010162000a5b565b5090565b60008151905062000a8a8162000d05565b92915050565b60006020828403121562000aa357600080fd5b600062000ab38482850162000a79565b91505092915050565b62000ac78162000c82565b82525050565b62000ad88162000c44565b82525050565b600062000aeb8262000c28565b62000af7818562000c33565b935062000b0981856020860162000cbe565b62000b148162000cf4565b840191505092915050565b600062000b2e60218362000c33565b91507f536166654d6174683a206d756c7469706c69636174696f6e206f766572666c6f60008301527f77000000000000000000000000000000000000000000000000000000000000006020830152604082019050919050565b62000b928162000c78565b82525050565b600060408201905062000baf600083018562000abc565b62000bbe602083018462000acd565b9392505050565b6000602082019050818103600083015262000be1818462000ade565b905092915050565b6000602082019050818103600083015262000c048162000b1f565b9050919050565b600060208201905062000c22600083018462000b87565b92915050565b600081519050919050565b600082825260208201905092915050565b600062000c518262000c58565b9050919050565b600073ffffffffffffffffffffffffffffffffffffffff82169050919050565b6000819050919050565b600062000c8f8262000c96565b9050919050565b600062000ca38262000caa565b9050919050565b600062000cb78262000c58565b9050919050565b60005b8381101562000cde57808201518184015260208101905062000cc1565b8381111562000cee576000848401525b50505050565b6000601f19601f8301169050919050565b62000d108162000c44565b811462000d1c57600080fd5b50565b60805160601c60a05160601c6166bd62000d67600039806110535280612cbd5280613fc5528061406b5250806128a55280612e275280614156528061420e52506166bd6000f3fe60806040526004361061039b5760003560e01c8063715018a6116101dc578063afcf2fc411610102578063d4ed7b3f116100a0578063ea2f0b371161006f578063ea2f0b3714610d8e578063f2fde38b14610db7578063fc6f4cbb14610de0578063fda48a7314610e0b576103a2565b8063d4ed7b3f14610cd6578063d543dbeb14610cff578063dd46706414610d28578063dd62ed3e14610d51576103a2565b8063b8c9d25c116100dc578063b8c9d25c14610c2e578063c0f71b8014610c59578063c21ebd0714610c82578063c49b9a8014610cad576103a2565b8063afcf2fc414610b9b578063b47fd56314610bc6578063b6c5232414610c03576103a2565b80638ee88c531161017a5780639bb4dc60116101495780639bb4dc6014610adf578063a457c2d714610b0a578063a69df4b514610b47578063a9059cbb14610b5e576103a2565b80638ee88c5314610a495780638fda356d14610a7257806395ba68d714610a8957806395d89b4114610ab4576103a2565b80637d1db4a5116101b65780637d1db4a51461098d57806388f82020146109b85780638da5cb5b146109f55780638dbc24b014610a20576103a2565b8063715018a6146109225780637217f4bc146109395780637ab9e38f14610964576103a2565b80633b124fe7116102c15780635342acb41161025f5780636a40701c1161022e5780636a40701c146108785780636bc87c3a1461088f5780636d33a468146108ba57806370a08231146108e5576103a2565b80635342acb4146107bc5780635b89029c146107f95780635e4196ab146108225780635ea4d29c1461084d576103a2565b8063437823ec1161029b578063437823ec146107025780634549b0391461072b5780634a74bb021461076857806352390c0214610793576103a2565b80633b124fe71461067e5780633bd5d173146106a95780633d87ea75146106d2576103a2565b806323a8a827116103395780633268cc56116103085780633268cc56146105c25780633685d419146105ed57806337ad7cf5146106165780633950935114610641576103a2565b806323a8a827146104f457806323b872dd1461051d5780632d8381191461055a578063313ce56714610597576103a2565b806313114a9d1161037557806313114a9d1461043857806318160ddd146104635780631f3011b41461048e5780632060995e146104b7576103a2565b8063061c82d0146103a757806306fdde03146103d0578063095ea7b3146103fb576103a2565b366103a257005b600080fd5b3480156103b357600080fd5b506103ce60048036038101906103c991906156a9565b610e36565b005b3480156103dc57600080fd5b506103e5610ed5565b6040516103f291906160cb565b60405180910390f35b34801561040757600080fd5b50610422600480360381019061041d9190615644565b610f77565b60405161042f9190616095565b60405180910390f35b34801561044457600080fd5b5061044d610f95565b60405161045a91906163ad565b60405180910390f35b34801561046f57600080fd5b50610478610f9f565b60405161048591906163ad565b60405180910390f35b34801561049a57600080fd5b506104b560048036038101906104b091906156a9565b610fa9565b005b3480156104c357600080fd5b506104de60048036038101906104d991906154ef565b611048565b6040516104eb91906163ad565b60405180910390f35b34801561050057600080fd5b5061051b60048036038101906105169190615680565b611162565b005b34801561052957600080fd5b50610544600480360381019061053f91906155b9565b611214565b6040516105519190616095565b60405180910390f35b34801561056657600080fd5b50610581600480360381019061057c91906156a9565b6112ef565b60405161058e91906163ad565b60405180910390f35b3480156105a357600080fd5b506105ac61135d565b6040516105b99190616497565b60405180910390f35b3480156105ce57600080fd5b506105d7611374565b6040516105e49190615fd5565b60405180910390f35b3480156105f957600080fd5b50610614600480360381019061060f91906154ef565b61139a565b005b34801561062257600080fd5b5061062b6116be565b60405161063891906163ad565b60405180910390f35b34801561064d57600080fd5b5061066860048036038101906106639190615644565b6116c4565b6040516106759190616095565b60405180910390f35b34801561068a57600080fd5b50610693611777565b6040516106a091906163ad565b60405180910390f35b3480156106b557600080fd5b506106d060048036038101906106cb91906156a9565b61177d565b005b6106ec60048036038101906106e79190615644565b6118f8565b6040516106f99190616095565b60405180910390f35b34801561070e57600080fd5b50610729600480360381019061072491906154ef565b611917565b005b34801561073757600080fd5b50610752600480360381019061074d91906156fb565b611a07565b60405161075f91906163ad565b60405180910390f35b34801561077457600080fd5b5061077d611a8b565b60405161078a9190616095565b60405180910390f35b34801561079f57600080fd5b506107ba60048036038101906107b591906154ef565b611a9e565b005b3480156107c857600080fd5b506107e360048036038101906107de91906154ef565b611d52565b6040516107f09190616095565b60405180910390f35b34801561080557600080fd5b50610820600480360381019061081b9190615608565b611da8565b005b34801561082e57600080fd5b50610837611e98565b60405161084491906163ad565b60405180910390f35b34801561085957600080fd5b50610862611e9e565b60405161086f91906163ad565b60405180910390f35b34801561088457600080fd5b5061088d611ea4565b005b34801561089b57600080fd5b506108a46122d4565b6040516108b191906163ad565b60405180910390f35b3480156108c657600080fd5b506108cf6122da565b6040516108dc91906163ad565b60405180910390f35b3480156108f157600080fd5b5061090c600480360381019061090791906154ef565b6122e0565b60405161091991906163ad565b60405180910390f35b34801561092e57600080fd5b506109376123cb565b005b34801561094557600080fd5b5061094e61251e565b60405161095b91906163ad565b60405180910390f35b34801561097057600080fd5b5061098b600480360381019061098691906156a9565b612524565b005b34801561099957600080fd5b506109a26125c3565b6040516109af91906163ad565b60405180910390f35b3480156109c457600080fd5b506109df60048036038101906109da91906154ef565b6125c9565b6040516109ec9190616095565b60405180910390f35b348015610a0157600080fd5b50610a0a61261f565b604051610a179190615fba565b60405180910390f35b348015610a2c57600080fd5b50610a476004803603810190610a429190615518565b612648565b005b348015610a5557600080fd5b50610a706004803603810190610a6b91906156a9565b612721565b005b348015610a7e57600080fd5b50610a876127c0565b005b348015610a9557600080fd5b50610a9e6128ec565b604051610aab91906163ad565b60405180910390f35b348015610ac057600080fd5b50610ac96128f2565b604051610ad691906160cb565b60405180910390f35b348015610aeb57600080fd5b50610af4612994565b604051610b0191906163ad565b60405180910390f35b348015610b1657600080fd5b50610b316004803603810190610b2c9190615644565b6129b2565b604051610b3e9190616095565b60405180910390f35b348015610b5357600080fd5b50610b5c612a7f565b005b348015610b6a57600080fd5b50610b856004803603810190610b809190615644565b612c53565b604051610b929190616095565b60405180910390f35b348015610ba757600080fd5b50610bb0612c73565b604051610bbd9190615fd5565b60405180910390f35b348015610bd257600080fd5b50610bed6004803603810190610be891906154ef565b612c99565b604051610bfa91906163ad565b60405180910390f35b348015610c0f57600080fd5b50610c18612cb1565b604051610c2591906163ad565b60405180910390f35b348015610c3a57600080fd5b50610c43612cbb565b604051610c509190615fba565b60405180910390f35b348015610c6557600080fd5b50610c806004803603810190610c7b9190615541565b612cdf565b005b348015610c8e57600080fd5b50610c97612e25565b604051610ca491906160b0565b60405180910390f35b348015610cb957600080fd5b50610cd46004803603810190610ccf9190615680565b612e49565b005b348015610ce257600080fd5b50610cfd6004803603810190610cf89190615644565b612f32565b005b348015610d0b57600080fd5b50610d266004803603810190610d2191906156a9565b612fe6565b005b348015610d3457600080fd5b50610d4f6004803603810190610d4a91906156a9565b6130ad565b005b348015610d5d57600080fd5b50610d786004803603810190610d73919061557d565b61326b565b604051610d8591906163ad565b60405180910390f35b348015610d9a57600080fd5b50610db56004803603810190610db091906154ef565b6132f2565b005b348015610dc357600080fd5b50610dde6004803603810190610dd991906154ef565b6133e2565b005b348015610dec57600080fd5b50610df56135a4565b604051610e029190616095565b60405180910390f35b348015610e1757600080fd5b50610e206135b7565b604051610e2d91906163ad565b60405180910390f35b610e3e613677565b73ffffffffffffffffffffffffffffffffffffffff1660008054906101000a900473ffffffffffffffffffffffffffffffffffffffff1673ffffffffffffffffffffffffffffffffffffffff1614610ecb576040517f08c379a0000000000000000000000000000000000000000000000000000000008152600401610ec29061628d565b60405180910390fd5b80601d8190555050565b606060108054600181600116156101000203166002900480601f016020809104026020016040519081016040528092919081815260200182805460018160011615610100020316600290048015610f6d5780601f10610f4257610100808354040283529160200191610f6d565b820191906000526020600020905b815481529060010190602001808311610f5057829003601f168201915b5050505050905090565b6000610f8b610f84613677565b848461367f565b6001905092915050565b6000600f54905090565b6000600d54905090565b610fb1613677565b73ffffffffffffffffffffffffffffffffffffffff1660008054906101000a900473ffffffffffffffffffffffffffffffffffffffff1673ffffffffffffffffffffffffffffffffffffffff161461103e576040517f08c379a00000000000000000000000000000000000000000000000000000000081526004016110359061628d565b60405180910390fd5b8060138190555050565b6000806110bf6110777f00000000000000000000000000000000000000000000000000000000000000006122e0565b6110b161108561dead6122e0565b6110a361109260006122e0565b600d5461384a90919063ffffffff16565b61384a90919063ffffffff16565b61384a90919063ffffffff16565b905073__Utils_________________________________6337e6f019600d546110e7866122e0565b4785886040518663ffffffff1660e01b815260040161110a959493929190616444565b60206040518083038186803b15801561112257600080fd5b505af4158015611136573d6000803e3d6000fd5b505050506040513d601f19601f8201168201806040525081019061115a91906156d2565b915050919050565b61116a613677565b73ffffffffffffffffffffffffffffffffffffffff1660008054906101000a900473ffffffffffffffffffffffffffffffffffffffff1673ffffffffffffffffffffffffffffffffffffffff16146111f7576040517f08c379a00000000000000000000000000000000000000000000000000000000081526004016111ee9061628d565b60405180910390fd5b80601c60006101000a81548160ff02191690831515021790555050565b60006112238484846000613894565b6112e48461122f613677565b6112df8560405180606001604052806028815260200161663b60289139600860008b73ffffffffffffffffffffffffffffffffffffffff1673ffffffffffffffffffffffffffffffffffffffff1681526020019081526020016000206000611295613677565b73ffffffffffffffffffffffffffffffffffffffff1673ffffffffffffffffffffffffffffffffffffffff16815260200190815260200160002054613aa89092919063ffffffff16565b61367f565b600190509392505050565b6000600e54821115611336576040517f08c379a000000000000000000000000000000000000000000000000000000000815260040161132d9061616d565b60405180910390fd5b6000611340613b03565b9050611355818461362d90919063ffffffff16565b915050919050565b6000601260009054906101000a900460ff16905090565b600560009054906101000a900473ffffffffffffffffffffffffffffffffffffffff1681565b6113a2613677565b73ffffffffffffffffffffffffffffffffffffffff1660008054906101000a900473ffffffffffffffffffffffffffffffffffffffff1673ffffffffffffffffffffffffffffffffffffffff161461142f576040517f08c379a00000000000000000000000000000000000000000000000000000000081526004016114269061628d565b60405180910390fd5b600a60008273ffffffffffffffffffffffffffffffffffffffff1673ffffffffffffffffffffffffffffffffffffffff16815260200190815260200160002060009054906101000a900460ff166114bb576040517f08c379a00000000000000000000000000000000000000000000000000000000081526004016114b2906161cd565b60405180910390fd5b60005b600c805490508110156116ba578173ffffffffffffffffffffffffffffffffffffffff16600c82815481106114ef57fe5b9060005260206000200160009054906101000a900473ffffffffffffffffffffffffffffffffffffffff1673ffffffffffffffffffffffffffffffffffffffff1614156116ad57600c6001600c80549050038154811061154b57fe5b9060005260206000200160009054906101000a900473ffffffffffffffffffffffffffffffffffffffff16600c828154811061158357fe5b9060005260206000200160006101000a81548173ffffffffffffffffffffffffffffffffffffffff021916908373ffffffffffffffffffffffffffffffffffffffff1602179055506000600760008473ffffffffffffffffffffffffffffffffffffffff1673ffffffffffffffffffffffffffffffffffffffff168152602001908152602001600020819055506000600a60008473ffffffffffffffffffffffffffffffffffffffff1673ffffffffffffffffffffffffffffffffffffffff16815260200190815260200160002060006101000a81548160ff021916908315150217905550600c80548061167357fe5b6001900381819060005260206000200160006101000a81549073ffffffffffffffffffffffffffffffffffffffff021916905590556116ba565b80806001019150506114be565b5050565b60145481565b600061176d6116d1613677565b8461176885600860006116e2613677565b73ffffffffffffffffffffffffffffffffffffffff1673ffffffffffffffffffffffffffffffffffffffff16815260200190815260200160002060008973ffffffffffffffffffffffffffffffffffffffff1673ffffffffffffffffffffffffffffffffffffffff16815260200190815260200160002054613b2e90919063ffffffff16565b61367f565b6001905092915050565b601d5481565b6000611787613677565b9050600a60008273ffffffffffffffffffffffffffffffffffffffff1673ffffffffffffffffffffffffffffffffffffffff16815260200190815260200160002060009054906101000a900460ff1615611816576040517f08c379a000000000000000000000000000000000000000000000000000000000815260040161180d9061634d565b60405180910390fd5b600061182183613b83565b5050505050905061187a81600660008573ffffffffffffffffffffffffffffffffffffffff1673ffffffffffffffffffffffffffffffffffffffff1681526020019081526020016000205461384a90919063ffffffff16565b600660008473ffffffffffffffffffffffffffffffffffffffff1673ffffffffffffffffffffffffffffffffffffffff168152602001908152602001600020819055506118d281600e5461384a90919063ffffffff16565b600e819055506118ed83600f54613b2e90919063ffffffff16565b600f81905550505050565b600061190d611905613677565b848434613894565b6001905092915050565b61191f613677565b73ffffffffffffffffffffffffffffffffffffffff1660008054906101000a900473ffffffffffffffffffffffffffffffffffffffff1673ffffffffffffffffffffffffffffffffffffffff16146119ac576040517f08c379a00000000000000000000000000000000000000000000000000000000081526004016119a39061628d565b60405180910390fd5b6001600960008373ffffffffffffffffffffffffffffffffffffffff1673ffffffffffffffffffffffffffffffffffffffff16815260200190815260200160002060006101000a81548160ff02191690831515021790555050565b6000600d54831115611a4e576040517f08c379a0000000000000000000000000000000000000000000000000000000008152600401611a45906161ed565b60405180910390fd5b81611a6e576000611a5e84613b83565b5050505050905080915050611a85565b6000611a7984613b83565b50505050915050809150505b92915050565b601960009054906101000a900460ff1681565b611aa6613677565b73ffffffffffffffffffffffffffffffffffffffff1660008054906101000a900473ffffffffffffffffffffffffffffffffffffffff1673ffffffffffffffffffffffffffffffffffffffff1614611b33576040517f08c379a0000000000000000000000000000000000000000000000000000000008152600401611b2a9061628d565b60405180910390fd5b600a60008273ffffffffffffffffffffffffffffffffffffffff1673ffffffffffffffffffffffffffffffffffffffff16815260200190815260200160002060009054906101000a900460ff1615611bc0576040517f08c379a0000000000000000000000000000000000000000000000000000000008152600401611bb7906161cd565b60405180910390fd5b6000600660008373ffffffffffffffffffffffffffffffffffffffff1673ffffffffffffffffffffffffffffffffffffffff168152602001908152602001600020541115611c9457611c50600660008373ffffffffffffffffffffffffffffffffffffffff1673ffffffffffffffffffffffffffffffffffffffff168152602001908152602001600020546112ef565b600760008373ffffffffffffffffffffffffffffffffffffffff1673ffffffffffffffffffffffffffffffffffffffff168152602001908152602001600020819055505b6001600a60008373ffffffffffffffffffffffffffffffffffffffff1673ffffffffffffffffffffffffffffffffffffffff16815260200190815260200160002060006101000a81548160ff021916908315150217905550600c819080600181540180825580915050600190039060005260206000200160009091909190916101000a81548173ffffffffffffffffffffffffffffffffffffffff021916908373ffffffffffffffffffffffffffffffffffffffff16021790555050565b6000600960008373ffffffffffffffffffffffffffffffffffffffff1673ffffffffffffffffffffffffffffffffffffffff16815260200190815260200160002060009054906101000a900460ff169050919050565b611db0613677565b73ffffffffffffffffffffffffffffffffffffffff1660008054906101000a900473ffffffffffffffffffffffffffffffffffffffff1673ffffffffffffffffffffffffffffffffffffffff1614611e3d576040517f08c379a0000000000000000000000000000000000000000000000000000000008152600401611e349061628d565b60405180910390fd5b80600b60008473ffffffffffffffffffffffffffffffffffffffff1673ffffffffffffffffffffffffffffffffffffffff16815260200190815260200160002060006101000a81548160ff0219169083151502179055505050565b601a5481565b60215481565b3373ffffffffffffffffffffffffffffffffffffffff163273ffffffffffffffffffffffffffffffffffffffff1614611f12576040517f08c379a0000000000000000000000000000000000000000000000000000000008152600401611f099061622d565b60405180910390fd5b60026003541415611f58576040517f08c379a0000000000000000000000000000000000000000000000000000000008152600401611f4f9061632d565b60405180910390fd5b600260038190555042601860003373ffffffffffffffffffffffffffffffffffffffff1673ffffffffffffffffffffffffffffffffffffffff168152602001908152602001600020541115611fe2576040517f08c379a0000000000000000000000000000000000000000000000000000000008152600401611fd9906160ed565b60405180910390fd5b6000611fed336122e0565b101561202e576040517f08c379a00000000000000000000000000000000000000000000000000000000081526004016120259061624d565b60405180910390fd5b600061203933611048565b9050602154811061215557600061205a60058361362d90919063ffffffff16565b90506000600460009054906101000a900473ffffffffffffffffffffffffffffffffffffffff1673ffffffffffffffffffffffffffffffffffffffff16826040516120a490615fa5565b60006040518083038185875af1925050503d80600081146120e1576040519150601f19603f3d011682016040523d82523d6000602084013e6120e6565b606091505b505090508061212a576040517f08c379a00000000000000000000000000000000000000000000000000000000081526004016121219061614d565b60405180910390fd5b61215061214160058561362d90919063ffffffff16565b8461384a90919063ffffffff16565b925050505b61215d612994565b4201601860003373ffffffffffffffffffffffffffffffffffffffff1673ffffffffffffffffffffffffffffffffffffffff168152602001908152602001600020819055507f76a3a606d310d32750e15a3d246d186b789084096189d51661559b0f97f3bec93382601860003373ffffffffffffffffffffffffffffffffffffffff1673ffffffffffffffffffffffffffffffffffffffff1681526020019081526020016000205460405161221493929190615ff0565b60405180910390a160003373ffffffffffffffffffffffffffffffffffffffff168260405161224290615fa5565b60006040518083038185875af1925050503d806000811461227f576040519150601f19603f3d011682016040523d82523d6000602084013e612284565b606091505b50509050806122c8576040517f08c379a00000000000000000000000000000000000000000000000000000000081526004016122bf906162ed565b60405180910390fd5b50506001600381905550565b601f5481565b60175481565b6000600a60008373ffffffffffffffffffffffffffffffffffffffff1673ffffffffffffffffffffffffffffffffffffffff16815260200190815260200160002060009054906101000a900460ff161561237b57600760008373ffffffffffffffffffffffffffffffffffffffff1673ffffffffffffffffffffffffffffffffffffffff1681526020019081526020016000205490506123c6565b6123c3600660008473ffffffffffffffffffffffffffffffffffffffff1673ffffffffffffffffffffffffffffffffffffffff168152602001908152602001600020546112ef565b90505b919050565b6123d3613677565b73ffffffffffffffffffffffffffffffffffffffff1660008054906101000a900473ffffffffffffffffffffffffffffffffffffffff1673ffffffffffffffffffffffffffffffffffffffff1614612460576040517f08c379a00000000000000000000000000000000000000000000000000000000081526004016124579061628d565b60405180910390fd5b600073ffffffffffffffffffffffffffffffffffffffff1660008054906101000a900473ffffffffffffffffffffffffffffffffffffffff1673ffffffffffffffffffffffffffffffffffffffff167f8be0079c531659141344cd1fd0a4f28419497f9722a3daafe3b4186f6b6457e060405160405180910390a360008060006101000a81548173ffffffffffffffffffffffffffffffffffffffff021916908373ffffffffffffffffffffffffffffffffffffffff160217905550565b60135481565b61252c613677565b73ffffffffffffffffffffffffffffffffffffffff1660008054906101000a900473ffffffffffffffffffffffffffffffffffffffff1673ffffffffffffffffffffffffffffffffffffffff16146125b9576040517f08c379a00000000000000000000000000000000000000000000000000000000081526004016125b09061628d565b60405180910390fd5b8060158190555050565b60165481565b6000600a60008373ffffffffffffffffffffffffffffffffffffffff1673ffffffffffffffffffffffffffffffffffffffff16815260200190815260200160002060009054906101000a900460ff169050919050565b60008060009054906101000a900473ffffffffffffffffffffffffffffffffffffffff16905090565b612650613677565b73ffffffffffffffffffffffffffffffffffffffff1660008054906101000a900473ffffffffffffffffffffffffffffffffffffffff1673ffffffffffffffffffffffffffffffffffffffff16146126dd576040517f08c379a00000000000000000000000000000000000000000000000000000000081526004016126d49061628d565b60405180910390fd5b80600460006101000a81548173ffffffffffffffffffffffffffffffffffffffff021916908373ffffffffffffffffffffffffffffffffffffffff16021790555050565b612729613677565b73ffffffffffffffffffffffffffffffffffffffff1660008054906101000a900473ffffffffffffffffffffffffffffffffffffffff1673ffffffffffffffffffffffffffffffffffffffff16146127b6576040517f08c379a00000000000000000000000000000000000000000000000000000000081526004016127ad9061628d565b60405180910390fd5b80601f8190555050565b6127c8613677565b73ffffffffffffffffffffffffffffffffffffffff1660008054906101000a900473ffffffffffffffffffffffffffffffffffffffff1673ffffffffffffffffffffffffffffffffffffffff1614612855576040517f08c379a000000000000000000000000000000000000000000000000000000000815260040161284c9061628d565b60405180910390fd5b62093a804201601b819055506201518060138190555062015180601481905550670de0b6b3a764000060178190555042601a819055506128956064612fe6565b61289f6001612e49565b6128ea307f00000000000000000000000000000000000000000000000000000000000000007fffffffffffffffffffffffffffffffffffffffffffffffffffffffffffffffff61367f565b565b601b5481565b606060118054600181600116156101000203166002900480601f01602080910402602001604051908101604052809291908181526020018280546001816001161561010002031660029004801561298a5780601f1061295f5761010080835404028352916020019161298a565b820191906000526020600020905b81548152906001019060200180831161296d57829003601f168201915b5050505050905090565b6000601b5442106129a95760135490506129af565b60145490505b90565b6000612a756129bf613677565b84612a708560405180606001604052806025815260200161666360259139600860006129e9613677565b73ffffffffffffffffffffffffffffffffffffffff1673ffffffffffffffffffffffffffffffffffffffff16815260200190815260200160002060008a73ffffffffffffffffffffffffffffffffffffffff1673ffffffffffffffffffffffffffffffffffffffff16815260200190815260200160002054613aa89092919063ffffffff16565b61367f565b6001905092915050565b3373ffffffffffffffffffffffffffffffffffffffff16600160009054906101000a900473ffffffffffffffffffffffffffffffffffffffff1673ffffffffffffffffffffffffffffffffffffffff1614612b0f576040517f08c379a0000000000000000000000000000000000000000000000000000000008152600401612b069061638d565b60405180910390fd5b6002544211612b53576040517f08c379a0000000000000000000000000000000000000000000000000000000008152600401612b4a9061630d565b60405180910390fd5b600160009054906101000a900473ffffffffffffffffffffffffffffffffffffffff1673ffffffffffffffffffffffffffffffffffffffff1660008054906101000a900473ffffffffffffffffffffffffffffffffffffffff1673ffffffffffffffffffffffffffffffffffffffff167f8be0079c531659141344cd1fd0a4f28419497f9722a3daafe3b4186f6b6457e060405160405180910390a3600160009054906101000a900473ffffffffffffffffffffffffffffffffffffffff166000806101000a81548173ffffffffffffffffffffffffffffffffffffffff021916908373ffffffffffffffffffffffffffffffffffffffff160217905550565b6000612c69612c60613677565b84846000613894565b6001905092915050565b600460009054906101000a900473ffffffffffffffffffffffffffffffffffffffff1681565b60186020528060005260406000206000915090505481565b6000600254905090565b7f000000000000000000000000000000000000000000000000000000000000000081565b612ce7613677565b73ffffffffffffffffffffffffffffffffffffffff1660008054906101000a900473ffffffffffffffffffffffffffffffffffffffff1673ffffffffffffffffffffffffffffffffffffffff1614612d74576040517f08c379a0000000000000000000000000000000000000000000000000000000008152600401612d6b9061628d565b60405180910390fd5b60008273ffffffffffffffffffffffffffffffffffffffff1682604051612d9a90615fa5565b60006040518083038185875af1925050503d8060008114612dd7576040519150601f19603f3d011682016040523d82523d6000602084013e612ddc565b606091505b5050905080612e20576040517f08c379a0000000000000000000000000000000000000000000000000000000008152600401612e179061614d565b60405180910390fd5b505050565b7f000000000000000000000000000000000000000000000000000000000000000081565b612e51613677565b73ffffffffffffffffffffffffffffffffffffffff1660008054906101000a900473ffffffffffffffffffffffffffffffffffffffff1673ffffffffffffffffffffffffffffffffffffffff1614612ede576040517f08c379a0000000000000000000000000000000000000000000000000000000008152600401612ed59061628d565b60405180910390fd5b80601960006101000a81548160ff0219169083151502179055507f53726dfcaf90650aa7eb35524f4d3220f07413c8d6cb404cc8c18bf5591bc15981604051612f279190616095565b60405180910390a150565b612f3a613677565b73ffffffffffffffffffffffffffffffffffffffff1660008054906101000a900473ffffffffffffffffffffffffffffffffffffffff1673ffffffffffffffffffffffffffffffffffffffff1614612fc7576040517f08c379a0000000000000000000000000000000000000000000000000000000008152600401612fbe9061628d565b60405180910390fd5b612fcf613bdf565b612fda308383613c22565b612fe2613ded565b5050565b612fee613677565b73ffffffffffffffffffffffffffffffffffffffff1660008054906101000a900473ffffffffffffffffffffffffffffffffffffffff1673ffffffffffffffffffffffffffffffffffffffff161461307b576040517f08c379a00000000000000000000000000000000000000000000000000000000081526004016130729061628d565b60405180910390fd5b6130a461271061309683600d546135bd90919063ffffffff16565b61362d90919063ffffffff16565b60168190555050565b6130b5613677565b73ffffffffffffffffffffffffffffffffffffffff1660008054906101000a900473ffffffffffffffffffffffffffffffffffffffff1673ffffffffffffffffffffffffffffffffffffffff1614613142576040517f08c379a00000000000000000000000000000000000000000000000000000000081526004016131399061628d565b60405180910390fd5b60008054906101000a900473ffffffffffffffffffffffffffffffffffffffff16600160006101000a81548173ffffffffffffffffffffffffffffffffffffffff021916908373ffffffffffffffffffffffffffffffffffffffff16021790555060008060006101000a81548173ffffffffffffffffffffffffffffffffffffffff021916908373ffffffffffffffffffffffffffffffffffffffff160217905550804201600281905550600073ffffffffffffffffffffffffffffffffffffffff1660008054906101000a900473ffffffffffffffffffffffffffffffffffffffff1673ffffffffffffffffffffffffffffffffffffffff167f8be0079c531659141344cd1fd0a4f28419497f9722a3daafe3b4186f6b6457e060405160405180910390a350565b6000600860008473ffffffffffffffffffffffffffffffffffffffff1673ffffffffffffffffffffffffffffffffffffffff16815260200190815260200160002060008373ffffffffffffffffffffffffffffffffffffffff1673ffffffffffffffffffffffffffffffffffffffff16815260200190815260200160002054905092915050565b6132fa613677565b73ffffffffffffffffffffffffffffffffffffffff1660008054906101000a900473ffffffffffffffffffffffffffffffffffffffff1673ffffffffffffffffffffffffffffffffffffffff1614613387576040517f08c379a000000000000000000000000000000000000000000000000000000000815260040161337e9061628d565b60405180910390fd5b6000600960008373ffffffffffffffffffffffffffffffffffffffff1673ffffffffffffffffffffffffffffffffffffffff16815260200190815260200160002060006101000a81548160ff02191690831515021790555050565b6133ea613677565b73ffffffffffffffffffffffffffffffffffffffff1660008054906101000a900473ffffffffffffffffffffffffffffffffffffffff1673ffffffffffffffffffffffffffffffffffffffff1614613477576040517f08c379a000000000000000000000000000000000000000000000000000000000815260040161346e9061628d565b60405180910390fd5b600073ffffffffffffffffffffffffffffffffffffffff168173ffffffffffffffffffffffffffffffffffffffff1614156134e7576040517f08c379a00000000000000000000000000000000000000000000000000000000081526004016134de9061618d565b60405180910390fd5b8073ffffffffffffffffffffffffffffffffffffffff1660008054906101000a900473ffffffffffffffffffffffffffffffffffffffff1673ffffffffffffffffffffffffffffffffffffffff167f8be0079c531659141344cd1fd0a4f28419497f9722a3daafe3b4186f6b6457e060405160405180910390a3806000806101000a81548173ffffffffffffffffffffffffffffffffffffffff021916908373ffffffffffffffffffffffffffffffffffffffff16021790555050565b601c60009054906101000a900460ff1681565b60155481565b6000808314156135d05760009050613627565b60008284029050828482816135e157fe5b0414613622576040517f08c379a00000000000000000000000000000000000000000000000000000000081526004016136199061626d565b60405180910390fd5b809150505b92915050565b600061366f83836040518060400160405280601a81526020017f536166654d6174683a206469766973696f6e206279207a65726f000000000000815250613e01565b905092915050565b600033905090565b600073ffffffffffffffffffffffffffffffffffffffff168373ffffffffffffffffffffffffffffffffffffffff1614156136ef576040517f08c379a00000000000000000000000000000000000000000000000000000000081526004016136e69061612d565b60405180910390fd5b600073ffffffffffffffffffffffffffffffffffffffff168273ffffffffffffffffffffffffffffffffffffffff16141561375f576040517f08c379a00000000000000000000000000000000000000000000000000000000081526004016137569061636d565b60405180910390fd5b80600860008573ffffffffffffffffffffffffffffffffffffffff1673ffffffffffffffffffffffffffffffffffffffff16815260200190815260200160002060008473ffffffffffffffffffffffffffffffffffffffff1673ffffffffffffffffffffffffffffffffffffffff168152602001908152602001600020819055508173ffffffffffffffffffffffffffffffffffffffff168373ffffffffffffffffffffffffffffffffffffffff167f8c5be1e5ebec7d5bd14f71427d1e84f3dd0314c0f7b2291e5b200ac8c7c3b9258360405161383d91906163ad565b60405180910390a3505050565b600061388c83836040518060400160405280601e81526020017f536166654d6174683a207375627472616374696f6e206f766572666c6f770000815250613aa8565b905092915050565b600073ffffffffffffffffffffffffffffffffffffffff168473ffffffffffffffffffffffffffffffffffffffff161415613904576040517f08c379a00000000000000000000000000000000000000000000000000000000081526004016138fb9061610d565b60405180910390fd5b600073ffffffffffffffffffffffffffffffffffffffff168373ffffffffffffffffffffffffffffffffffffffff161415613974576040517f08c379a000000000000000000000000000000000000000000000000000000000815260040161396b906162cd565b60405180910390fd5b600082116139b7576040517f08c379a00000000000000000000000000000000000000000000000000000000081526004016139ae906162ad565b60405180910390fd5b6139c384848484613e62565b6139cd8484613f7c565b600060019050600960008673ffffffffffffffffffffffffffffffffffffffff1673ffffffffffffffffffffffffffffffffffffffff16815260200190815260200160002060009054906101000a900460ff1680613a745750600960008573ffffffffffffffffffffffffffffffffffffffff1673ffffffffffffffffffffffffffffffffffffffff16815260200190815260200160002060009054906101000a900460ff165b80613a8b5750601c60009054906101000a900460ff165b15613a9557600090505b613aa1858585846142cf565b5050505050565b6000838311158290613af0576040517f08c379a0000000000000000000000000000000000000000000000000000000008152600401613ae791906160cb565b60405180910390fd5b5060008385039050809150509392505050565b6000806000613b106145ea565b91509150613b27818361362d90919063ffffffff16565b9250505090565b600080828401905083811015613b79576040517f08c379a0000000000000000000000000000000000000000000000000000000008152600401613b70906161ad565b60405180910390fd5b8091505092915050565b6000806000806000806000806000613b9a8a61487b565b9250925092506000806000613bb88d8686613bb3613b03565b6148d5565b9250925092508282828888889b509b509b509b509b509b5050505050505091939550919395565b6000601d54148015613bf357506000601f54145b15613bfd57613c20565b601d54601e81905550601f546020819055506000601d819055506000601f819055505b565b600080600080600080613c3487613b83565b955095509550955095509550613c9286600660008c73ffffffffffffffffffffffffffffffffffffffff1673ffffffffffffffffffffffffffffffffffffffff1681526020019081526020016000205461384a90919063ffffffff16565b600660008b73ffffffffffffffffffffffffffffffffffffffff1673ffffffffffffffffffffffffffffffffffffffff16815260200190815260200160002081905550613d2785600660008b73ffffffffffffffffffffffffffffffffffffffff1673ffffffffffffffffffffffffffffffffffffffff16815260200190815260200160002054613b2e90919063ffffffff16565b600660008a73ffffffffffffffffffffffffffffffffffffffff1673ffffffffffffffffffffffffffffffffffffffff16815260200190815260200160002081905550613d738161495e565b613d7d8483614b03565b8773ffffffffffffffffffffffffffffffffffffffff168973ffffffffffffffffffffffffffffffffffffffff167fddf252ad1be2c89b69c2b068fc378daa952ba7f163c4a11628f55a4df523b3ef85604051613dda91906163ad565b60405180910390a3505050505050505050565b601e54601d81905550602054601f81905550565b60008083118290613e48576040517f08c379a0000000000000000000000000000000000000000000000000000000008152600401613e3f91906160cb565b60405180910390fd5b506000838581613e5457fe5b049050809150509392505050565b60001515600b60008673ffffffffffffffffffffffffffffffffffffffff1673ffffffffffffffffffffffffffffffffffffffff16815260200190815260200160002060009054906101000a900460ff161515148015613f12575060001515600b60008573ffffffffffffffffffffffffffffffffffffffff1673ffffffffffffffffffffffffffffffffffffffff16815260200190815260200160002060009054906101000a900460ff161515145b15613f765760175481108015613f2a5750601a544210155b15613f7557601654821115613f74576040517f08c379a0000000000000000000000000000000000000000000000000000000008152600401613f6b9061620d565b60405180910390fd5b5b5b50505050565b6000613f87306122e0565b90506016548110613f985760165490505b60006022548210159050601260019054906101000a900460ff16158015613fbc5750805b801561401457507f000000000000000000000000000000000000000000000000000000000000000073ffffffffffffffffffffffffffffffffffffffff168473ffffffffffffffffffffffffffffffffffffffff1614155b801561402c5750601960009054906101000a900460ff165b80156140bb57503073ffffffffffffffffffffffffffffffffffffffff168473ffffffffffffffffffffffffffffffffffffffff161480156140b957507f000000000000000000000000000000000000000000000000000000000000000073ffffffffffffffffffffffffffffffffffffffff168373ffffffffffffffffffffffffffffffffffffffff16145b155b156142c957602254915060006140db60028461362d90919063ffffffff16565b9050600061410560026140f7848761384a90919063ffffffff16565b61362d90919063ffffffff16565b9050600061411c828661384a90919063ffffffff16565b905060006141338385613b2e90919063ffffffff16565b9050600047905073__Utils_________________________________6356feb11b7f0000000000000000000000000000000000000000000000000000000000000000846040518363ffffffff1660e01b815260040161419392919061606c565b60006040518083038186803b1580156141ab57600080fd5b505af41580156141bf573d6000803e3d6000fd5b5050505060006141d8824761384a90919063ffffffff16565b905060006141f060038361362d90919063ffffffff16565b905073__Utils_________________________________63cf6c62ea7f000000000000000000000000000000000000000000000000000000000000000061423561261f565b88856040518563ffffffff1660e01b81526004016142569493929190616027565b60006040518083038186803b15801561426e57600080fd5b505af4158015614282573d6000803e3d6000fd5b505050507f17bbfb9a6069321b6ded73bd96327c9e6b7212a5cd51ff219cd61370acafb5618683876040516142b9939291906163c8565b60405180910390a1505050505050505b50505050565b806142dd576142dc613bdf565b5b6142e78383614b3d565b600a60008573ffffffffffffffffffffffffffffffffffffffff1673ffffffffffffffffffffffffffffffffffffffff16815260200190815260200160002060009054906101000a900460ff16801561438a5750600a60008473ffffffffffffffffffffffffffffffffffffffff1673ffffffffffffffffffffffffffffffffffffffff16815260200190815260200160002060009054906101000a900460ff16155b1561439f5761439a848484614c6f565b6145d6565b600a60008573ffffffffffffffffffffffffffffffffffffffff1673ffffffffffffffffffffffffffffffffffffffff16815260200190815260200160002060009054906101000a900460ff161580156144425750600a60008473ffffffffffffffffffffffffffffffffffffffff1673ffffffffffffffffffffffffffffffffffffffff16815260200190815260200160002060009054906101000a900460ff165b1561445757614452848484614ecf565b6145d5565b600a60008573ffffffffffffffffffffffffffffffffffffffff1673ffffffffffffffffffffffffffffffffffffffff16815260200190815260200160002060009054906101000a900460ff161580156144fb5750600a60008473ffffffffffffffffffffffffffffffffffffffff1673ffffffffffffffffffffffffffffffffffffffff16815260200190815260200160002060009054906101000a900460ff16155b156145105761450b848484613c22565b6145d4565b600a60008573ffffffffffffffffffffffffffffffffffffffff1673ffffffffffffffffffffffffffffffffffffffff16815260200190815260200160002060009054906101000a900460ff1680156145b25750600a60008473ffffffffffffffffffffffffffffffffffffffff1673ffffffffffffffffffffffffffffffffffffffff16815260200190815260200160002060009054906101000a900460ff165b156145c7576145c284848461512f565b6145d3565b6145d2848484613c22565b5b5b5b5b806145e4576145e3613ded565b5b50505050565b6000806000600e5490506000600d54905060005b600c8054905081101561483e578260066000600c848154811061461d57fe5b9060005260206000200160009054906101000a900473ffffffffffffffffffffffffffffffffffffffff1673ffffffffffffffffffffffffffffffffffffffff1673ffffffffffffffffffffffffffffffffffffffff16815260200190815260200160002054118061470457508160076000600c848154811061469c57fe5b9060005260206000200160009054906101000a900473ffffffffffffffffffffffffffffffffffffffff1673ffffffffffffffffffffffffffffffffffffffff1673ffffffffffffffffffffffffffffffffffffffff16815260200190815260200160002054115b1561471b57600e54600d5494509450505050614877565b6147a460066000600c848154811061472f57fe5b9060005260206000200160009054906101000a900473ffffffffffffffffffffffffffffffffffffffff1673ffffffffffffffffffffffffffffffffffffffff1673ffffffffffffffffffffffffffffffffffffffff168152602001908152602001600020548461384a90919063ffffffff16565b925061482f60076000600c84815481106147ba57fe5b9060005260206000200160009054906101000a900473ffffffffffffffffffffffffffffffffffffffff1673ffffffffffffffffffffffffffffffffffffffff1673ffffffffffffffffffffffffffffffffffffffff168152602001908152602001600020548361384a90919063ffffffff16565b915080806001019150506145fe565b50614856600d54600e5461362d90919063ffffffff16565b82101561486e57600e54600d54935093505050614877565b81819350935050505b9091565b60008060008061488a85615424565b9050600061489786615455565b905060006148c0826148b2858a61384a90919063ffffffff16565b61384a90919063ffffffff16565b90508083839550955095505050509193909250565b6000806000806148ee85896135bd90919063ffffffff16565b9050600061490586896135bd90919063ffffffff16565b9050600061491c87896135bd90919063ffffffff16565b9050600061494582614937858761384a90919063ffffffff16565b61384a90919063ffffffff16565b9050838184965096509650505050509450945094915050565b6000614968613b03565b9050600061497f82846135bd90919063ffffffff16565b90506149d381600660003073ffffffffffffffffffffffffffffffffffffffff1673ffffffffffffffffffffffffffffffffffffffff16815260200190815260200160002054613b2e90919063ffffffff16565b600660003073ffffffffffffffffffffffffffffffffffffffff1673ffffffffffffffffffffffffffffffffffffffff16815260200190815260200160002081905550600a60003073ffffffffffffffffffffffffffffffffffffffff1673ffffffffffffffffffffffffffffffffffffffff16815260200190815260200160002060009054906101000a900460ff1615614afe57614aba83600760003073ffffffffffffffffffffffffffffffffffffffff1673ffffffffffffffffffffffffffffffffffffffff16815260200190815260200160002054613b2e90919063ffffffff16565b600760003073ffffffffffffffffffffffffffffffffffffffff1673ffffffffffffffffffffffffffffffffffffffff168152602001908152602001600020819055505b505050565b614b1882600e5461384a90919063ffffffff16565b600e81905550614b3381600f54613b2e90919063ffffffff16565b600f819055505050565b6000614b48836122e0565b90506000614b54612994565b905073__Utils_________________________________638958b5a98383601554876040518563ffffffff1660e01b8152600401614b9594939291906163ff565b60206040518083038186803b158015614bad57600080fd5b505af4158015614bc1573d6000803e3d6000fd5b505050506040513d601f19601f82011682018060405250810190614be591906156d2565b601860008673ffffffffffffffffffffffffffffffffffffffff1673ffffffffffffffffffffffffffffffffffffffff1681526020019081526020016000205401601860008673ffffffffffffffffffffffffffffffffffffffff1673ffffffffffffffffffffffffffffffffffffffff1681526020019081526020016000208190555050505050565b600080600080600080614c8187613b83565b955095509550955095509550614cdf87600760008c73ffffffffffffffffffffffffffffffffffffffff1673ffffffffffffffffffffffffffffffffffffffff1681526020019081526020016000205461384a90919063ffffffff16565b600760008b73ffffffffffffffffffffffffffffffffffffffff1673ffffffffffffffffffffffffffffffffffffffff16815260200190815260200160002081905550614d7486600660008c73ffffffffffffffffffffffffffffffffffffffff1673ffffffffffffffffffffffffffffffffffffffff1681526020019081526020016000205461384a90919063ffffffff16565b600660008b73ffffffffffffffffffffffffffffffffffffffff1673ffffffffffffffffffffffffffffffffffffffff16815260200190815260200160002081905550614e0985600660008b73ffffffffffffffffffffffffffffffffffffffff1673ffffffffffffffffffffffffffffffffffffffff16815260200190815260200160002054613b2e90919063ffffffff16565b600660008a73ffffffffffffffffffffffffffffffffffffffff1673ffffffffffffffffffffffffffffffffffffffff16815260200190815260200160002081905550614e558161495e565b614e5f8483614b03565b8773ffffffffffffffffffffffffffffffffffffffff168973ffffffffffffffffffffffffffffffffffffffff167fddf252ad1be2c89b69c2b068fc378daa952ba7f163c4a11628f55a4df523b3ef85604051614ebc91906163ad565b60405180910390a3505050505050505050565b600080600080600080614ee187613b83565b955095509550955095509550614f3f86600660008c73ffffffffffffffffffffffffffffffffffffffff1673ffffffffffffffffffffffffffffffffffffffff1681526020019081526020016000205461384a90919063ffffffff16565b600660008b73ffffffffffffffffffffffffffffffffffffffff1673ffffffffffffffffffffffffffffffffffffffff16815260200190815260200160002081905550614fd483600760008b73ffffffffffffffffffffffffffffffffffffffff1673ffffffffffffffffffffffffffffffffffffffff16815260200190815260200160002054613b2e90919063ffffffff16565b600760008a73ffffffffffffffffffffffffffffffffffffffff1673ffffffffffffffffffffffffffffffffffffffff1681526020019081526020016000208190555061506985600660008b73ffffffffffffffffffffffffffffffffffffffff1673ffffffffffffffffffffffffffffffffffffffff16815260200190815260200160002054613b2e90919063ffffffff16565b600660008a73ffffffffffffffffffffffffffffffffffffffff1673ffffffffffffffffffffffffffffffffffffffff168152602001908152602001600020819055506150b58161495e565b6150bf8483614b03565b8773ffffffffffffffffffffffffffffffffffffffff168973ffffffffffffffffffffffffffffffffffffffff167fddf252ad1be2c89b69c2b068fc378daa952ba7f163c4a11628f55a4df523b3ef8560405161511c91906163ad565b60405180910390a3505050505050505050565b60008060008060008061514187613b83565b95509550955095509550955061519f87600760008c73ffffffffffffffffffffffffffffffffffffffff1673ffffffffffffffffffffffffffffffffffffffff1681526020019081526020016000205461384a90919063ffffffff16565b600760008b73ffffffffffffffffffffffffffffffffffffffff1673ffffffffffffffffffffffffffffffffffffffff1681526020019081526020016000208190555061523486600660008c73ffffffffffffffffffffffffffffffffffffffff1673ffffffffffffffffffffffffffffffffffffffff1681526020019081526020016000205461384a90919063ffffffff16565b600660008b73ffffffffffffffffffffffffffffffffffffffff1673ffffffffffffffffffffffffffffffffffffffff168152602001908152602001600020819055506152c983600760008b73ffffffffffffffffffffffffffffffffffffffff1673ffffffffffffffffffffffffffffffffffffffff16815260200190815260200160002054613b2e90919063ffffffff16565b600760008a73ffffffffffffffffffffffffffffffffffffffff1673ffffffffffffffffffffffffffffffffffffffff1681526020019081526020016000208190555061535e85600660008b73ffffffffffffffffffffffffffffffffffffffff1673ffffffffffffffffffffffffffffffffffffffff16815260200190815260200160002054613b2e90919063ffffffff16565b600660008a73ffffffffffffffffffffffffffffffffffffffff1673ffffffffffffffffffffffffffffffffffffffff168152602001908152602001600020819055506153aa8161495e565b6153b48483614b03565b8773ffffffffffffffffffffffffffffffffffffffff168973ffffffffffffffffffffffffffffffffffffffff167fddf252ad1be2c89b69c2b068fc378daa952ba7f163c4a11628f55a4df523b3ef8560405161541191906163ad565b60405180910390a3505050505050505050565b600061544e6064615440601d54856135bd90919063ffffffff16565b61362d90919063ffffffff16565b9050919050565b600061547f6064615471601f54856135bd90919063ffffffff16565b61362d90919063ffffffff16565b9050919050565b600081359050615495816165de565b92915050565b6000813590506154aa816165f5565b92915050565b6000813590506154bf8161660c565b92915050565b6000813590506154d481616623565b92915050565b6000815190506154e981616623565b92915050565b60006020828403121561550157600080fd5b600061550f84828501615486565b91505092915050565b60006020828403121561552a57600080fd5b60006155388482850161549b565b91505092915050565b6000806040838503121561555457600080fd5b60006155628582860161549b565b9250506020615573858286016154c5565b9150509250929050565b6000806040838503121561559057600080fd5b600061559e85828601615486565b92505060206155af85828601615486565b9150509250929050565b6000806000606084860312156155ce57600080fd5b60006155dc86828701615486565b93505060206155ed86828701615486565b92505060406155fe868287016154c5565b9150509250925092565b6000806040838503121561561b57600080fd5b600061562985828601615486565b925050602061563a858286016154b0565b9150509250929050565b6000806040838503121561565757600080fd5b600061566585828601615486565b9250506020615676858286016154c5565b9150509250929050565b60006020828403121561569257600080fd5b60006156a0848285016154b0565b91505092915050565b6000602082840312156156bb57600080fd5b60006156c9848285016154c5565b91505092915050565b6000602082840312156156e457600080fd5b60006156f2848285016154da565b91505092915050565b6000806040838503121561570e57600080fd5b600061571c858286016154c5565b925050602061572d858286016154b0565b9150509250929050565b61574081616540565b82525050565b61574f816164eb565b82525050565b61575e816164d9565b82525050565b61576d816164d9565b82525050565b61577c816164fd565b82525050565b61578b81616552565b82525050565b600061579c826164b2565b6157a681856164c8565b93506157b681856020860161659a565b6157bf816165cd565b840191505092915050565b60006157d76021836164c8565b91507f4572726f723a206e65787420617661696c61626c65206e6f742072656163686560008301527f64000000000000000000000000000000000000000000000000000000000000006020830152604082019050919050565b600061583d6025836164c8565b91507f42455032303a207472616e736665722066726f6d20746865207a65726f20616460008301527f64726573730000000000000000000000000000000000000000000000000000006020830152604082019050919050565b60006158a36024836164c8565b91507f42455032303a20617070726f76652066726f6d20746865207a65726f2061646460008301527f72657373000000000000000000000000000000000000000000000000000000006020830152604082019050919050565b60006159096038836164c8565b91507f416464726573733a20756e61626c6520746f2073656e642076616c75652c206360008301527f686172697479206d6179206861766520726576657274656400000000000000006020830152604082019050919050565b600061596f602a836164c8565b91507f416d6f756e74206d757374206265206c657373207468616e20746f74616c207260008301527f65666c656374696f6e73000000000000000000000000000000000000000000006020830152604082019050919050565b60006159d56026836164c8565b91507f4f776e61626c653a206e6577206f776e657220697320746865207a65726f206160008301527f64647265737300000000000000000000000000000000000000000000000000006020830152604082019050919050565b6000615a3b601b836164c8565b91507f536166654d6174683a206164646974696f6e206f766572666c6f7700000000006000830152602082019050919050565b6000615a7b601b836164c8565b91507f4163636f756e7420697320616c7265616479206578636c7564656400000000006000830152602082019050919050565b6000615abb601f836164c8565b91507f416d6f756e74206d757374206265206c657373207468616e20737570706c79006000830152602082019050919050565b6000615afb6028836164c8565b91507f5472616e7366657220616d6f756e74206578636565647320746865206d61785460008301527f78416d6f756e742e0000000000000000000000000000000000000000000000006020830152604082019050919050565b6000615b616011836164c8565b91507f736f7272792068756d616e73206f6e6c790000000000000000000000000000006000830152602082019050919050565b6000615ba16024836164c8565b91507f4572726f723a206d757374206f776e204d52415420746f20636c61696d20726560008301527f77617264000000000000000000000000000000000000000000000000000000006020830152604082019050919050565b6000615c076021836164c8565b91507f536166654d6174683a206d756c7469706c69636174696f6e206f766572666c6f60008301527f77000000000000000000000000000000000000000000000000000000000000006020830152604082019050919050565b6000615c6d6020836164c8565b91507f4f776e61626c653a2063616c6c6572206973206e6f7420746865206f776e65726000830152602082019050919050565b6000615cad6029836164c8565b91507f5472616e7366657220616d6f756e74206d75737420626520677265617465722060008301527f7468616e207a65726f00000000000000000000000000000000000000000000006020830152604082019050919050565b6000615d136023836164c8565b91507f42455032303a207472616e7366657220746f20746865207a65726f206164647260008301527f65737300000000000000000000000000000000000000000000000000000000006020830152604082019050919050565b6000615d796000836164bd565b9150600082019050919050565b6000615d93601d836164c8565b91507f4572726f723a2043616e6e6f74207769746864726177207265776172640000006000830152602082019050919050565b6000615dd3601f836164c8565b91507f436f6e7472616374206973206c6f636b656420756e74696c20372064617973006000830152602082019050919050565b6000615e13601f836164c8565b91507f5265656e7472616e637947756172643a207265656e7472616e742063616c6c006000830152602082019050919050565b6000615e53602c836164c8565b91507f4578636c75646564206164647265737365732063616e6e6f742063616c6c207460008301527f6869732066756e6374696f6e00000000000000000000000000000000000000006020830152604082019050919050565b6000615eb96022836164c8565b91507f42455032303a20617070726f766520746f20746865207a65726f20616464726560008301527f73730000000000000000000000000000000000000000000000000000000000006020830152604082019050919050565b6000615f1f6023836164c8565b91507f596f7520646f6e27742068617665207065726d697373696f6e20746f20756e6c60008301527f6f636b00000000000000000000000000000000000000000000000000000000006020830152604082019050919050565b615f8181616529565b82525050565b615f9081616529565b82525050565b615f9f81616533565b82525050565b6000615fb082615d6c565b9150819050919050565b6000602082019050615fcf6000830184615755565b92915050565b6000602082019050615fea6000830184615746565b92915050565b60006060820190506160056000830186615737565b6160126020830185615f78565b61601f6040830184615f78565b949350505050565b600060808201905061603c6000830187615764565b6160496020830186615764565b6160566040830185615f87565b6160636060830184615f87565b95945050505050565b60006040820190506160816000830185615764565b61608e6020830184615f87565b9392505050565b60006020820190506160aa6000830184615773565b92915050565b60006020820190506160c56000830184615782565b92915050565b600060208201905081810360008301526160e58184615791565b905092915050565b60006020820190508181036000830152616106816157ca565b9050919050565b6000602082019050818103600083015261612681615830565b9050919050565b6000602082019050818103600083015261614681615896565b9050919050565b60006020820190508181036000830152616166816158fc565b9050919050565b6000602082019050818103600083015261618681615962565b9050919050565b600060208201905081810360008301526161a6816159c8565b9050919050565b600060208201905081810360008301526161c681615a2e565b9050919050565b600060208201905081810360008301526161e681615a6e565b9050919050565b6000602082019050818103600083015261620681615aae565b9050919050565b6000602082019050818103600083015261622681615aee565b9050919050565b6000602082019050818103600083015261624681615b54565b9050919050565b6000602082019050818103600083015261626681615b94565b9050919050565b6000602082019050818103600083015261628681615bfa565b9050919050565b600060208201905081810360008301526162a681615c60565b9050919050565b600060208201905081810360008301526162c681615ca0565b9050919050565b600060208201905081810360008301526162e681615d06565b9050919050565b6000602082019050818103600083015261630681615d86565b9050919050565b6000602082019050818103600083015261632681615dc6565b9050919050565b6000602082019050818103600083015261634681615e06565b9050919050565b6000602082019050818103600083015261636681615e46565b9050919050565b6000602082019050818103600083015261638681615eac565b9050919050565b600060208201905081810360008301526163a681615f12565b9050919050565b60006020820190506163c26000830184615f78565b92915050565b60006060820190506163dd6000830186615f78565b6163ea6020830185615f78565b6163f76040830184615f78565b949350505050565b60006080820190506164146000830187615f87565b6164216020830186615f87565b61642e6040830185615f87565b61643b6060830184615f87565b95945050505050565b600060a0820190506164596000830188615f87565b6164666020830187615f87565b6164736040830186615f87565b6164806060830185615f87565b61648d6080830184615764565b9695505050505050565b60006020820190506164ac6000830184615f96565b92915050565b600081519050919050565b600081905092915050565b600082825260208201905092915050565b60006164e482616509565b9050919050565b60006164f682616509565b9050919050565b60008115159050919050565b600073ffffffffffffffffffffffffffffffffffffffff82169050919050565b6000819050919050565b600060ff82169050919050565b600061654b82616576565b9050919050565b600061655d82616564565b9050919050565b600061656f82616509565b9050919050565b600061658182616588565b9050919050565b600061659382616509565b9050919050565b60005b838110156165b857808201518184015260208101905061659d565b838111156165c7576000848401525b50505050565b6000601f19601f8301169050919050565b6165e7816164d9565b81146165f257600080fd5b50565b6165fe816164eb565b811461660957600080fd5b50565b616615816164fd565b811461662057600080fd5b50565b61662c81616529565b811461663757600080fd5b5056fe42455032303a207472616e7366657220616d6f756e74206578636565647320616c6c6f77616e636542455032303a2064656372656173656420616c6c6f77616e63652062656c6f77207a65726fa264697066735822122010044522bb2951ce193e74c2a9c0e89af956bb38ce2219fc7b75649870cabcf964736f6c634300060c0033",
  "immutableReferences": {
    "920": [
      {
        "length": 32,
        "start": 10405
      },
      {
        "length": 32,
        "start": 11815
      },
      {
        "length": 32,
        "start": 16726
      },
      {
        "length": 32,
        "start": 16910
      }
    ],
    "922": [
      {
        "length": 32,
        "start": 4179
      },
      {
        "length": 32,
        "start": 11453
      },
      {
        "length": 32,
        "start": 16325
      },
      {
        "length": 32,
        "start": 16491
      }
    ]
  },
  "source": "//SPDX-License-Identifier: Unlicensed\n\npragma solidity >=0.6.8;\nimport './Utils.sol';\n\ninterface IBEP20 {\n\n    function totalSupply() external view returns (uint256);\n\n    /**\n     * @dev Returns the amount of tokens owned by `account`.\n     */\n    function balanceOf(address account) external view returns (uint256);\n\n    /**\n     * @dev Moves `amount` tokens from the caller's account to `recipient`.\n     *\n     * Returns a boolean value indicating whether the operation succeeded.\n     *\n     * Emits a {Transfer} event.\n     */\n    function transfer(address recipient, uint256 amount) external returns (bool);\n\n    /**\n     * @dev Returns the remaining number of tokens that `spender` will be\n     * allowed to spend on behalf of `owner` through {transferFrom}. This is\n     * zero by default.\n     *\n     * This value changes when {approve} or {transferFrom} are called.\n     */\n    function allowance(address owner, address spender) external view returns (uint256);\n\n    /**\n     * @dev Sets `amount` as the allowance of `spender` over the caller's tokens.\n     *\n     * Returns a boolean value indicating whether the operation succeeded.\n     *\n     * IMPORTANT: Beware that changing an allowance with this method brings the risk\n     * that someone may use both the old and the new allowance by unfortunate\n     * transaction ordering. One possible solution to mitigate this race\n     * condition is to first reduce the spender's allowance to 0 and set the\n     * desired value afterwards:\n     * https://github.com/ethereum/EIPs/issues/20#issuecomment-263524729\n     *\n     * Emits an {Approval} event.\n     */\n    function approve(address spender, uint256 amount) external returns (bool);\n\n    /**\n     * @dev Moves `amount` tokens from `sender` to `recipient` using the\n     * allowance mechanism. `amount` is then deducted from the caller's\n     * allowance.\n     *\n     * Returns a boolean value indicating whether the operation succeeded.\n     *\n     * Emits a {Transfer} event.\n     */\n    function transferFrom(address sender, address recipient, uint256 amount) external returns (bool);\n\n    /**\n     * @dev Emitted when `value` tokens are moved from one account (`from`) to\n     * another (`to`).\n     *\n     * Note that `value` may be zero.\n     */\n    event Transfer(address indexed from, address indexed to, uint256 value);\n\n    /**\n     * @dev Emitted when the allowance of a `spender` for an `owner` is set by\n     * a call to {approve}. `value` is the new allowance.\n     */\n    event Approval(address indexed owner, address indexed spender, uint256 value);\n}\n\n\n\n/**\n * @dev Wrappers over Solidity's arithmetic operations with added overflow\n * checks.\n *\n * Arithmetic operations in Solidity wrap on overflow. This can easily result\n * in bugs, because programmers usually assume that an overflow raises an\n * error, which is the standard behavior in high level programming languages.\n * `SafeMath` restores this intuition by reverting the transaction when an\n * operation overflows.\n *\n * Using this library instead of the unchecked operations eliminates an entire\n * class of bugs, so it's recommended to use it always.\n */\n\nabstract contract Context {\n    function _msgSender() internal view virtual returns (address) {\n        return msg.sender;\n    }\n\n    function _msgData() internal view virtual returns (bytes memory) {\n        this; // silence state mutability warning without generating bytecode - see https://github.com/ethereum/solidity/issues/2691\n        return msg.data;\n    }\n}\n\n\n/**\n * @dev Collection of functions related to the address type\n */\nlibrary Address {\n    /**\n     * @dev Returns true if `account` is a contract.\n     *\n     * [IMPORTANT]\n     * ====\n     * It is unsafe to assume that an address for which this function returns\n     * false is an externally-owned account (EOA) and not a contract.\n     *\n     * Among others, `isContract` will return false for the following\n     * types of addresses:\n     *\n     *  - an externally-owned account\n     *  - a contract in construction\n     *  - an address where a contract will be created\n     *  - an address where a contract lived, but was destroyed\n     * ====\n     */\n    function isContract(address account) internal view returns (bool) {\n        // According to EIP-1052, 0x0 is the value returned for not-yet created accounts\n        // and 0xc5d2460186f7233c927e7db2dcc703c0e500b653ca82273b7bfad8045d85a470 is returned\n        // for accounts without code, i.e. `keccak256('')`\n        bytes32 codehash;\n        bytes32 accountHash = 0xc5d2460186f7233c927e7db2dcc703c0e500b653ca82273b7bfad8045d85a470;\n        // solhint-disable-next-line no-inline-assembly\n        assembly { codehash := extcodehash(account) }\n        return (codehash != accountHash && codehash != 0x0);\n    }\n\n    /**\n     * @dev Replacement for Solidity's `transfer`: sends `amount` wei to\n     * `recipient`, forwarding all available gas and reverting on errors.\n     *\n     * https://eips.ethereum.org/EIPS/eip-1884[EIP1884] increases the gas cost\n     * of certain opcodes, possibly making contracts go over the 2300 gas limit\n     * imposed by `transfer`, making them unable to receive funds via\n     * `transfer`. {sendValue} removes this limitation.\n     *\n     * https://diligence.consensys.net/posts/2019/09/stop-using-soliditys-transfer-now/[Learn more].\n     *\n     * IMPORTANT: because control is transferred to `recipient`, care must be\n     * taken to not create reentrancy vulnerabilities. Consider using\n     * {ReentrancyGuard} or the\n     * https://solidity.readthedocs.io/en/v0.5.11/security-considerations.html#use-the-checks-effects-interactions-pattern[checks-effects-interactions pattern].\n     */\n    function sendValue(address payable recipient, uint256 amount) internal {\n        \n\n        // solhint-disable-next-line avoid-low-level-calls, avoid-call-value\n        (bool success, ) = recipient.call{ value: amount }(\"\");\n        require(success, \"Address: unable to send value, recipient may have reverted\");\n    }\n\n    /**\n     * @dev Performs a Solidity function call using a low level `call`. A\n     * plain`call` is an unsafe replacement for a function call: use this\n     * function instead.\n     *\n     * If `target` reverts with a revert reason, it is bubbled up by this\n     * function (like regular Solidity function calls).\n     *\n     * Returns the raw returned data. To convert to the expected return value,\n     * use https://solidity.readthedocs.io/en/latest/units-and-global-variables.html?highlight=abi.decode#abi-encoding-and-decoding-functions[`abi.decode`].\n     *\n     * Requirements:\n     *\n     * - `target` must be a contract.\n     * - calling `target` with `data` must not revert.\n     *\n     * _Available since v3.1._\n     */\n    function functionCall(address target, bytes memory data) internal returns (bytes memory) {\n        return functionCall(target, data, \"Address: low-level call failed\");\n    }\n\n    /**\n     * @dev Same as {xref-Address-functionCall-address-bytes-}[`functionCall`], but with\n     * `errorMessage` as a fallback revert reason when `target` reverts.\n     *\n     * _Available since v3.1._\n     */\n    function functionCall(address target, bytes memory data, string memory errorMessage) internal returns (bytes memory) {\n        return _functionCallWithValue(target, data, 0, errorMessage);\n    }\n\n    /**\n     * @dev Same as {xref-Address-functionCall-address-bytes-}[`functionCall`],\n     * but also transferring `value` wei to `target`.\n     *\n     * Requirements:\n     *\n     * - the calling contract must have an BNB balance of at least `value`.\n     * - the called Solidity function must be `payable`.\n     *\n     * _Available since v3.1._\n     */\n    function functionCallWithValue(address target, bytes memory data, uint256 value) internal returns (bytes memory) {\n        return functionCallWithValue(target, data, value, \"Address: low-level call with value failed\");\n    }\n\n    /**\n     * @dev Same as {xref-Address-functionCallWithValue-address-bytes-uint256-}[`functionCallWithValue`], but\n     * with `errorMessage` as a fallback revert reason when `target` reverts.\n     *\n     * _Available since v3.1._\n     */\n    function functionCallWithValue(address target, bytes memory data, uint256 value, string memory errorMessage) internal returns (bytes memory) {\n        require(address(this).balance >= value, \"Address: insufficient balance for call\");\n        return _functionCallWithValue(target, data, value, errorMessage);\n    }\n\n    function _functionCallWithValue(address target, bytes memory data, uint256 weiValue, string memory errorMessage) private returns (bytes memory) {\n        require(isContract(target), \"Address: call to non-contract\");\n\n        // solhint-disable-next-line avoid-low-level-calls\n        (bool success, bytes memory returndata) = target.call{ value: weiValue }(data);\n        if (success) {\n            return returndata;\n        } else {\n            // Look for revert reason and bubble it up if present\n            if (returndata.length > 0) {\n                // The easiest way to bubble the revert reason is using memory via assembly\n\n                // solhint-disable-next-line no-inline-assembly\n                assembly {\n                    let returndata_size := mload(returndata)\n                    revert(add(32, returndata), returndata_size)\n                }\n            } else {\n                revert(errorMessage);\n            }\n        }\n    }\n}\n\n/**\n * @dev Contract module which provides a basic access control mechanism, where\n * there is an account (an owner) that can be granted exclusive access to\n * specific functions.\n *\n * By default, the owner account will be the one that deploys the contract. This\n * can later be changed with {transferOwnership}.\n *\n * This module is used through inheritance. It will make available the modifier\n * `onlyOwner`, which can be applied to your functions to restrict their use to\n * the owner.\n */\ncontract Ownable is Context {\n    address private _owner;\n    address private _previousOwner;\n    uint256 private _lockTime;\n\n    event OwnershipTransferred(address indexed previousOwner, address indexed newOwner);\n\n    /**\n     * @dev Initializes the contract setting the deployer as the initial owner.\n     */\n    constructor () public {\n        address msgSender = _msgSender();\n        _owner = msgSender;\n        emit OwnershipTransferred(address(0), msgSender);\n    }\n\n    /**\n     * @dev Returns the address of the current owner.\n     */\n    function owner() public view returns (address) {\n        return _owner;\n    }\n\n    /**\n     * @dev Throws if called by any account other than the owner.\n     */\n    modifier onlyOwner() {\n        require(_owner == _msgSender(), \"Ownable: caller is not the owner\");\n        _;\n    }\n\n    /**\n    * @dev Leaves the contract without owner. It will not be possible to call\n    * `onlyOwner` functions anymore. Can only be called by the current owner.\n    *\n    * NOTE: Renouncing ownership will leave the contract without an owner,\n    * thereby removing any functionality that is only available to the owner.\n    */\n    function renounceOwnership() public virtual onlyOwner {\n        emit OwnershipTransferred(_owner, address(0));\n        _owner = address(0);\n    }\n\n    /**\n     * @dev Transfers ownership of the contract to a new account (`newOwner`).\n     * Can only be called by the current owner.\n     */\n    function transferOwnership(address newOwner) public virtual onlyOwner {\n        require(newOwner != address(0), \"Ownable: new owner is the zero address\");\n        emit OwnershipTransferred(_owner, newOwner);\n        _owner = newOwner;\n    }\n\n    function geUnlockTime() public view returns (uint256) {\n        return _lockTime;\n    }\n\n    //Locks the contract for owner for the amount of time provided\n    function lock(uint256 time) public virtual onlyOwner {\n        _previousOwner = _owner;\n        _owner = address(0);\n        _lockTime = block.timestamp + time;\n        emit OwnershipTransferred(_owner, address(0));\n    }\n\n    //Unlocks the contract for owner when _lockTime is exceeds\n    function unlock() public virtual {\n        require(_previousOwner == msg.sender, \"You don't have permission to unlock\");\n        require(block.timestamp > _lockTime , \"Contract is locked until 7 days\");\n        emit OwnershipTransferred(_owner, _previousOwner);\n        _owner = _previousOwner;\n    }\n}\n\ninterface IPancakeFactory {\n    event PairCreated(address indexed token0, address indexed token1, address pair, uint);\n\n    function feeTo() external view returns (address);\n    function feeToSetter() external view returns (address);\n\n    function getPair(address tokenA, address tokenB) external view returns (address pair);\n    function allPairs(uint) external view returns (address pair);\n    function allPairsLength() external view returns (uint);\n\n    function createPair(address tokenA, address tokenB) external returns (address pair);\n\n    function setFeeTo(address) external;\n    function setFeeToSetter(address) external;\n}\n\ninterface IPancakePair {\n    event Approval(address indexed owner, address indexed spender, uint value);\n    event Transfer(address indexed from, address indexed to, uint value);\n\n    function name() external pure returns (string memory);\n    function symbol() external pure returns (string memory);\n    function decimals() external pure returns (uint8);\n    function totalSupply() external view returns (uint);\n    function balanceOf(address owner) external view returns (uint);\n    function allowance(address owner, address spender) external view returns (uint);\n\n    function approve(address spender, uint value) external returns (bool);\n    function transfer(address to, uint value) external returns (bool);\n    function transferFrom(address from, address to, uint value) external returns (bool);\n\n    function DOMAIN_SEPARATOR() external view returns (bytes32);\n    function PERMIT_TYPEHASH() external pure returns (bytes32);\n    function nonces(address owner) external view returns (uint);\n\n    function permit(address owner, address spender, uint value, uint deadline, uint8 v, bytes32 r, bytes32 s) external;\n\n    event Mint(address indexed sender, uint amount0, uint amount1);\n    event Burn(address indexed sender, uint amount0, uint amount1, address indexed to);\n    event Swap(\n        address indexed sender,\n        uint amount0In,\n        uint amount1In,\n        uint amount0Out,\n        uint amount1Out,\n        address indexed to\n    );\n    event Sync(uint112 reserve0, uint112 reserve1);\n\n    function MINIMUM_LIQUIDITY() external pure returns (uint);\n    function factory() external view returns (address);\n    function token0() external view returns (address);\n    function token1() external view returns (address);\n    function getReserves() external view returns (uint112 reserve0, uint112 reserve1, uint32 blockTimestampLast);\n    function price0CumulativeLast() external view returns (uint);\n    function price1CumulativeLast() external view returns (uint);\n    function kLast() external view returns (uint);\n\n    function mint(address to) external returns (uint liquidity);\n    function burn(address to) external returns (uint amount0, uint amount1);\n    function swap(uint amount0Out, uint amount1Out, address to, bytes calldata data) external;\n    function skim(address to) external;\n    function sync() external;\n\n    function initialize(address, address) external;\n}\n\n// File: contracts/protocols/bep/ReentrancyGuard.sol\n\npragma solidity >=0.6.8;\n\n/**\n * @dev Contract module that helps prevent reentrant calls to a function.\n *\n * Inheriting from `ReentrancyGuard` will make the {nonReentrant} modifier\n * available, which can be applied to functions to make sure there are no nested\n * (reentrant) calls to them.\n *\n * Note that because there is a single `nonReentrant` guard, functions marked as\n * `nonReentrant` may not call one another. This can be worked around by making\n * those functions `private`, and then adding `external` `nonReentrant` entry\n * points to them.\n *\n * TIP: If you would like to learn more about reentrancy and alternative ways\n * to protect against it, check out our blog post\n * https://blog.openzeppelin.com/reentrancy-after-istanbul/[Reentrancy After Istanbul].\n */\nabstract contract ReentrancyGuard {\n    // Booleans are more expensive than uint256 or any type that takes up a full\n    // word because each write operation emits an extra SLOAD to first read the\n    // slot's contents, replace the bits taken up by the boolean, and then write\n    // back. This is the compiler's defense against contract upgrades and\n    // pointer aliasing, and it cannot be disabled.\n\n    // The values being non-zero value makes deployment a bit more expensive,\n    // but in exchange the refund on every call to nonReentrant will be lower in\n    // amount. Since refunds are capped to a percentage of the total\n    // transaction's gas, it is best to keep them low in cases like this one, to\n    // increase the likelihood of the full refund coming into effect.\n    uint256 private constant _NOT_ENTERED = 1;\n    uint256 private constant _ENTERED = 2;\n\n    uint256 private _status;\n\n    constructor () public {\n        _status = _NOT_ENTERED;\n    }\n\n    /**\n     * @dev Prevents a contract from calling itself, directly or indirectly.\n     * Calling a `nonReentrant` function from another `nonReentrant`\n     * function is not supported. It is possible to prevent this from happening\n     * by making the `nonReentrant` function external, and make it call a\n     * `private` function that does the actual work.\n     */\n    modifier nonReentrant() {\n        // On the first call to nonReentrant, _notEntered will be true\n        require(_status != _ENTERED, \"ReentrancyGuard: reentrant call\");\n\n        // Any calls to nonReentrant after this point will fail\n        _status = _ENTERED;\n\n        _;\n\n        // By storing the original value once again, a refund is triggered (see\n        // https://eips.ethereum.org/EIPS/eip-2200)\n        _status = _NOT_ENTERED;\n    }\n\n    modifier isHuman() {\n        require(tx.origin == msg.sender, \"sorry humans only\");\n        _;\n    }\n}\n\n// File: contracts/protocols/LM.sol\n\npragma solidity >=0.6.8;\npragma experimental ABIEncoderV2;\n\n\n\ncontract PoorWifeToken is Context, IBEP20, Ownable, ReentrancyGuard {\n    using SafeMath for uint256;\n    using Address for address;\n    \n    address payable public charityAddress = payable(0xb6266d43F3E319e884E31075a36fDE8ceAeEf1C8);\n    address payable public routerAddress = payable(0x10ED43C718714eb63d5aA57B78B54704E256024E);\n\n    mapping(address => uint256) private _rOwned;\n    mapping(address => uint256) private _tOwned;\n    mapping(address => mapping(address => uint256)) private _allowances;\n\n    mapping(address => bool) private _isExcludedFromFee;\n    mapping(address => bool) private _isExcluded;\n    mapping(address => bool) private _isExcludedFromMaxTx;\n\n    address[] private _excluded;\n\n    uint256 private constant MAX = ~uint256(0);\n    uint256 private _tTotal = 1000000000 * 10 ** 6 * 10 ** 9;\n    uint256 private _rTotal = (MAX - (MAX % _tTotal));\n    uint256 private _tFeeTotal;\n\n    string private _name = \"PoorWife Token\";\n    string private _symbol = \"PWF\";\n    uint8 private _decimals = 9;\n\n    IPancakeRouter02 public immutable pancakeRouter;\n    address public immutable pancakePair;\n\n    bool inSwapAndLiquify = false;\n\n    event SwapAndLiquifyEnabledUpdated(bool enabled);\n    event SwapAndLiquify(\n        uint256 tokensSwapped,\n        uint256 ethReceived,\n        uint256 tokensIntoLiqudity\n    );\n\n    event ClaimBNBSuccessfully(\n        address recipient,\n        uint256 ethReceived,\n        uint256 nextAvailableClaimDate\n    );\n\n    modifier lockTheSwap {\n        inSwapAndLiquify = true;\n        _;\n        inSwapAndLiquify = false;\n    }\n\n    constructor () public {\n        _rOwned[_msgSender()] = _rTotal;\n\n        IPancakeRouter02 _pancakeRouter = IPancakeRouter02(routerAddress);\n        // Create a pancake pair for this new token\n        pancakePair = IPancakeFactory(_pancakeRouter.factory())\n        .createPair(address(this), _pancakeRouter.WETH());\n\n        // set the rest of the contract variables\n        pancakeRouter = _pancakeRouter;\n\n        //exclude owner and this contract from fee\n        _isExcludedFromFee[owner()] = true;\n        _isExcludedFromFee[address(this)] = true;\n        \n       \n\n        // exclude from max tx\n        _isExcludedFromMaxTx[owner()] = true;\n        _isExcludedFromMaxTx[address(this)] = true;\n        _isExcludedFromMaxTx[address(0x000000000000000000000000000000000000dEaD)] = true;\n        _isExcludedFromMaxTx[address(0)] = true;\n       \n        emit Transfer(address(0), _msgSender(), _tTotal);\n    }\n\n    function name() public view returns (string memory) {\n        return _name;\n    }\n\n    function symbol() public view returns (string memory) {\n        return _symbol;\n    }\n\n    function decimals() public view returns (uint8) {\n        return _decimals;\n    }\n\n    function totalSupply() public view override returns (uint256) {\n        return _tTotal;\n    }\n\n    function balanceOf(address account) public view override returns (uint256) {\n        if (_isExcluded[account]) return _tOwned[account];\n        return tokenFromReflection(_rOwned[account]);\n    }\n\n    function transfer(address recipient, uint256 amount) public override returns (bool) {\n        _transfer(_msgSender(), recipient, amount, 0);\n        return true;\n    }\n\n    function allowance(address owner, address spender) public view override returns (uint256) {\n        return _allowances[owner][spender];\n    }\n\n    function approve(address spender, uint256 amount) public override returns (bool) {\n        _approve(_msgSender(), spender, amount);\n        return true;\n    }\n\n    function transferFrom(address sender, address recipient, uint256 amount) public override returns (bool) {\n        _transfer(sender, recipient, amount, 0);\n        _approve(sender, _msgSender(), _allowances[sender][_msgSender()].sub(amount, \"BEP20: transfer amount exceeds allowance\"));\n        return true;\n    }\n\n    function increaseAllowance(address spender, uint256 addedValue) public virtual returns (bool) {\n        _approve(_msgSender(), spender, _allowances[_msgSender()][spender].add(addedValue));\n        return true;\n    }\n\n    function decreaseAllowance(address spender, uint256 subtractedValue) public virtual returns (bool) {\n        _approve(_msgSender(), spender, _allowances[_msgSender()][spender].sub(subtractedValue, \"BEP20: decreased allowance below zero\"));\n        return true;\n    }\n\n    function isExcludedFromReward(address account) public view returns (bool) {\n        return _isExcluded[account];\n    }\n\n    function totalFees() public view returns (uint256) {\n        return _tFeeTotal;\n    }\n\n    function deliver(uint256 tAmount) public {\n        address sender = _msgSender();\n        require(!_isExcluded[sender], \"Excluded addresses cannot call this function\");\n        (uint256 rAmount,,,,,) = _getValues(tAmount);\n        _rOwned[sender] = _rOwned[sender].sub(rAmount);\n        _rTotal = _rTotal.sub(rAmount);\n        _tFeeTotal = _tFeeTotal.add(tAmount);\n    }\n\n    function reflectionFromToken(uint256 tAmount, bool deductTransferFee) public view returns (uint256) {\n        require(tAmount <= _tTotal, \"Amount must be less than supply\");\n        if (!deductTransferFee) {\n            (uint256 rAmount,,,,,) = _getValues(tAmount);\n            return rAmount;\n        } else {\n            (,uint256 rTransferAmount,,,,) = _getValues(tAmount);\n            return rTransferAmount;\n        }\n    }\n\n    function tokenFromReflection(uint256 rAmount) public view returns (uint256) {\n        require(rAmount <= _rTotal, \"Amount must be less than total reflections\");\n        uint256 currentRate = _getRate();\n        return rAmount.div(currentRate);\n    }\n\n    function excludeFromReward(address account) public onlyOwner() {\n        // require(account != 0x7a250d5630B4cF539739dF2C5dAcb4c659F2488D, 'We can not exclude Pancake router.');\n        require(!_isExcluded[account], \"Account is already excluded\");\n        if (_rOwned[account] > 0) {\n            _tOwned[account] = tokenFromReflection(_rOwned[account]);\n        }\n        _isExcluded[account] = true;\n        _excluded.push(account);\n    }\n\n    function includeInReward(address account) external onlyOwner() {\n        require(_isExcluded[account], \"Account is already excluded\");\n        for (uint256 i = 0; i < _excluded.length; i++) {\n            if (_excluded[i] == account) {\n                _excluded[i] = _excluded[_excluded.length - 1];\n                _tOwned[account] = 0;\n                _isExcluded[account] = false;\n                _excluded.pop();\n                break;\n            }\n        }\n    }\n\n      function _transferBothExcluded(address sender, address recipient, uint256 tAmount) private {\n        (uint256 rAmount, uint256 rTransferAmount, uint256 rFee, uint256 tTransferAmount, uint256 tFee, uint256 tLiquidity) = _getValues(tAmount);\n        _tOwned[sender] = _tOwned[sender].sub(tAmount);\n        _rOwned[sender] = _rOwned[sender].sub(rAmount);\n        _tOwned[recipient] = _tOwned[recipient].add(tTransferAmount);\n        _rOwned[recipient] = _rOwned[recipient].add(rTransferAmount);\n        _takeLiquidity(tLiquidity);\n        _reflectFee(rFee, tFee);\n        emit Transfer(sender, recipient, tTransferAmount);\n    }\n\n    function excludeFromFee(address account) public onlyOwner {\n        _isExcludedFromFee[account] = true;\n    }\n\n    function includeInFee(address account) public onlyOwner {\n        _isExcludedFromFee[account] = false;\n    }\n\n    function setTaxFeePercent(uint256 taxFee) external onlyOwner() {\n        _taxFee = taxFee;\n    }\n\n    function setLiquidityFeePercent(uint256 liquidityFee) external onlyOwner() {\n        _liquidityFee = liquidityFee;\n    }\n\n    function setSwapAndLiquifyEnabled(bool _enabled) public onlyOwner {\n        swapAndLiquifyEnabled = _enabled;\n        emit SwapAndLiquifyEnabledUpdated(_enabled);\n    }\n\n    //to receive BNB from pancakeRouter when swapping\n    receive() external payable {}\n\n    function _reflectFee(uint256 rFee, uint256 tFee) private {\n        _rTotal = _rTotal.sub(rFee);\n        _tFeeTotal = _tFeeTotal.add(tFee);\n    }\n\n   \n  function _getValues(uint256 tAmount) private view returns (uint256, uint256, uint256, uint256, uint256, uint256) {\n        (uint256 tTransferAmount, uint256 tFee, uint256 tLiquidity) = _getTValues(tAmount);\n        (uint256 rAmount, uint256 rTransferAmount, uint256 rFee) = _getRValues(tAmount, tFee, tLiquidity, _getRate());\n        return (rAmount, rTransferAmount, rFee, tTransferAmount, tFee, tLiquidity);\n    }\n\n    function _getTValues(uint256 tAmount) private view returns (uint256, uint256, uint256) {\n        uint256 tFee = calculateTaxFee(tAmount);\n        uint256 tLiquidity = calculateLiquidityFee(tAmount);\n        uint256 tTransferAmount = tAmount.sub(tFee).sub(tLiquidity);\n        return (tTransferAmount, tFee, tLiquidity);\n    }\n\n    function _getRValues(uint256 tAmount, uint256 tFee, uint256 tLiquidity, uint256 currentRate) private pure returns (uint256, uint256, uint256) {\n        uint256 rAmount = tAmount.mul(currentRate);\n        uint256 rFee = tFee.mul(currentRate);\n        uint256 rLiquidity = tLiquidity.mul(currentRate);\n        uint256 rTransferAmount = rAmount.sub(rFee).sub(rLiquidity);\n        return (rAmount, rTransferAmount, rFee);\n    }\n\n\n    function _getRate() private view returns (uint256) {\n        (uint256 rSupply, uint256 tSupply) = _getCurrentSupply();\n        return rSupply.div(tSupply);\n    }\n\n    function _getCurrentSupply() private view returns (uint256, uint256) {\n        uint256 rSupply = _rTotal;\n        uint256 tSupply = _tTotal;\n        for (uint256 i = 0; i < _excluded.length; i++) {\n            if (_rOwned[_excluded[i]] > rSupply || _tOwned[_excluded[i]] > tSupply) return (_rTotal, _tTotal);\n            rSupply = rSupply.sub(_rOwned[_excluded[i]]);\n            tSupply = tSupply.sub(_tOwned[_excluded[i]]);\n        }\n        if (rSupply < _rTotal.div(_tTotal)) return (_rTotal, _tTotal);\n        return (rSupply, tSupply);\n    }\n\n    function _takeLiquidity(uint256 tLiquidity) private {\n        uint256 currentRate = _getRate();\n        uint256 rLiquidity = tLiquidity.mul(currentRate);\n        _rOwned[address(this)] = _rOwned[address(this)].add(rLiquidity);\n        if (_isExcluded[address(this)])\n            _tOwned[address(this)] = _tOwned[address(this)].add(tLiquidity);\n    }\n\n    function calculateTaxFee(uint256 _amount) private view returns (uint256) {\n        return _amount.mul(_taxFee).div(\n            10 ** 2\n        );\n    }\n\n    function calculateLiquidityFee(uint256 _amount) private view returns (uint256) {\n        return _amount.mul(_liquidityFee).div(\n            10 ** 2\n        );\n    }\n    \n    function removeAllFee() private {\n        if (_taxFee == 0 && _liquidityFee == 0) return;\n\n        _previousTaxFee = _taxFee;\n        _previousLiquidityFee = _liquidityFee;\n      \n        _taxFee = 0;\n        _liquidityFee = 0;\n        \n    }\n\n    function restoreAllFee() private {\n        _taxFee = _previousTaxFee;\n        _liquidityFee = _previousLiquidityFee;\n       \n    }\n\n    function isExcludedFromFee(address account) public view returns (bool) {\n        return _isExcludedFromFee[account];\n    }\n\n    function _approve(address owner, address spender, uint256 amount) private {\n        require(owner != address(0), \"BEP20: approve from the zero address\");\n        require(spender != address(0), \"BEP20: approve to the zero address\");\n\n        _allowances[owner][spender] = amount;\n        emit Approval(owner, spender, amount);\n    }\n\n    function _transfer(\n        address from,\n        address to,\n        uint256 amount,\n        uint256 value\n    ) private {\n        require(from != address(0), \"BEP20: transfer from the zero address\");\n        require(to != address(0), \"BEP20: transfer to the zero address\");\n        require(amount > 0, \"Transfer amount must be greater than zero\");\n\n        ensureMaxTxAmount(from, to, amount, value);\n\n        // swap and liquify\n        swapAndLiquify(from, to);\n\n        //indicates if fee should be deducted from transfer\n        bool takeFee = true;\n\n        //if any account belongs to _isExcludedFromFee account then remove the fee\n        if (_isExcludedFromFee[from] || _isExcludedFromFee[to] || reflectionFeesdiabled) {\n            takeFee = false;\n        }\n\n        //transfer amount, it will take tax, burn, liquidity fee\n        _tokenTransfer(from, to, amount, takeFee);\n    }\n\n    //this method is responsible for taking all fee, if takeFee is true\n    function _tokenTransfer(address sender, address recipient, uint256 amount, bool takeFee) private {\n        if (!takeFee)\n            removeAllFee();\n\n        // top up claim cycle\n        topUpClaimCycleAfterTransfer(recipient, amount);\n\n        if (_isExcluded[sender] && !_isExcluded[recipient]) {\n            _transferFromExcluded(sender, recipient, amount);\n        } else if (!_isExcluded[sender] && _isExcluded[recipient]) {\n            _transferToExcluded(sender, recipient, amount);\n        } else if (!_isExcluded[sender] && !_isExcluded[recipient]) {\n            _transferStandard(sender, recipient, amount);\n        } else if (_isExcluded[sender] && _isExcluded[recipient]) {\n            _transferBothExcluded(sender, recipient, amount);\n        } else {\n            _transferStandard(sender, recipient, amount);\n        }\n\n        if (!takeFee)\n            restoreAllFee();\n    }\n\n     function _transferStandard(address sender, address recipient, uint256 tAmount) private {\n        (uint256 rAmount, uint256 rTransferAmount, uint256 rFee, uint256 tTransferAmount, uint256 tFee, uint256 tLiquidity) = _getValues(tAmount);\n        _rOwned[sender] = _rOwned[sender].sub(rAmount);\n        _rOwned[recipient] = _rOwned[recipient].add(rTransferAmount);\n        _takeLiquidity(tLiquidity);\n        _reflectFee(rFee, tFee);\n        emit Transfer(sender, recipient, tTransferAmount);\n    }\n\n    function _transferToExcluded(address sender, address recipient, uint256 tAmount) private {\n        (uint256 rAmount, uint256 rTransferAmount, uint256 rFee, uint256 tTransferAmount, uint256 tFee, uint256 tLiquidity) = _getValues(tAmount);\n        _rOwned[sender] = _rOwned[sender].sub(rAmount);\n        _tOwned[recipient] = _tOwned[recipient].add(tTransferAmount);\n        _rOwned[recipient] = _rOwned[recipient].add(rTransferAmount);\n        _takeLiquidity(tLiquidity);\n        _reflectFee(rFee, tFee);\n        emit Transfer(sender, recipient, tTransferAmount);\n    }\n\n    function _transferFromExcluded(address sender, address recipient, uint256 tAmount) private {\n        (uint256 rAmount, uint256 rTransferAmount, uint256 rFee, uint256 tTransferAmount, uint256 tFee, uint256 tLiquidity) = _getValues(tAmount);\n        _tOwned[sender] = _tOwned[sender].sub(tAmount);\n        _rOwned[sender] = _rOwned[sender].sub(rAmount);\n        _rOwned[recipient] = _rOwned[recipient].add(rTransferAmount);\n        _takeLiquidity(tLiquidity);\n        _reflectFee(rFee, tFee);\n        emit Transfer(sender, recipient, tTransferAmount);\n    }\n\n    // Innovation for protocol by HODL Team\n    uint256 public rewardCycleBlock = 1 days;\n    uint256 public easyRewardCycleBlock = 1 days;\n    uint256 public threshHoldTopUpRate = 25; // 25 percent\n    uint256 public _maxTxAmount = _tTotal; // should be 0.05% percent per transaction, will be set again at activateContract() function\n    uint256 public disruptiveCoverageFee = 1 ether; // antiwhale\n    mapping(address => uint256) public nextAvailableClaimDate;\n    bool public swapAndLiquifyEnabled = false; // should be true\n    uint256 public disruptiveTransferEnabledFrom = 0;\n    uint256 public disableEasyRewardFrom = 0;\n    \n    bool public reflectionFeesdiabled = false;\n   \n    uint256 public _taxFee = 2;\n    uint256 private _previousTaxFee = _taxFee;\n    \n    uint256 public _liquidityFee = 8; // 4% will be added pool, 4% will be converted to BNB\n    uint256 private _previousLiquidityFee = _liquidityFee;\n    uint256 public rewardThreshold = 1 ether;\n\n    uint256 minTokenNumberToSell = _tTotal.mul(1).div(10000).div(10); // 0.001% max tx amount will trigger swap and add liquidity\n\n    function setMaxTxPercent(uint256 maxTxPercent) public onlyOwner() {\n        _maxTxAmount = _tTotal.mul(maxTxPercent).div(10000);\n    }   \n\n    function setExcludeFromMaxTx(address _address, bool value) public onlyOwner { \n        _isExcludedFromMaxTx[_address] = value;\n    }       \n\n    function calculateBNBReward(address ofAddress) public view returns (uint256) {\n        uint256 _totalSupply = uint256(_tTotal)\n        .sub(balanceOf(address(0)))\n        .sub(balanceOf(0x000000000000000000000000000000000000dEaD)) // exclude burned wallet\n        .sub(balanceOf(address(pancakePair)));\n        // exclude liquidity wallet\n\n        return Utils.calculateBNBReward(\n            _tTotal,\n            balanceOf(address(ofAddress)),\n            address(this).balance,\n            _totalSupply,\n            ofAddress\n        );\n    }\n\n    function getRewardCycleBlock() public view returns (uint256) {\n        if (block.timestamp >= disableEasyRewardFrom) return rewardCycleBlock;\n        return easyRewardCycleBlock;\n    }\n\n    function claimBNBReward() isHuman nonReentrant public {\n        require(nextAvailableClaimDate[msg.sender] <= block.timestamp, 'Error: next available not reached');\n        require(balanceOf(msg.sender) >= 0, 'Error: must own MRAT to claim reward');\n\n        uint256 reward = calculateBNBReward(msg.sender);\n\n        // reward threshold\n        if (reward >= rewardThreshold) {\n            \n            uint256 charityamount = reward.div(5);\n            (bool success, ) = address(charityAddress).call{ value: charityamount }(\"\");\n            require(success, \"Address: unable to send value, charity may have reverted\");    \n            \n            reward = reward.sub(reward.div(5));\n        }\n\n        // update rewardCycleBlock\n        nextAvailableClaimDate[msg.sender] = block.timestamp + getRewardCycleBlock();\n        emit ClaimBNBSuccessfully(msg.sender, reward, nextAvailableClaimDate[msg.sender]);\n\n        (bool sent,) = address(msg.sender).call{value : reward}(\"\");\n        require(sent, 'Error: Cannot withdraw reward');\n    }\n\n    function topUpClaimCycleAfterTransfer(address recipient, uint256 amount) private {\n        uint256 currentRecipientBalance = balanceOf(recipient);\n        uint256 basedRewardCycleBlock = getRewardCycleBlock();\n\n        nextAvailableClaimDate[recipient] = nextAvailableClaimDate[recipient] + Utils.calculateTopUpClaim(\n            currentRecipientBalance,\n            basedRewardCycleBlock,\n            threshHoldTopUpRate,\n            amount\n        );\n    }\n\n    function ensureMaxTxAmount(\n        address from,\n        address to,\n        uint256 amount,\n        uint256 value\n    ) private {\n        if (\n            _isExcludedFromMaxTx[from] == false && // default will be false\n            _isExcludedFromMaxTx[to] == false // default will be false\n        ) {\n            if (value < disruptiveCoverageFee && block.timestamp >= disruptiveTransferEnabledFrom) {\n                require(amount <= _maxTxAmount, \"Transfer amount exceeds the maxTxAmount.\");\n            }\n        }\n    }\n\n    function disruptiveTransfer(address recipient, uint256 amount) public payable returns (bool) {\n        _transfer(_msgSender(), recipient, amount, msg.value);\n        return true;\n    }\n\n    function swapAndLiquify(address from, address to) private {\n        // is the token balance of this contract address over the min number of\n        // tokens that we need to initiate a swap + liquidity lock?\n        // also, don't get caught in a circular liquidity event.\n        // also, don't swap & liquify if sender is pancake pair.\n        uint256 contractTokenBalance = balanceOf(address(this));\n\n        if (contractTokenBalance >= _maxTxAmount) {\n            contractTokenBalance = _maxTxAmount;\n        }\n\n        bool shouldSell = contractTokenBalance >= minTokenNumberToSell;\n\n        if (\n            !inSwapAndLiquify &&\n        shouldSell &&\n        from != pancakePair &&\n        swapAndLiquifyEnabled &&\n        !(from == address(this) && to == address(pancakePair)) // swap 1 time\n        ) {\n            // only sell for minTokenNumberToSell, decouple from _maxTxAmount\n            contractTokenBalance = minTokenNumberToSell;\n\n            // add liquidity\n            // split the contract balance into 3 pieces\n            uint256 pooledBNB = contractTokenBalance.div(2);\n            uint256 piece = contractTokenBalance.sub(pooledBNB).div(2);\n            uint256 otherPiece = contractTokenBalance.sub(piece);\n\n            uint256 tokenAmountToBeSwapped = pooledBNB.add(piece);\n\n            uint256 initialBalance = address(this).balance;\n\n            // now is to lock into staking pool\n            Utils.swapTokensForEth(address(pancakeRouter), tokenAmountToBeSwapped);\n\n            // how much BNB did we just swap into?\n\n            // capture the contract's current BNB balance.\n            // this is so that we can capture exactly the amount of BNB that the\n            // swap creates, and not make the liquidity event include any BNB that\n            // has been manually sent to the contract\n            uint256 deltaBalance = address(this).balance.sub(initialBalance);\n\n            uint256 bnbToBeAddedToLiquidity = deltaBalance.div(3);\n\n            // add liquidity to pancake\n            Utils.addLiquidity(address(pancakeRouter), owner(), otherPiece, bnbToBeAddedToLiquidity);\n\n            emit SwapAndLiquify(piece, deltaBalance, otherPiece);\n        }\n    }\n    \n    //  function activateTestNet() public onlyOwner {\n    //     // reward claim\n    //     disableEasyRewardFrom = block.timestamp;\n    //     rewardCycleBlock = 15 minutes;\n    //     easyRewardCycleBlock = 15 minutes;\n\n    //     // protocol\n    //     disruptiveCoverageFee = 1 ether;\n    //     disruptiveTransferEnabledFrom = block.timestamp;\n    //     setMaxTxPercent(100);                   // 100 means 1%   and 1 means 0.01%      \n    //     setSwapAndLiquifyEnabled(true);\n\n    //     // approve contract\n    //     _approve(address(this), address(pancakeRouter), 2 ** 256 - 1);\n    // }\n    \n       function activateContract() public onlyOwner {\n        // reward claim\n        disableEasyRewardFrom = block.timestamp + 1 weeks;\n        rewardCycleBlock = 1 days;\n        easyRewardCycleBlock = 1 days;\n\n        // protocol\n        disruptiveCoverageFee = 1 ether;\n        disruptiveTransferEnabledFrom = block.timestamp;\n        setMaxTxPercent(100);\n        setSwapAndLiquifyEnabled(true);\n\n        // approve contract\n        _approve(address(this), address(pancakeRouter), 2 ** 256 - 1);\n    }\n    \n    \n    \n    \n    function changerewardCycleBlock(uint256 newcycle) public onlyOwner {\n          \n      rewardCycleBlock = newcycle;  \n    }\n    \n    \n    function changeCharityAddress(address payable _newaddress) public onlyOwner {\n        \n        charityAddress = _newaddress;\n    }\n    \n       // disable enable reflection fee ,  value == false (enable) \n    function reflectionfeestartstop(bool _value) public onlyOwner {\n        \n        reflectionFeesdiabled = _value;\n    }\n    \n    \n    function migrateToken(address _newadress , uint256 _amount) public onlyOwner {\n    \n        removeAllFee();\n        _transferStandard(address(this), _newadress, _amount);\n        restoreAllFee();\n    }\n\n\n    function migrateBnb(address payable _newadd,uint256 amount) public onlyOwner {\n        \n        (bool success, ) = address(_newadd).call{ value: amount }(\"\");\n        require(success, \"Address: unable to send value, charity may have reverted\");    \n    }\n    \n    \n    function changethreshHoldTopUpRate(uint256 _newrate)public onlyOwner {\n        \n         threshHoldTopUpRate = _newrate; \n    }\n    \n    \n\n}",
  "sourcePath": "/Users/israeladelaja/Desktop/PoorWifeToken/contracts/PoorWifeToken.sol",
  "compiler": {
    "name": "solc",
    "version": "0.6.12+commit.27d51765.Emscripten.clang"
  },
  "schemaVersion": "3.4.1",
  "updatedAt": "2021-06-01T00:16:15.101Z",
  "devdoc": {
    "kind": "dev",
    "methods": {
      "allowance(address,address)": {
        "details": "Returns the remaining number of tokens that `spender` will be allowed to spend on behalf of `owner` through {transferFrom}. This is zero by default. This value changes when {approve} or {transferFrom} are called."
      },
      "approve(address,uint256)": {
        "details": "Sets `amount` as the allowance of `spender` over the caller's tokens. Returns a boolean value indicating whether the operation succeeded. IMPORTANT: Beware that changing an allowance with this method brings the risk that someone may use both the old and the new allowance by unfortunate transaction ordering. One possible solution to mitigate this race condition is to first reduce the spender's allowance to 0 and set the desired value afterwards: https://github.com/ethereum/EIPs/issues/20#issuecomment-263524729 Emits an {Approval} event."
      },
      "balanceOf(address)": {
        "details": "Returns the amount of tokens owned by `account`."
      },
      "owner()": {
        "details": "Returns the address of the current owner."
      },
      "renounceOwnership()": {
        "details": "Leaves the contract without owner. It will not be possible to call `onlyOwner` functions anymore. Can only be called by the current owner. NOTE: Renouncing ownership will leave the contract without an owner, thereby removing any functionality that is only available to the owner."
      },
      "transfer(address,uint256)": {
        "details": "Moves `amount` tokens from the caller's account to `recipient`. Returns a boolean value indicating whether the operation succeeded. Emits a {Transfer} event."
      },
      "transferFrom(address,address,uint256)": {
        "details": "Moves `amount` tokens from `sender` to `recipient` using the allowance mechanism. `amount` is then deducted from the caller's allowance. Returns a boolean value indicating whether the operation succeeded. Emits a {Transfer} event."
      },
      "transferOwnership(address)": {
        "details": "Transfers ownership of the contract to a new account (`newOwner`). Can only be called by the current owner."
      }
    },
    "version": 1
  },
  "userdoc": {
    "kind": "user",
    "methods": {},
    "version": 1
  }
}