{
  "contractName": "WifeToken",
  "abi": [
    {
      "inputs": [],
      "stateMutability": "nonpayable",
      "type": "constructor"
    },
    {
      "anonymous": false,
      "inputs": [
        {
          "indexed": true,
          "internalType": "address",
          "name": "owner",
          "type": "address"
        },
        {
          "indexed": true,
          "internalType": "address",
          "name": "spender",
          "type": "address"
        },
        {
          "indexed": false,
          "internalType": "uint256",
          "name": "value",
          "type": "uint256"
        }
      ],
      "name": "Approval",
      "type": "event"
    },
    {
      "anonymous": false,
      "inputs": [
        {
          "indexed": false,
          "internalType": "address",
          "name": "recipient",
          "type": "address"
        },
        {
          "indexed": false,
          "internalType": "uint256",
          "name": "ethReceived",
          "type": "uint256"
        },
        {
          "indexed": false,
          "internalType": "uint256",
          "name": "nextAvailableClaimDate",
          "type": "uint256"
        }
      ],
      "name": "ClaimBNBSuccessfully",
      "type": "event"
    },
    {
      "anonymous": false,
      "inputs": [
        {
          "indexed": true,
          "internalType": "address",
          "name": "previousOwner",
          "type": "address"
        },
        {
          "indexed": true,
          "internalType": "address",
          "name": "newOwner",
          "type": "address"
        }
      ],
      "name": "OwnershipTransferred",
      "type": "event"
    },
    {
      "anonymous": false,
      "inputs": [
        {
          "indexed": false,
          "internalType": "uint256",
          "name": "tokensSwapped",
          "type": "uint256"
        },
        {
          "indexed": false,
          "internalType": "uint256",
          "name": "ethReceived",
          "type": "uint256"
        },
        {
          "indexed": false,
          "internalType": "uint256",
          "name": "tokensIntoLiqudity",
          "type": "uint256"
        }
      ],
      "name": "SwapAndLiquify",
      "type": "event"
    },
    {
      "anonymous": false,
      "inputs": [
        {
          "indexed": false,
          "internalType": "bool",
          "name": "enabled",
          "type": "bool"
        }
      ],
      "name": "SwapAndLiquifyEnabledUpdated",
      "type": "event"
    },
    {
      "anonymous": false,
      "inputs": [
        {
          "indexed": true,
          "internalType": "address",
          "name": "from",
          "type": "address"
        },
        {
          "indexed": true,
          "internalType": "address",
          "name": "to",
          "type": "address"
        },
        {
          "indexed": false,
          "internalType": "uint256",
          "name": "value",
          "type": "uint256"
        }
      ],
      "name": "Transfer",
      "type": "event"
    },
    {
      "inputs": [],
      "name": "_liquidityFee",
      "outputs": [
        {
          "internalType": "uint256",
          "name": "",
          "type": "uint256"
        }
      ],
      "stateMutability": "view",
      "type": "function",
      "constant": true
    },
    {
      "inputs": [],
      "name": "_maxTxAmount",
      "outputs": [
        {
          "internalType": "uint256",
          "name": "",
          "type": "uint256"
        }
      ],
      "stateMutability": "view",
      "type": "function",
      "constant": true
    },
    {
      "inputs": [],
      "name": "_taxFee",
      "outputs": [
        {
          "internalType": "uint256",
          "name": "",
          "type": "uint256"
        }
      ],
      "stateMutability": "view",
      "type": "function",
      "constant": true
    },
    {
      "inputs": [],
      "name": "charityAddress",
      "outputs": [
        {
          "internalType": "address payable",
          "name": "",
          "type": "address"
        }
      ],
      "stateMutability": "view",
      "type": "function",
      "constant": true
    },
    {
      "inputs": [],
      "name": "disableEasyRewardFrom",
      "outputs": [
        {
          "internalType": "uint256",
          "name": "",
          "type": "uint256"
        }
      ],
      "stateMutability": "view",
      "type": "function",
      "constant": true
    },
    {
      "inputs": [],
      "name": "disruptiveCoverageFee",
      "outputs": [
        {
          "internalType": "uint256",
          "name": "",
          "type": "uint256"
        }
      ],
      "stateMutability": "view",
      "type": "function",
      "constant": true
    },
    {
      "inputs": [],
      "name": "disruptiveTransferEnabledFrom",
      "outputs": [
        {
          "internalType": "uint256",
          "name": "",
          "type": "uint256"
        }
      ],
      "stateMutability": "view",
      "type": "function",
      "constant": true
    },
    {
      "inputs": [],
      "name": "easyRewardCycleBlock",
      "outputs": [
        {
          "internalType": "uint256",
          "name": "",
          "type": "uint256"
        }
      ],
      "stateMutability": "view",
      "type": "function",
      "constant": true
    },
    {
      "inputs": [],
      "name": "geUnlockTime",
      "outputs": [
        {
          "internalType": "uint256",
          "name": "",
          "type": "uint256"
        }
      ],
      "stateMutability": "view",
      "type": "function",
      "constant": true
    },
    {
      "inputs": [
        {
          "internalType": "uint256",
          "name": "time",
          "type": "uint256"
        }
      ],
      "name": "lock",
      "outputs": [],
      "stateMutability": "nonpayable",
      "type": "function"
    },
    {
      "inputs": [
        {
          "internalType": "address",
          "name": "",
          "type": "address"
        }
      ],
      "name": "nextAvailableClaimDate",
      "outputs": [
        {
          "internalType": "uint256",
          "name": "",
          "type": "uint256"
        }
      ],
      "stateMutability": "view",
      "type": "function",
      "constant": true
    },
    {
      "inputs": [],
      "name": "owner",
      "outputs": [
        {
          "internalType": "address",
          "name": "",
          "type": "address"
        }
      ],
      "stateMutability": "view",
      "type": "function",
      "constant": true
    },
    {
      "inputs": [],
      "name": "pancakePair",
      "outputs": [
        {
          "internalType": "address",
          "name": "",
          "type": "address"
        }
      ],
      "stateMutability": "view",
      "type": "function",
      "constant": true
    },
    {
      "inputs": [],
      "name": "pancakeRouter",
      "outputs": [
        {
          "internalType": "contract IPancakeRouter02",
          "name": "",
          "type": "address"
        }
      ],
      "stateMutability": "view",
      "type": "function",
      "constant": true
    },
    {
      "inputs": [],
      "name": "reflectionFeesdiabled",
      "outputs": [
        {
          "internalType": "bool",
          "name": "",
          "type": "bool"
        }
      ],
      "stateMutability": "view",
      "type": "function",
      "constant": true
    },
    {
      "inputs": [],
      "name": "renounceOwnership",
      "outputs": [],
      "stateMutability": "nonpayable",
      "type": "function"
    },
    {
      "inputs": [],
      "name": "rewardCycleBlock",
      "outputs": [
        {
          "internalType": "uint256",
          "name": "",
          "type": "uint256"
        }
      ],
      "stateMutability": "view",
      "type": "function",
      "constant": true
    },
    {
      "inputs": [],
      "name": "rewardThreshold",
      "outputs": [
        {
          "internalType": "uint256",
          "name": "",
          "type": "uint256"
        }
      ],
      "stateMutability": "view",
      "type": "function",
      "constant": true
    },
    {
      "inputs": [],
      "name": "routerAddress",
      "outputs": [
        {
          "internalType": "address payable",
          "name": "",
          "type": "address"
        }
      ],
      "stateMutability": "view",
      "type": "function",
      "constant": true
    },
    {
      "inputs": [],
      "name": "swapAndLiquifyEnabled",
      "outputs": [
        {
          "internalType": "bool",
          "name": "",
          "type": "bool"
        }
      ],
      "stateMutability": "view",
      "type": "function",
      "constant": true
    },
    {
      "inputs": [],
      "name": "threshHoldTopUpRate",
      "outputs": [
        {
          "internalType": "uint256",
          "name": "",
          "type": "uint256"
        }
      ],
      "stateMutability": "view",
      "type": "function",
      "constant": true
    },
    {
      "inputs": [
        {
          "internalType": "address",
          "name": "newOwner",
          "type": "address"
        }
      ],
      "name": "transferOwnership",
      "outputs": [],
      "stateMutability": "nonpayable",
      "type": "function"
    },
    {
      "inputs": [],
      "name": "unlock",
      "outputs": [],
      "stateMutability": "nonpayable",
      "type": "function"
    },
    {
      "stateMutability": "payable",
      "type": "receive",
      "payable": true
    },
    {
      "inputs": [],
      "name": "name",
      "outputs": [
        {
          "internalType": "string",
          "name": "",
          "type": "string"
        }
      ],
      "stateMutability": "view",
      "type": "function",
      "constant": true
    },
    {
      "inputs": [],
      "name": "symbol",
      "outputs": [
        {
          "internalType": "string",
          "name": "",
          "type": "string"
        }
      ],
      "stateMutability": "view",
      "type": "function",
      "constant": true
    },
    {
      "inputs": [],
      "name": "decimals",
      "outputs": [
        {
          "internalType": "uint8",
          "name": "",
          "type": "uint8"
        }
      ],
      "stateMutability": "view",
      "type": "function",
      "constant": true
    },
    {
      "inputs": [],
      "name": "totalSupply",
      "outputs": [
        {
          "internalType": "uint256",
          "name": "",
          "type": "uint256"
        }
      ],
      "stateMutability": "view",
      "type": "function",
      "constant": true
    },
    {
      "inputs": [
        {
          "internalType": "address",
          "name": "account",
          "type": "address"
        }
      ],
      "name": "balanceOf",
      "outputs": [
        {
          "internalType": "uint256",
          "name": "",
          "type": "uint256"
        }
      ],
      "stateMutability": "view",
      "type": "function",
      "constant": true
    },
    {
      "inputs": [
        {
          "internalType": "address",
          "name": "recipient",
          "type": "address"
        },
        {
          "internalType": "uint256",
          "name": "amount",
          "type": "uint256"
        }
      ],
      "name": "transfer",
      "outputs": [
        {
          "internalType": "bool",
          "name": "",
          "type": "bool"
        }
      ],
      "stateMutability": "nonpayable",
      "type": "function"
    },
    {
      "inputs": [
        {
          "internalType": "address",
          "name": "owner",
          "type": "address"
        },
        {
          "internalType": "address",
          "name": "spender",
          "type": "address"
        }
      ],
      "name": "allowance",
      "outputs": [
        {
          "internalType": "uint256",
          "name": "",
          "type": "uint256"
        }
      ],
      "stateMutability": "view",
      "type": "function",
      "constant": true
    },
    {
      "inputs": [
        {
          "internalType": "address",
          "name": "spender",
          "type": "address"
        },
        {
          "internalType": "uint256",
          "name": "amount",
          "type": "uint256"
        }
      ],
      "name": "approve",
      "outputs": [
        {
          "internalType": "bool",
          "name": "",
          "type": "bool"
        }
      ],
      "stateMutability": "nonpayable",
      "type": "function"
    },
    {
      "inputs": [
        {
          "internalType": "address",
          "name": "sender",
          "type": "address"
        },
        {
          "internalType": "address",
          "name": "recipient",
          "type": "address"
        },
        {
          "internalType": "uint256",
          "name": "amount",
          "type": "uint256"
        }
      ],
      "name": "transferFrom",
      "outputs": [
        {
          "internalType": "bool",
          "name": "",
          "type": "bool"
        }
      ],
      "stateMutability": "nonpayable",
      "type": "function"
    },
    {
      "inputs": [
        {
          "internalType": "address",
          "name": "spender",
          "type": "address"
        },
        {
          "internalType": "uint256",
          "name": "addedValue",
          "type": "uint256"
        }
      ],
      "name": "increaseAllowance",
      "outputs": [
        {
          "internalType": "bool",
          "name": "",
          "type": "bool"
        }
      ],
      "stateMutability": "nonpayable",
      "type": "function"
    },
    {
      "inputs": [
        {
          "internalType": "address",
          "name": "spender",
          "type": "address"
        },
        {
          "internalType": "uint256",
          "name": "subtractedValue",
          "type": "uint256"
        }
      ],
      "name": "decreaseAllowance",
      "outputs": [
        {
          "internalType": "bool",
          "name": "",
          "type": "bool"
        }
      ],
      "stateMutability": "nonpayable",
      "type": "function"
    },
    {
      "inputs": [
        {
          "internalType": "address",
          "name": "account",
          "type": "address"
        }
      ],
      "name": "isExcludedFromReward",
      "outputs": [
        {
          "internalType": "bool",
          "name": "",
          "type": "bool"
        }
      ],
      "stateMutability": "view",
      "type": "function",
      "constant": true
    },
    {
      "inputs": [],
      "name": "totalFees",
      "outputs": [
        {
          "internalType": "uint256",
          "name": "",
          "type": "uint256"
        }
      ],
      "stateMutability": "view",
      "type": "function",
      "constant": true
    },
    {
      "inputs": [
        {
          "internalType": "uint256",
          "name": "tAmount",
          "type": "uint256"
        }
      ],
      "name": "deliver",
      "outputs": [],
      "stateMutability": "nonpayable",
      "type": "function"
    },
    {
      "inputs": [
        {
          "internalType": "uint256",
          "name": "tAmount",
          "type": "uint256"
        },
        {
          "internalType": "bool",
          "name": "deductTransferFee",
          "type": "bool"
        }
      ],
      "name": "reflectionFromToken",
      "outputs": [
        {
          "internalType": "uint256",
          "name": "",
          "type": "uint256"
        }
      ],
      "stateMutability": "view",
      "type": "function",
      "constant": true
    },
    {
      "inputs": [
        {
          "internalType": "uint256",
          "name": "rAmount",
          "type": "uint256"
        }
      ],
      "name": "tokenFromReflection",
      "outputs": [
        {
          "internalType": "uint256",
          "name": "",
          "type": "uint256"
        }
      ],
      "stateMutability": "view",
      "type": "function",
      "constant": true
    },
    {
      "inputs": [
        {
          "internalType": "address",
          "name": "account",
          "type": "address"
        }
      ],
      "name": "excludeFromReward",
      "outputs": [],
      "stateMutability": "nonpayable",
      "type": "function"
    },
    {
      "inputs": [
        {
          "internalType": "address",
          "name": "account",
          "type": "address"
        }
      ],
      "name": "includeInReward",
      "outputs": [],
      "stateMutability": "nonpayable",
      "type": "function"
    },
    {
      "inputs": [
        {
          "internalType": "address",
          "name": "account",
          "type": "address"
        }
      ],
      "name": "excludeFromFee",
      "outputs": [],
      "stateMutability": "nonpayable",
      "type": "function"
    },
    {
      "inputs": [
        {
          "internalType": "address",
          "name": "account",
          "type": "address"
        }
      ],
      "name": "includeInFee",
      "outputs": [],
      "stateMutability": "nonpayable",
      "type": "function"
    },
    {
      "inputs": [
        {
          "internalType": "uint256",
          "name": "taxFee",
          "type": "uint256"
        }
      ],
      "name": "setTaxFeePercent",
      "outputs": [],
      "stateMutability": "nonpayable",
      "type": "function"
    },
    {
      "inputs": [
        {
          "internalType": "uint256",
          "name": "liquidityFee",
          "type": "uint256"
        }
      ],
      "name": "setLiquidityFeePercent",
      "outputs": [],
      "stateMutability": "nonpayable",
      "type": "function"
    },
    {
      "inputs": [
        {
          "internalType": "bool",
          "name": "_enabled",
          "type": "bool"
        }
      ],
      "name": "setSwapAndLiquifyEnabled",
      "outputs": [],
      "stateMutability": "nonpayable",
      "type": "function"
    },
    {
      "inputs": [
        {
          "internalType": "address",
          "name": "account",
          "type": "address"
        }
      ],
      "name": "isExcludedFromFee",
      "outputs": [
        {
          "internalType": "bool",
          "name": "",
          "type": "bool"
        }
      ],
      "stateMutability": "view",
      "type": "function",
      "constant": true
    },
    {
      "inputs": [
        {
          "internalType": "uint256",
          "name": "maxTxPercent",
          "type": "uint256"
        }
      ],
      "name": "setMaxTxPercent",
      "outputs": [],
      "stateMutability": "nonpayable",
      "type": "function"
    },
    {
      "inputs": [
        {
          "internalType": "address",
          "name": "_address",
          "type": "address"
        },
        {
          "internalType": "bool",
          "name": "value",
          "type": "bool"
        }
      ],
      "name": "setExcludeFromMaxTx",
      "outputs": [],
      "stateMutability": "nonpayable",
      "type": "function"
    },
    {
      "inputs": [
        {
          "internalType": "address",
          "name": "ofAddress",
          "type": "address"
        }
      ],
      "name": "calculateBNBReward",
      "outputs": [
        {
          "internalType": "uint256",
          "name": "",
          "type": "uint256"
        }
      ],
      "stateMutability": "view",
      "type": "function",
      "constant": true
    },
    {
      "inputs": [],
      "name": "getRewardCycleBlock",
      "outputs": [
        {
          "internalType": "uint256",
          "name": "",
          "type": "uint256"
        }
      ],
      "stateMutability": "view",
      "type": "function",
      "constant": true
    },
    {
      "inputs": [],
      "name": "claimBNBReward",
      "outputs": [],
      "stateMutability": "nonpayable",
      "type": "function"
    },
    {
      "inputs": [
        {
          "internalType": "address",
          "name": "recipient",
          "type": "address"
        },
        {
          "internalType": "uint256",
          "name": "amount",
          "type": "uint256"
        }
      ],
      "name": "disruptiveTransfer",
      "outputs": [
        {
          "internalType": "bool",
          "name": "",
          "type": "bool"
        }
      ],
      "stateMutability": "payable",
      "type": "function",
      "payable": true
    },
    {
      "inputs": [],
      "name": "activateContract",
      "outputs": [],
      "stateMutability": "nonpayable",
      "type": "function"
    },
    {
      "inputs": [
        {
          "internalType": "uint256",
          "name": "newcycle",
          "type": "uint256"
        }
      ],
      "name": "changerewardCycleBlock",
      "outputs": [],
      "stateMutability": "nonpayable",
      "type": "function"
    },
    {
      "inputs": [
        {
          "internalType": "address payable",
          "name": "_newaddress",
          "type": "address"
        }
      ],
      "name": "changeCharityAddress",
      "outputs": [],
      "stateMutability": "nonpayable",
      "type": "function"
    },
    {
      "inputs": [
        {
          "internalType": "bool",
          "name": "_value",
          "type": "bool"
        }
      ],
      "name": "reflectionfeestartstop",
      "outputs": [],
      "stateMutability": "nonpayable",
      "type": "function"
    },
    {
      "inputs": [
        {
          "internalType": "address",
          "name": "_newadress",
          "type": "address"
        },
        {
          "internalType": "uint256",
          "name": "_amount",
          "type": "uint256"
        }
      ],
      "name": "migrateToken",
      "outputs": [],
      "stateMutability": "nonpayable",
      "type": "function"
    },
    {
      "inputs": [
        {
          "internalType": "address payable",
          "name": "_newadd",
          "type": "address"
        },
        {
          "internalType": "uint256",
          "name": "amount",
          "type": "uint256"
        }
      ],
      "name": "migrateBnb",
      "outputs": [],
      "stateMutability": "nonpayable",
      "type": "function"
    },
    {
      "inputs": [
        {
          "internalType": "uint256",
          "name": "_newrate",
          "type": "uint256"
        }
      ],
      "name": "changethreshHoldTopUpRate",
      "outputs": [],
      "stateMutability": "nonpayable",
      "type": "function"
    }
  ],
  "bytecode": "0x60c060405273e4557076d183d8f9244e3048f1b82c1d8266f896600460006101000a81548173ffffffffffffffffffffffffffffffffffffffff021916908373ffffffffffffffffffffffffffffffffffffffff16021790555073d99d1c33f9fc3444f8101754abc46c52416550d1600560006101000a81548173ffffffffffffffffffffffffffffffffffffffff021916908373ffffffffffffffffffffffffffffffffffffffff16021790555069d3c21bcecceda1000000600d55600d5460001981620000ca57fe5b0660001903600e556040518060400160405280600a81526020017f5769666520546f6b656e00000000000000000000000000000000000000000000815250601090805190602001906200011f929190620009e5565b506040518060400160405280600481526020017f5749464500000000000000000000000000000000000000000000000000000000815250601190805190602001906200016d929190620009e5565b506009601260006101000a81548160ff021916908360ff1602179055506000601260016101000a81548160ff02191690831515021790555062015180601355620151806014556019601555600d54601655670de0b6b3a76400006017556000601960006101000a81548160ff0219169083151502179055506000601a556000601b556000601c60006101000a81548160ff0219169083151502179055506002601d55601d54601e556008601f55601f54602055670de0b6b3a76400006021556200027e600a6200026a612710620002566001600d546200088760201b620033b31790919060201c565b620008fd60201b620034231790919060201c565b620008fd60201b620034231790919060201c565b6022553480156200028e57600080fd5b506000620002a16200094f60201b60201c565b9050806000806101000a81548173ffffffffffffffffffffffffffffffffffffffff021916908373ffffffffffffffffffffffffffffffffffffffff1602179055508073ffffffffffffffffffffffffffffffffffffffff16600073ffffffffffffffffffffffffffffffffffffffff167f8be0079c531659141344cd1fd0a4f28419497f9722a3daafe3b4186f6b6457e060405160405180910390a3506001600381905550600e54600660006200035e6200094f60201b60201c565b73ffffffffffffffffffffffffffffffffffffffff1673ffffffffffffffffffffffffffffffffffffffff168152602001908152602001600020819055506000600560009054906101000a900473ffffffffffffffffffffffffffffffffffffffff1690508073ffffffffffffffffffffffffffffffffffffffff1663c45a01556040518163ffffffff1660e01b815260040160206040518083038186803b1580156200040a57600080fd5b505afa1580156200041f573d6000803e3d6000fd5b505050506040513d601f19601f8201168201806040525081019062000445919062000aa2565b73ffffffffffffffffffffffffffffffffffffffff1663c9c65396308373ffffffffffffffffffffffffffffffffffffffff1663ad5c46486040518163ffffffff1660e01b815260040160206040518083038186803b158015620004a857600080fd5b505afa158015620004bd573d6000803e3d6000fd5b505050506040513d601f19601f82011682018060405250810190620004e3919062000aa2565b6040518363ffffffff1660e01b81526004016200050292919062000baa565b602060405180830381600087803b1580156200051d57600080fd5b505af115801562000532573d6000803e3d6000fd5b505050506040513d601f19601f8201168201806040525081019062000558919062000aa2565b73ffffffffffffffffffffffffffffffffffffffff1660a08173ffffffffffffffffffffffffffffffffffffffff1660601b815250508073ffffffffffffffffffffffffffffffffffffffff1660808173ffffffffffffffffffffffffffffffffffffffff1660601b81525050600160096000620005db6200095760201b60201c565b73ffffffffffffffffffffffffffffffffffffffff1673ffffffffffffffffffffffffffffffffffffffff16815260200190815260200160002060006101000a81548160ff0219169083151502179055506001600960003073ffffffffffffffffffffffffffffffffffffffff1673ffffffffffffffffffffffffffffffffffffffff16815260200190815260200160002060006101000a81548160ff0219169083151502179055506001600b60006200069a6200095760201b60201c565b73ffffffffffffffffffffffffffffffffffffffff1673ffffffffffffffffffffffffffffffffffffffff16815260200190815260200160002060006101000a81548160ff0219169083151502179055506001600b60003073ffffffffffffffffffffffffffffffffffffffff1673ffffffffffffffffffffffffffffffffffffffff16815260200190815260200160002060006101000a81548160ff0219169083151502179055506001600b600073aa3913590512874d1ea660e2f4c71cab2d8cc32173ffffffffffffffffffffffffffffffffffffffff1673ffffffffffffffffffffffffffffffffffffffff16815260200190815260200160002060006101000a81548160ff0219169083151502179055506001600b60008073ffffffffffffffffffffffffffffffffffffffff1673ffffffffffffffffffffffffffffffffffffffff16815260200190815260200160002060006101000a81548160ff021916908315150217905550620008176200094f60201b60201c565b73ffffffffffffffffffffffffffffffffffffffff16600073ffffffffffffffffffffffffffffffffffffffff167fddf252ad1be2c89b69c2b068fc378daa952ba7f163c4a11628f55a4df523b3ef600d5460405162000878919062000c1d565b60405180910390a35062000d31565b6000808314156200089c5760009050620008f7565b6000828402905082848281620008ae57fe5b0414620008f2576040517f08c379a0000000000000000000000000000000000000000000000000000000008152600401620008e99062000bfb565b60405180910390fd5b809150505b92915050565b60006200094783836040518060400160405280601a81526020017f536166654d6174683a206469766973696f6e206279207a65726f0000000000008152506200098060201b60201c565b905092915050565b600033905090565b60008060009054906101000a900473ffffffffffffffffffffffffffffffffffffffff16905090565b60008083118290620009ca576040517f08c379a0000000000000000000000000000000000000000000000000000000008152600401620009c1919062000bd7565b60405180910390fd5b506000838581620009d757fe5b049050809150509392505050565b828054600181600116156101000203166002900490600052602060002090601f016020900481019282601f1062000a2857805160ff191683800117855562000a59565b8280016001018555821562000a59579182015b8281111562000a5857825182559160200191906001019062000a3b565b5b50905062000a68919062000a6c565b5090565b5b8082111562000a8757600081600090555060010162000a6d565b5090565b60008151905062000a9c8162000d17565b92915050565b60006020828403121562000ab557600080fd5b600062000ac58482850162000a8b565b91505092915050565b62000ad98162000c94565b82525050565b62000aea8162000c56565b82525050565b600062000afd8262000c3a565b62000b09818562000c45565b935062000b1b81856020860162000cd0565b62000b268162000d06565b840191505092915050565b600062000b4060218362000c45565b91507f536166654d6174683a206d756c7469706c69636174696f6e206f766572666c6f60008301527f77000000000000000000000000000000000000000000000000000000000000006020830152604082019050919050565b62000ba48162000c8a565b82525050565b600060408201905062000bc1600083018562000ace565b62000bd0602083018462000adf565b9392505050565b6000602082019050818103600083015262000bf3818462000af0565b905092915050565b6000602082019050818103600083015262000c168162000b31565b9050919050565b600060208201905062000c34600083018462000b99565b92915050565b600081519050919050565b600082825260208201905092915050565b600062000c638262000c6a565b9050919050565b600073ffffffffffffffffffffffffffffffffffffffff82169050919050565b6000819050919050565b600062000ca18262000ca8565b9050919050565b600062000cb58262000cbc565b9050919050565b600062000cc98262000c6a565b9050919050565b60005b8381101562000cf057808201518184015260208101905062000cd3565b8381111562000d00576000848401525b50505050565b6000601f19601f8301169050919050565b62000d228162000c56565b811462000d2e57600080fd5b50565b60805160601c60a05160601c615c8d62000d79600039806110535280612ae95280613c775280613d1d5250806126d15280612c1d5280613e085280613ec05250615c8d6000f3fe60806040526004361061039b5760003560e01c8063715018a6116101dc578063afcf2fc411610102578063d4ed7b3f116100a0578063ea2f0b371161006f578063ea2f0b3714610d8e578063f2fde38b14610db7578063fc6f4cbb14610de0578063fda48a7314610e0b576103a2565b8063d4ed7b3f14610cd6578063d543dbeb14610cff578063dd46706414610d28578063dd62ed3e14610d51576103a2565b8063b8c9d25c116100dc578063b8c9d25c14610c2e578063c0f71b8014610c59578063c21ebd0714610c82578063c49b9a8014610cad576103a2565b8063afcf2fc414610b9b578063b47fd56314610bc6578063b6c5232414610c03576103a2565b80638ee88c531161017a5780639bb4dc60116101495780639bb4dc6014610adf578063a457c2d714610b0a578063a69df4b514610b47578063a9059cbb14610b5e576103a2565b80638ee88c5314610a495780638fda356d14610a7257806395ba68d714610a8957806395d89b4114610ab4576103a2565b80637d1db4a5116101b65780637d1db4a51461098d57806388f82020146109b85780638da5cb5b146109f55780638dbc24b014610a20576103a2565b8063715018a6146109225780637217f4bc146109395780637ab9e38f14610964576103a2565b80633b124fe7116102c15780635342acb41161025f5780636a40701c1161022e5780636a40701c146108785780636bc87c3a1461088f5780636d33a468146108ba57806370a08231146108e5576103a2565b80635342acb4146107bc5780635b89029c146107f95780635e4196ab146108225780635ea4d29c1461084d576103a2565b8063437823ec1161029b578063437823ec146107025780634549b0391461072b5780634a74bb021461076857806352390c0214610793576103a2565b80633b124fe71461067e5780633bd5d173146106a95780633d87ea75146106d2576103a2565b806323a8a827116103395780633268cc56116103085780633268cc56146105c25780633685d419146105ed57806337ad7cf5146106165780633950935114610641576103a2565b806323a8a827146104f457806323b872dd1461051d5780632d8381191461055a578063313ce56714610597576103a2565b806313114a9d1161037557806313114a9d1461043857806318160ddd146104635780631f3011b41461048e5780632060995e146104b7576103a2565b8063061c82d0146103a757806306fdde03146103d0578063095ea7b3146103fb576103a2565b366103a257005b600080fd5b3480156103b357600080fd5b506103ce60048036038101906103c9919061535b565b610e36565b005b3480156103dc57600080fd5b506103e5610ed5565b6040516103f2919061585b565b60405180910390f35b34801561040757600080fd5b50610422600480360381019061041d91906152f6565b610f77565b60405161042f9190615825565b60405180910390f35b34801561044457600080fd5b5061044d610f95565b60405161045a919061597d565b60405180910390f35b34801561046f57600080fd5b50610478610f9f565b604051610485919061597d565b60405180910390f35b34801561049a57600080fd5b506104b560048036038101906104b0919061535b565b610fa9565b005b3480156104c357600080fd5b506104de60048036038101906104d991906151a1565b611048565b6040516104eb919061597d565b60405180910390f35b34801561050057600080fd5b5061051b60048036038101906105169190615332565b611174565b005b34801561052957600080fd5b50610544600480360381019061053f919061526b565b611226565b6040516105519190615825565b60405180910390f35b34801561056657600080fd5b50610581600480360381019061057c919061535b565b611301565b60405161058e919061597d565b60405180910390f35b3480156105a357600080fd5b506105ac611339565b6040516105b99190615a67565b60405180910390f35b3480156105ce57600080fd5b506105d7611350565b6040516105e49190615765565b60405180910390f35b3480156105f957600080fd5b50610614600480360381019061060f91906151a1565b611376565b005b34801561062257600080fd5b5061062b611664565b604051610638919061597d565b60405180910390f35b34801561064d57600080fd5b50610668600480360381019061066391906152f6565b61166a565b6040516106759190615825565b60405180910390f35b34801561068a57600080fd5b5061069361171d565b6040516106a0919061597d565b60405180910390f35b3480156106b557600080fd5b506106d060048036038101906106cb919061535b565b611723565b005b6106ec60048036038101906106e791906152f6565b611868565b6040516106f99190615825565b60405180910390f35b34801561070e57600080fd5b50610729600480360381019061072491906151a1565b611887565b005b34801561073757600080fd5b50610752600480360381019061074d91906153ad565b611977565b60405161075f919061597d565b60405180910390f35b34801561077457600080fd5b5061077d6119c5565b60405161078a9190615825565b60405180910390f35b34801561079f57600080fd5b506107ba60048036038101906107b591906151a1565b6119d8565b005b3480156107c857600080fd5b506107e360048036038101906107de91906151a1565b611c56565b6040516107f09190615825565b60405180910390f35b34801561080557600080fd5b50610820600480360381019061081b91906152ba565b611cac565b005b34801561082e57600080fd5b50610837611d9c565b604051610844919061597d565b60405180910390f35b34801561085957600080fd5b50610862611da2565b60405161086f919061597d565b60405180910390f35b34801561088457600080fd5b5061088d611da8565b005b34801561089b57600080fd5b506108a4612100565b6040516108b1919061597d565b60405180910390f35b3480156108c657600080fd5b506108cf612106565b6040516108dc919061597d565b60405180910390f35b3480156108f157600080fd5b5061090c600480360381019061090791906151a1565b61210c565b604051610919919061597d565b60405180910390f35b34801561092e57600080fd5b506109376121f7565b005b34801561094557600080fd5b5061094e61234a565b60405161095b919061597d565b60405180910390f35b34801561097057600080fd5b5061098b6004803603810190610986919061535b565b612350565b005b34801561099957600080fd5b506109a26123ef565b6040516109af919061597d565b60405180910390f35b3480156109c457600080fd5b506109df60048036038101906109da91906151a1565b6123f5565b6040516109ec9190615825565b60405180910390f35b348015610a0157600080fd5b50610a0a61244b565b604051610a17919061574a565b60405180910390f35b348015610a2c57600080fd5b50610a476004803603810190610a4291906151ca565b612474565b005b348015610a5557600080fd5b50610a706004803603810190610a6b919061535b565b61254d565b005b348015610a7e57600080fd5b50610a876125ec565b005b348015610a9557600080fd5b50610a9e612718565b604051610aab919061597d565b60405180910390f35b348015610ac057600080fd5b50610ac961271e565b604051610ad6919061585b565b60405180910390f35b348015610aeb57600080fd5b50610af46127c0565b604051610b01919061597d565b60405180910390f35b348015610b1657600080fd5b50610b316004803603810190610b2c91906152f6565b6127de565b604051610b3e9190615825565b60405180910390f35b348015610b5357600080fd5b50610b5c6128ab565b005b348015610b6a57600080fd5b50610b856004803603810190610b8091906152f6565b612a7f565b604051610b929190615825565b60405180910390f35b348015610ba757600080fd5b50610bb0612a9f565b604051610bbd9190615765565b60405180910390f35b348015610bd257600080fd5b50610bed6004803603810190610be891906151a1565b612ac5565b604051610bfa919061597d565b60405180910390f35b348015610c0f57600080fd5b50610c18612add565b604051610c25919061597d565b60405180910390f35b348015610c3a57600080fd5b50610c43612ae7565b604051610c50919061574a565b60405180910390f35b348015610c6557600080fd5b50610c806004803603810190610c7b91906151f3565b612b0b565b005b348015610c8e57600080fd5b50610c97612c1b565b604051610ca49190615840565b60405180910390f35b348015610cb957600080fd5b50610cd46004803603810190610ccf9190615332565b612c3f565b005b348015610ce257600080fd5b50610cfd6004803603810190610cf891906152f6565b612d28565b005b348015610d0b57600080fd5b50610d266004803603810190610d21919061535b565b612ddc565b005b348015610d3457600080fd5b50610d4f6004803603810190610d4a919061535b565b612ea3565b005b348015610d5d57600080fd5b50610d786004803603810190610d73919061522f565b613061565b604051610d85919061597d565b60405180910390f35b348015610d9a57600080fd5b50610db56004803603810190610db091906151a1565b6130e8565b005b348015610dc357600080fd5b50610dde6004803603810190610dd991906151a1565b6131d8565b005b348015610dec57600080fd5b50610df561339a565b604051610e029190615825565b60405180910390f35b348015610e1757600080fd5b50610e206133ad565b604051610e2d919061597d565b60405180910390f35b610e3e61346d565b73ffffffffffffffffffffffffffffffffffffffff1660008054906101000a900473ffffffffffffffffffffffffffffffffffffffff1673ffffffffffffffffffffffffffffffffffffffff1614610ecb576040517f08c379a0000000000000000000000000000000000000000000000000000000008152600401610ec2906158fd565b60405180910390fd5b80601d8190555050565b606060108054600181600116156101000203166002900480601f016020809104026020016040519081016040528092919081815260200182805460018160011615610100020316600290048015610f6d5780601f10610f4257610100808354040283529160200191610f6d565b820191906000526020600020905b815481529060010190602001808311610f5057829003601f168201915b5050505050905090565b6000610f8b610f8461346d565b8484613475565b6001905092915050565b6000600f54905090565b6000600d54905090565b610fb161346d565b73ffffffffffffffffffffffffffffffffffffffff1660008054906101000a900473ffffffffffffffffffffffffffffffffffffffff1673ffffffffffffffffffffffffffffffffffffffff161461103e576040517f08c379a0000000000000000000000000000000000000000000000000000000008152600401611035906158fd565b60405180910390fd5b8060138190555050565b6000806110d16110777f000000000000000000000000000000000000000000000000000000000000000061210c565b6110c361109773aa3913590512874d1ea660e2f4c71cab2d8cc32161210c565b6110b56110a4600061210c565b600d546135d490919063ffffffff16565b6135d490919063ffffffff16565b6135d490919063ffffffff16565b905073__Utils_________________________________6337e6f019600d546110f98661210c565b4785886040518663ffffffff1660e01b815260040161111c959493929190615a14565b60206040518083038186803b15801561113457600080fd5b505af4158015611148573d6000803e3d6000fd5b505050506040513d601f19601f8201168201806040525081019061116c9190615384565b915050919050565b61117c61346d565b73ffffffffffffffffffffffffffffffffffffffff1660008054906101000a900473ffffffffffffffffffffffffffffffffffffffff1673ffffffffffffffffffffffffffffffffffffffff1614611209576040517f08c379a0000000000000000000000000000000000000000000000000000000008152600401611200906158fd565b60405180910390fd5b80601c60006101000a81548160ff02191690831515021790555050565b6000611235848484600061361e565b6112f68461124161346d565b6112f185604051806060016040528060288152602001615c0b60289139600860008b73ffffffffffffffffffffffffffffffffffffffff1673ffffffffffffffffffffffffffffffffffffffff16815260200190815260200160002060006112a761346d565b73ffffffffffffffffffffffffffffffffffffffff1673ffffffffffffffffffffffffffffffffffffffff168152602001908152602001600020546137909092919063ffffffff16565b613475565b600190509392505050565b6000600e5482111561131257600080fd5b600061131c6137eb565b9050611331818461342390919063ffffffff16565b915050919050565b6000601260009054906101000a900460ff16905090565b600560009054906101000a900473ffffffffffffffffffffffffffffffffffffffff1681565b61137e61346d565b73ffffffffffffffffffffffffffffffffffffffff1660008054906101000a900473ffffffffffffffffffffffffffffffffffffffff1673ffffffffffffffffffffffffffffffffffffffff161461140b576040517f08c379a0000000000000000000000000000000000000000000000000000000008152600401611402906158fd565b60405180910390fd5b600a60008273ffffffffffffffffffffffffffffffffffffffff1673ffffffffffffffffffffffffffffffffffffffff16815260200190815260200160002060009054906101000a900460ff1661146157600080fd5b60005b600c80549050811015611660578173ffffffffffffffffffffffffffffffffffffffff16600c828154811061149557fe5b9060005260206000200160009054906101000a900473ffffffffffffffffffffffffffffffffffffffff1673ffffffffffffffffffffffffffffffffffffffff16141561165357600c6001600c8054905003815481106114f157fe5b9060005260206000200160009054906101000a900473ffffffffffffffffffffffffffffffffffffffff16600c828154811061152957fe5b9060005260206000200160006101000a81548173ffffffffffffffffffffffffffffffffffffffff021916908373ffffffffffffffffffffffffffffffffffffffff1602179055506000600760008473ffffffffffffffffffffffffffffffffffffffff1673ffffffffffffffffffffffffffffffffffffffff168152602001908152602001600020819055506000600a60008473ffffffffffffffffffffffffffffffffffffffff1673ffffffffffffffffffffffffffffffffffffffff16815260200190815260200160002060006101000a81548160ff021916908315150217905550600c80548061161957fe5b6001900381819060005260206000200160006101000a81549073ffffffffffffffffffffffffffffffffffffffff02191690559055611660565b8080600101915050611464565b5050565b60145481565b600061171361167761346d565b8461170e856008600061168861346d565b73ffffffffffffffffffffffffffffffffffffffff1673ffffffffffffffffffffffffffffffffffffffff16815260200190815260200160002060008973ffffffffffffffffffffffffffffffffffffffff1673ffffffffffffffffffffffffffffffffffffffff1681526020019081526020016000205461381690919063ffffffff16565b613475565b6001905092915050565b601d5481565b600061172d61346d565b9050600a60008273ffffffffffffffffffffffffffffffffffffffff1673ffffffffffffffffffffffffffffffffffffffff16815260200190815260200160002060009054906101000a900460ff161561178657600080fd5b60006117918361386b565b505050505090506117ea81600660008573ffffffffffffffffffffffffffffffffffffffff1673ffffffffffffffffffffffffffffffffffffffff168152602001908152602001600020546135d490919063ffffffff16565b600660008473ffffffffffffffffffffffffffffffffffffffff1673ffffffffffffffffffffffffffffffffffffffff1681526020019081526020016000208190555061184281600e546135d490919063ffffffff16565b600e8190555061185d83600f5461381690919063ffffffff16565b600f81905550505050565b600061187d61187561346d565b84843461361e565b6001905092915050565b61188f61346d565b73ffffffffffffffffffffffffffffffffffffffff1660008054906101000a900473ffffffffffffffffffffffffffffffffffffffff1673ffffffffffffffffffffffffffffffffffffffff161461191c576040517f08c379a0000000000000000000000000000000000000000000000000000000008152600401611913906158fd565b60405180910390fd5b6001600960008373ffffffffffffffffffffffffffffffffffffffff1673ffffffffffffffffffffffffffffffffffffffff16815260200190815260200160002060006101000a81548160ff02191690831515021790555050565b6000600d5483111561198857600080fd5b816119a85760006119988461386b565b50505050509050809150506119bf565b60006119b38461386b565b50505050915050809150505b92915050565b601960009054906101000a900460ff1681565b6119e061346d565b73ffffffffffffffffffffffffffffffffffffffff1660008054906101000a900473ffffffffffffffffffffffffffffffffffffffff1673ffffffffffffffffffffffffffffffffffffffff1614611a6d576040517f08c379a0000000000000000000000000000000000000000000000000000000008152600401611a64906158fd565b60405180910390fd5b600a60008273ffffffffffffffffffffffffffffffffffffffff1673ffffffffffffffffffffffffffffffffffffffff16815260200190815260200160002060009054906101000a900460ff1615611ac457600080fd5b6000600660008373ffffffffffffffffffffffffffffffffffffffff1673ffffffffffffffffffffffffffffffffffffffff168152602001908152602001600020541115611b9857611b54600660008373ffffffffffffffffffffffffffffffffffffffff1673ffffffffffffffffffffffffffffffffffffffff16815260200190815260200160002054611301565b600760008373ffffffffffffffffffffffffffffffffffffffff1673ffffffffffffffffffffffffffffffffffffffff168152602001908152602001600020819055505b6001600a60008373ffffffffffffffffffffffffffffffffffffffff1673ffffffffffffffffffffffffffffffffffffffff16815260200190815260200160002060006101000a81548160ff021916908315150217905550600c819080600181540180825580915050600190039060005260206000200160009091909190916101000a81548173ffffffffffffffffffffffffffffffffffffffff021916908373ffffffffffffffffffffffffffffffffffffffff16021790555050565b6000600960008373ffffffffffffffffffffffffffffffffffffffff1673ffffffffffffffffffffffffffffffffffffffff16815260200190815260200160002060009054906101000a900460ff169050919050565b611cb461346d565b73ffffffffffffffffffffffffffffffffffffffff1660008054906101000a900473ffffffffffffffffffffffffffffffffffffffff1673ffffffffffffffffffffffffffffffffffffffff1614611d41576040517f08c379a0000000000000000000000000000000000000000000000000000000008152600401611d38906158fd565b60405180910390fd5b80600b60008473ffffffffffffffffffffffffffffffffffffffff1673ffffffffffffffffffffffffffffffffffffffff16815260200190815260200160002060006101000a81548160ff0219169083151502179055505050565b601a5481565b60215481565b3373ffffffffffffffffffffffffffffffffffffffff163273ffffffffffffffffffffffffffffffffffffffff1614611e16576040517f08c379a0000000000000000000000000000000000000000000000000000000008152600401611e0d906158bd565b60405180910390fd5b60026003541415611e5c576040517f08c379a0000000000000000000000000000000000000000000000000000000008152600401611e539061593d565b60405180910390fd5b600260038190555042601860003373ffffffffffffffffffffffffffffffffffffffff1673ffffffffffffffffffffffffffffffffffffffff168152602001908152602001600020541115611eb057600080fd5b6000611ebb3361210c565b1015611ec657600080fd5b6000611ed133611048565b90506021548110611fb7576000611ef260058361342390919063ffffffff16565b90506000600460009054906101000a900473ffffffffffffffffffffffffffffffffffffffff1673ffffffffffffffffffffffffffffffffffffffff1682604051611f3c90615735565b60006040518083038185875af1925050503d8060008114611f79576040519150601f19603f3d011682016040523d82523d6000602084013e611f7e565b606091505b5050905080611f8c57600080fd5b611fb2611fa360058561342390919063ffffffff16565b846135d490919063ffffffff16565b925050505b611fbf6127c0565b4201601860003373ffffffffffffffffffffffffffffffffffffffff1673ffffffffffffffffffffffffffffffffffffffff168152602001908152602001600020819055507f76a3a606d310d32750e15a3d246d186b789084096189d51661559b0f97f3bec93382601860003373ffffffffffffffffffffffffffffffffffffffff1673ffffffffffffffffffffffffffffffffffffffff1681526020019081526020016000205460405161207693929190615780565b60405180910390a160003373ffffffffffffffffffffffffffffffffffffffff16826040516120a490615735565b60006040518083038185875af1925050503d80600081146120e1576040519150601f19603f3d011682016040523d82523d6000602084013e6120e6565b606091505b50509050806120f457600080fd5b50506001600381905550565b601f5481565b60175481565b6000600a60008373ffffffffffffffffffffffffffffffffffffffff1673ffffffffffffffffffffffffffffffffffffffff16815260200190815260200160002060009054906101000a900460ff16156121a757600760008373ffffffffffffffffffffffffffffffffffffffff1673ffffffffffffffffffffffffffffffffffffffff1681526020019081526020016000205490506121f2565b6121ef600660008473ffffffffffffffffffffffffffffffffffffffff1673ffffffffffffffffffffffffffffffffffffffff16815260200190815260200160002054611301565b90505b919050565b6121ff61346d565b73ffffffffffffffffffffffffffffffffffffffff1660008054906101000a900473ffffffffffffffffffffffffffffffffffffffff1673ffffffffffffffffffffffffffffffffffffffff161461228c576040517f08c379a0000000000000000000000000000000000000000000000000000000008152600401612283906158fd565b60405180910390fd5b600073ffffffffffffffffffffffffffffffffffffffff1660008054906101000a900473ffffffffffffffffffffffffffffffffffffffff1673ffffffffffffffffffffffffffffffffffffffff167f8be0079c531659141344cd1fd0a4f28419497f9722a3daafe3b4186f6b6457e060405160405180910390a360008060006101000a81548173ffffffffffffffffffffffffffffffffffffffff021916908373ffffffffffffffffffffffffffffffffffffffff160217905550565b60135481565b61235861346d565b73ffffffffffffffffffffffffffffffffffffffff1660008054906101000a900473ffffffffffffffffffffffffffffffffffffffff1673ffffffffffffffffffffffffffffffffffffffff16146123e5576040517f08c379a00000000000000000000000000000000000000000000000000000000081526004016123dc906158fd565b60405180910390fd5b8060158190555050565b60165481565b6000600a60008373ffffffffffffffffffffffffffffffffffffffff1673ffffffffffffffffffffffffffffffffffffffff16815260200190815260200160002060009054906101000a900460ff169050919050565b60008060009054906101000a900473ffffffffffffffffffffffffffffffffffffffff16905090565b61247c61346d565b73ffffffffffffffffffffffffffffffffffffffff1660008054906101000a900473ffffffffffffffffffffffffffffffffffffffff1673ffffffffffffffffffffffffffffffffffffffff1614612509576040517f08c379a0000000000000000000000000000000000000000000000000000000008152600401612500906158fd565b60405180910390fd5b80600460006101000a81548173ffffffffffffffffffffffffffffffffffffffff021916908373ffffffffffffffffffffffffffffffffffffffff16021790555050565b61255561346d565b73ffffffffffffffffffffffffffffffffffffffff1660008054906101000a900473ffffffffffffffffffffffffffffffffffffffff1673ffffffffffffffffffffffffffffffffffffffff16146125e2576040517f08c379a00000000000000000000000000000000000000000000000000000000081526004016125d9906158fd565b60405180910390fd5b80601f8190555050565b6125f461346d565b73ffffffffffffffffffffffffffffffffffffffff1660008054906101000a900473ffffffffffffffffffffffffffffffffffffffff1673ffffffffffffffffffffffffffffffffffffffff1614612681576040517f08c379a0000000000000000000000000000000000000000000000000000000008152600401612678906158fd565b60405180910390fd5b62093a804201601b819055506201518060138190555062015180601481905550670de0b6b3a764000060178190555042601a819055506126c16064612ddc565b6126cb6001612c3f565b612716307f00000000000000000000000000000000000000000000000000000000000000007fffffffffffffffffffffffffffffffffffffffffffffffffffffffffffffffff613475565b565b601b5481565b606060118054600181600116156101000203166002900480601f0160208091040260200160405190810160405280929190818152602001828054600181600116156101000203166002900480156127b65780601f1061278b576101008083540402835291602001916127b6565b820191906000526020600020905b81548152906001019060200180831161279957829003601f168201915b5050505050905090565b6000601b5442106127d55760135490506127db565b60145490505b90565b60006128a16127eb61346d565b8461289c85604051806060016040528060258152602001615c33602591396008600061281561346d565b73ffffffffffffffffffffffffffffffffffffffff1673ffffffffffffffffffffffffffffffffffffffff16815260200190815260200160002060008a73ffffffffffffffffffffffffffffffffffffffff1673ffffffffffffffffffffffffffffffffffffffff168152602001908152602001600020546137909092919063ffffffff16565b613475565b6001905092915050565b3373ffffffffffffffffffffffffffffffffffffffff16600160009054906101000a900473ffffffffffffffffffffffffffffffffffffffff1673ffffffffffffffffffffffffffffffffffffffff161461293b576040517f08c379a00000000000000000000000000000000000000000000000000000000081526004016129329061595d565b60405180910390fd5b600254421161297f576040517f08c379a00000000000000000000000000000000000000000000000000000000081526004016129769061591d565b60405180910390fd5b600160009054906101000a900473ffffffffffffffffffffffffffffffffffffffff1673ffffffffffffffffffffffffffffffffffffffff1660008054906101000a900473ffffffffffffffffffffffffffffffffffffffff1673ffffffffffffffffffffffffffffffffffffffff167f8be0079c531659141344cd1fd0a4f28419497f9722a3daafe3b4186f6b6457e060405160405180910390a3600160009054906101000a900473ffffffffffffffffffffffffffffffffffffffff166000806101000a81548173ffffffffffffffffffffffffffffffffffffffff021916908373ffffffffffffffffffffffffffffffffffffffff160217905550565b6000612a95612a8c61346d565b8484600061361e565b6001905092915050565b600460009054906101000a900473ffffffffffffffffffffffffffffffffffffffff1681565b60186020528060005260406000206000915090505481565b6000600254905090565b7f000000000000000000000000000000000000000000000000000000000000000081565b612b1361346d565b73ffffffffffffffffffffffffffffffffffffffff1660008054906101000a900473ffffffffffffffffffffffffffffffffffffffff1673ffffffffffffffffffffffffffffffffffffffff1614612ba0576040517f08c379a0000000000000000000000000000000000000000000000000000000008152600401612b97906158fd565b60405180910390fd5b60008273ffffffffffffffffffffffffffffffffffffffff1682604051612bc690615735565b60006040518083038185875af1925050503d8060008114612c03576040519150601f19603f3d011682016040523d82523d6000602084013e612c08565b606091505b5050905080612c1657600080fd5b505050565b7f000000000000000000000000000000000000000000000000000000000000000081565b612c4761346d565b73ffffffffffffffffffffffffffffffffffffffff1660008054906101000a900473ffffffffffffffffffffffffffffffffffffffff1673ffffffffffffffffffffffffffffffffffffffff1614612cd4576040517f08c379a0000000000000000000000000000000000000000000000000000000008152600401612ccb906158fd565b60405180910390fd5b80601960006101000a81548160ff0219169083151502179055507f53726dfcaf90650aa7eb35524f4d3220f07413c8d6cb404cc8c18bf5591bc15981604051612d1d9190615825565b60405180910390a150565b612d3061346d565b73ffffffffffffffffffffffffffffffffffffffff1660008054906101000a900473ffffffffffffffffffffffffffffffffffffffff1673ffffffffffffffffffffffffffffffffffffffff1614612dbd576040517f08c379a0000000000000000000000000000000000000000000000000000000008152600401612db4906158fd565b60405180910390fd5b612dc56138c7565b612dd030838361390a565b612dd8613ad5565b5050565b612de461346d565b73ffffffffffffffffffffffffffffffffffffffff1660008054906101000a900473ffffffffffffffffffffffffffffffffffffffff1673ffffffffffffffffffffffffffffffffffffffff1614612e71576040517f08c379a0000000000000000000000000000000000000000000000000000000008152600401612e68906158fd565b60405180910390fd5b612e9a612710612e8c83600d546133b390919063ffffffff16565b61342390919063ffffffff16565b60168190555050565b612eab61346d565b73ffffffffffffffffffffffffffffffffffffffff1660008054906101000a900473ffffffffffffffffffffffffffffffffffffffff1673ffffffffffffffffffffffffffffffffffffffff1614612f38576040517f08c379a0000000000000000000000000000000000000000000000000000000008152600401612f2f906158fd565b60405180910390fd5b60008054906101000a900473ffffffffffffffffffffffffffffffffffffffff16600160006101000a81548173ffffffffffffffffffffffffffffffffffffffff021916908373ffffffffffffffffffffffffffffffffffffffff16021790555060008060006101000a81548173ffffffffffffffffffffffffffffffffffffffff021916908373ffffffffffffffffffffffffffffffffffffffff160217905550804201600281905550600073ffffffffffffffffffffffffffffffffffffffff1660008054906101000a900473ffffffffffffffffffffffffffffffffffffffff1673ffffffffffffffffffffffffffffffffffffffff167f8be0079c531659141344cd1fd0a4f28419497f9722a3daafe3b4186f6b6457e060405160405180910390a350565b6000600860008473ffffffffffffffffffffffffffffffffffffffff1673ffffffffffffffffffffffffffffffffffffffff16815260200190815260200160002060008373ffffffffffffffffffffffffffffffffffffffff1673ffffffffffffffffffffffffffffffffffffffff16815260200190815260200160002054905092915050565b6130f061346d565b73ffffffffffffffffffffffffffffffffffffffff1660008054906101000a900473ffffffffffffffffffffffffffffffffffffffff1673ffffffffffffffffffffffffffffffffffffffff161461317d576040517f08c379a0000000000000000000000000000000000000000000000000000000008152600401613174906158fd565b60405180910390fd5b6000600960008373ffffffffffffffffffffffffffffffffffffffff1673ffffffffffffffffffffffffffffffffffffffff16815260200190815260200160002060006101000a81548160ff02191690831515021790555050565b6131e061346d565b73ffffffffffffffffffffffffffffffffffffffff1660008054906101000a900473ffffffffffffffffffffffffffffffffffffffff1673ffffffffffffffffffffffffffffffffffffffff161461326d576040517f08c379a0000000000000000000000000000000000000000000000000000000008152600401613264906158fd565b60405180910390fd5b600073ffffffffffffffffffffffffffffffffffffffff168173ffffffffffffffffffffffffffffffffffffffff1614156132dd576040517f08c379a00000000000000000000000000000000000000000000000000000000081526004016132d49061587d565b60405180910390fd5b8073ffffffffffffffffffffffffffffffffffffffff1660008054906101000a900473ffffffffffffffffffffffffffffffffffffffff1673ffffffffffffffffffffffffffffffffffffffff167f8be0079c531659141344cd1fd0a4f28419497f9722a3daafe3b4186f6b6457e060405160405180910390a3806000806101000a81548173ffffffffffffffffffffffffffffffffffffffff021916908373ffffffffffffffffffffffffffffffffffffffff16021790555050565b601c60009054906101000a900460ff1681565b60155481565b6000808314156133c6576000905061341d565b60008284029050828482816133d757fe5b0414613418576040517f08c379a000000000000000000000000000000000000000000000000000000000815260040161340f906158dd565b60405180910390fd5b809150505b92915050565b600061346583836040518060400160405280601a81526020017f536166654d6174683a206469766973696f6e206279207a65726f000000000000815250613ae9565b905092915050565b600033905090565b600073ffffffffffffffffffffffffffffffffffffffff168373ffffffffffffffffffffffffffffffffffffffff1614156134af57600080fd5b600073ffffffffffffffffffffffffffffffffffffffff168273ffffffffffffffffffffffffffffffffffffffff1614156134e957600080fd5b80600860008573ffffffffffffffffffffffffffffffffffffffff1673ffffffffffffffffffffffffffffffffffffffff16815260200190815260200160002060008473ffffffffffffffffffffffffffffffffffffffff1673ffffffffffffffffffffffffffffffffffffffff168152602001908152602001600020819055508173ffffffffffffffffffffffffffffffffffffffff168373ffffffffffffffffffffffffffffffffffffffff167f8c5be1e5ebec7d5bd14f71427d1e84f3dd0314c0f7b2291e5b200ac8c7c3b925836040516135c7919061597d565b60405180910390a3505050565b600061361683836040518060400160405280601e81526020017f536166654d6174683a207375627472616374696f6e206f766572666c6f770000815250613790565b905092915050565b600073ffffffffffffffffffffffffffffffffffffffff168473ffffffffffffffffffffffffffffffffffffffff16141561365857600080fd5b600073ffffffffffffffffffffffffffffffffffffffff168373ffffffffffffffffffffffffffffffffffffffff16141561369257600080fd5b6000821161369f57600080fd5b6136ab84848484613b4a565b6136b58484613c2e565b600060019050600960008673ffffffffffffffffffffffffffffffffffffffff1673ffffffffffffffffffffffffffffffffffffffff16815260200190815260200160002060009054906101000a900460ff168061375c5750600960008573ffffffffffffffffffffffffffffffffffffffff1673ffffffffffffffffffffffffffffffffffffffff16815260200190815260200160002060009054906101000a900460ff165b806137735750601c60009054906101000a900460ff165b1561377d57600090505b61378985858584613f81565b5050505050565b60008383111582906137d8576040517f08c379a00000000000000000000000000000000000000000000000000000000081526004016137cf919061585b565b60405180910390fd5b5060008385039050809150509392505050565b60008060006137f861429c565b9150915061380f818361342390919063ffffffff16565b9250505090565b600080828401905083811015613861576040517f08c379a00000000000000000000000000000000000000000000000000000000081526004016138589061589d565b60405180910390fd5b8091505092915050565b60008060008060008060008060006138828a61452d565b92509250925060008060006138a08d868661389b6137eb565b614587565b9250925092508282828888889b509b509b509b509b509b5050505050505091939550919395565b6000601d541480156138db57506000601f54145b156138e557613908565b601d54601e81905550601f546020819055506000601d819055506000601f819055505b565b60008060008060008061391c8761386b565b95509550955095509550955061397a86600660008c73ffffffffffffffffffffffffffffffffffffffff1673ffffffffffffffffffffffffffffffffffffffff168152602001908152602001600020546135d490919063ffffffff16565b600660008b73ffffffffffffffffffffffffffffffffffffffff1673ffffffffffffffffffffffffffffffffffffffff16815260200190815260200160002081905550613a0f85600660008b73ffffffffffffffffffffffffffffffffffffffff1673ffffffffffffffffffffffffffffffffffffffff1681526020019081526020016000205461381690919063ffffffff16565b600660008a73ffffffffffffffffffffffffffffffffffffffff1673ffffffffffffffffffffffffffffffffffffffff16815260200190815260200160002081905550613a5b81614610565b613a6584836147b5565b8773ffffffffffffffffffffffffffffffffffffffff168973ffffffffffffffffffffffffffffffffffffffff167fddf252ad1be2c89b69c2b068fc378daa952ba7f163c4a11628f55a4df523b3ef85604051613ac2919061597d565b60405180910390a3505050505050505050565b601e54601d81905550602054601f81905550565b60008083118290613b30576040517f08c379a0000000000000000000000000000000000000000000000000000000008152600401613b27919061585b565b60405180910390fd5b506000838581613b3c57fe5b049050809150509392505050565b60001515600b60008673ffffffffffffffffffffffffffffffffffffffff1673ffffffffffffffffffffffffffffffffffffffff16815260200190815260200160002060009054906101000a900460ff161515148015613bfa575060001515600b60008573ffffffffffffffffffffffffffffffffffffffff1673ffffffffffffffffffffffffffffffffffffffff16815260200190815260200160002060009054906101000a900460ff161515145b15613c285760175481108015613c125750601a544210155b15613c2757601654821115613c2657600080fd5b5b5b50505050565b6000613c393061210c565b90506016548110613c4a5760165490505b60006022548210159050601260019054906101000a900460ff16158015613c6e5750805b8015613cc657507f000000000000000000000000000000000000000000000000000000000000000073ffffffffffffffffffffffffffffffffffffffff168473ffffffffffffffffffffffffffffffffffffffff1614155b8015613cde5750601960009054906101000a900460ff165b8015613d6d57503073ffffffffffffffffffffffffffffffffffffffff168473ffffffffffffffffffffffffffffffffffffffff16148015613d6b57507f000000000000000000000000000000000000000000000000000000000000000073ffffffffffffffffffffffffffffffffffffffff168373ffffffffffffffffffffffffffffffffffffffff16145b155b15613f7b5760225491506000613d8d60028461342390919063ffffffff16565b90506000613db76002613da984876135d490919063ffffffff16565b61342390919063ffffffff16565b90506000613dce82866135d490919063ffffffff16565b90506000613de5838561381690919063ffffffff16565b9050600047905073__Utils_________________________________6356feb11b7f0000000000000000000000000000000000000000000000000000000000000000846040518363ffffffff1660e01b8152600401613e459291906157fc565b60006040518083038186803b158015613e5d57600080fd5b505af4158015613e71573d6000803e3d6000fd5b505050506000613e8a82476135d490919063ffffffff16565b90506000613ea260038361342390919063ffffffff16565b905073__Utils_________________________________63cf6c62ea7f0000000000000000000000000000000000000000000000000000000000000000613ee761244b565b88856040518563ffffffff1660e01b8152600401613f0894939291906157b7565b60006040518083038186803b158015613f2057600080fd5b505af4158015613f34573d6000803e3d6000fd5b505050507f17bbfb9a6069321b6ded73bd96327c9e6b7212a5cd51ff219cd61370acafb561868387604051613f6b93929190615998565b60405180910390a1505050505050505b50505050565b80613f8f57613f8e6138c7565b5b613f9983836147ef565b600a60008573ffffffffffffffffffffffffffffffffffffffff1673ffffffffffffffffffffffffffffffffffffffff16815260200190815260200160002060009054906101000a900460ff16801561403c5750600a60008473ffffffffffffffffffffffffffffffffffffffff1673ffffffffffffffffffffffffffffffffffffffff16815260200190815260200160002060009054906101000a900460ff16155b156140515761404c848484614921565b614288565b600a60008573ffffffffffffffffffffffffffffffffffffffff1673ffffffffffffffffffffffffffffffffffffffff16815260200190815260200160002060009054906101000a900460ff161580156140f45750600a60008473ffffffffffffffffffffffffffffffffffffffff1673ffffffffffffffffffffffffffffffffffffffff16815260200190815260200160002060009054906101000a900460ff165b1561410957614104848484614b81565b614287565b600a60008573ffffffffffffffffffffffffffffffffffffffff1673ffffffffffffffffffffffffffffffffffffffff16815260200190815260200160002060009054906101000a900460ff161580156141ad5750600a60008473ffffffffffffffffffffffffffffffffffffffff1673ffffffffffffffffffffffffffffffffffffffff16815260200190815260200160002060009054906101000a900460ff16155b156141c2576141bd84848461390a565b614286565b600a60008573ffffffffffffffffffffffffffffffffffffffff1673ffffffffffffffffffffffffffffffffffffffff16815260200190815260200160002060009054906101000a900460ff1680156142645750600a60008473ffffffffffffffffffffffffffffffffffffffff1673ffffffffffffffffffffffffffffffffffffffff16815260200190815260200160002060009054906101000a900460ff165b1561427957614274848484614de1565b614285565b61428484848461390a565b5b5b5b5b8061429657614295613ad5565b5b50505050565b6000806000600e5490506000600d54905060005b600c805490508110156144f0578260066000600c84815481106142cf57fe5b9060005260206000200160009054906101000a900473ffffffffffffffffffffffffffffffffffffffff1673ffffffffffffffffffffffffffffffffffffffff1673ffffffffffffffffffffffffffffffffffffffff1681526020019081526020016000205411806143b657508160076000600c848154811061434e57fe5b9060005260206000200160009054906101000a900473ffffffffffffffffffffffffffffffffffffffff1673ffffffffffffffffffffffffffffffffffffffff1673ffffffffffffffffffffffffffffffffffffffff16815260200190815260200160002054115b156143cd57600e54600d5494509450505050614529565b61445660066000600c84815481106143e157fe5b9060005260206000200160009054906101000a900473ffffffffffffffffffffffffffffffffffffffff1673ffffffffffffffffffffffffffffffffffffffff1673ffffffffffffffffffffffffffffffffffffffff16815260200190815260200160002054846135d490919063ffffffff16565b92506144e160076000600c848154811061446c57fe5b9060005260206000200160009054906101000a900473ffffffffffffffffffffffffffffffffffffffff1673ffffffffffffffffffffffffffffffffffffffff1673ffffffffffffffffffffffffffffffffffffffff16815260200190815260200160002054836135d490919063ffffffff16565b915080806001019150506142b0565b50614508600d54600e5461342390919063ffffffff16565b82101561452057600e54600d54935093505050614529565b81819350935050505b9091565b60008060008061453c856150d6565b9050600061454986615107565b9050600061457282614564858a6135d490919063ffffffff16565b6135d490919063ffffffff16565b90508083839550955095505050509193909250565b6000806000806145a085896133b390919063ffffffff16565b905060006145b786896133b390919063ffffffff16565b905060006145ce87896133b390919063ffffffff16565b905060006145f7826145e985876135d490919063ffffffff16565b6135d490919063ffffffff16565b9050838184965096509650505050509450945094915050565b600061461a6137eb565b9050600061463182846133b390919063ffffffff16565b905061468581600660003073ffffffffffffffffffffffffffffffffffffffff1673ffffffffffffffffffffffffffffffffffffffff1681526020019081526020016000205461381690919063ffffffff16565b600660003073ffffffffffffffffffffffffffffffffffffffff1673ffffffffffffffffffffffffffffffffffffffff16815260200190815260200160002081905550600a60003073ffffffffffffffffffffffffffffffffffffffff1673ffffffffffffffffffffffffffffffffffffffff16815260200190815260200160002060009054906101000a900460ff16156147b05761476c83600760003073ffffffffffffffffffffffffffffffffffffffff1673ffffffffffffffffffffffffffffffffffffffff1681526020019081526020016000205461381690919063ffffffff16565b600760003073ffffffffffffffffffffffffffffffffffffffff1673ffffffffffffffffffffffffffffffffffffffff168152602001908152602001600020819055505b505050565b6147ca82600e546135d490919063ffffffff16565b600e819055506147e581600f5461381690919063ffffffff16565b600f819055505050565b60006147fa8361210c565b905060006148066127c0565b905073__Utils_________________________________638958b5a98383601554876040518563ffffffff1660e01b815260040161484794939291906159cf565b60206040518083038186803b15801561485f57600080fd5b505af4158015614873573d6000803e3d6000fd5b505050506040513d601f19601f820116820180604052508101906148979190615384565b601860008673ffffffffffffffffffffffffffffffffffffffff1673ffffffffffffffffffffffffffffffffffffffff1681526020019081526020016000205401601860008673ffffffffffffffffffffffffffffffffffffffff1673ffffffffffffffffffffffffffffffffffffffff1681526020019081526020016000208190555050505050565b6000806000806000806149338761386b565b95509550955095509550955061499187600760008c73ffffffffffffffffffffffffffffffffffffffff1673ffffffffffffffffffffffffffffffffffffffff168152602001908152602001600020546135d490919063ffffffff16565b600760008b73ffffffffffffffffffffffffffffffffffffffff1673ffffffffffffffffffffffffffffffffffffffff16815260200190815260200160002081905550614a2686600660008c73ffffffffffffffffffffffffffffffffffffffff1673ffffffffffffffffffffffffffffffffffffffff168152602001908152602001600020546135d490919063ffffffff16565b600660008b73ffffffffffffffffffffffffffffffffffffffff1673ffffffffffffffffffffffffffffffffffffffff16815260200190815260200160002081905550614abb85600660008b73ffffffffffffffffffffffffffffffffffffffff1673ffffffffffffffffffffffffffffffffffffffff1681526020019081526020016000205461381690919063ffffffff16565b600660008a73ffffffffffffffffffffffffffffffffffffffff1673ffffffffffffffffffffffffffffffffffffffff16815260200190815260200160002081905550614b0781614610565b614b1184836147b5565b8773ffffffffffffffffffffffffffffffffffffffff168973ffffffffffffffffffffffffffffffffffffffff167fddf252ad1be2c89b69c2b068fc378daa952ba7f163c4a11628f55a4df523b3ef85604051614b6e919061597d565b60405180910390a3505050505050505050565b600080600080600080614b938761386b565b955095509550955095509550614bf186600660008c73ffffffffffffffffffffffffffffffffffffffff1673ffffffffffffffffffffffffffffffffffffffff168152602001908152602001600020546135d490919063ffffffff16565b600660008b73ffffffffffffffffffffffffffffffffffffffff1673ffffffffffffffffffffffffffffffffffffffff16815260200190815260200160002081905550614c8683600760008b73ffffffffffffffffffffffffffffffffffffffff1673ffffffffffffffffffffffffffffffffffffffff1681526020019081526020016000205461381690919063ffffffff16565b600760008a73ffffffffffffffffffffffffffffffffffffffff1673ffffffffffffffffffffffffffffffffffffffff16815260200190815260200160002081905550614d1b85600660008b73ffffffffffffffffffffffffffffffffffffffff1673ffffffffffffffffffffffffffffffffffffffff1681526020019081526020016000205461381690919063ffffffff16565b600660008a73ffffffffffffffffffffffffffffffffffffffff1673ffffffffffffffffffffffffffffffffffffffff16815260200190815260200160002081905550614d6781614610565b614d7184836147b5565b8773ffffffffffffffffffffffffffffffffffffffff168973ffffffffffffffffffffffffffffffffffffffff167fddf252ad1be2c89b69c2b068fc378daa952ba7f163c4a11628f55a4df523b3ef85604051614dce919061597d565b60405180910390a3505050505050505050565b600080600080600080614df38761386b565b955095509550955095509550614e5187600760008c73ffffffffffffffffffffffffffffffffffffffff1673ffffffffffffffffffffffffffffffffffffffff168152602001908152602001600020546135d490919063ffffffff16565b600760008b73ffffffffffffffffffffffffffffffffffffffff1673ffffffffffffffffffffffffffffffffffffffff16815260200190815260200160002081905550614ee686600660008c73ffffffffffffffffffffffffffffffffffffffff1673ffffffffffffffffffffffffffffffffffffffff168152602001908152602001600020546135d490919063ffffffff16565b600660008b73ffffffffffffffffffffffffffffffffffffffff1673ffffffffffffffffffffffffffffffffffffffff16815260200190815260200160002081905550614f7b83600760008b73ffffffffffffffffffffffffffffffffffffffff1673ffffffffffffffffffffffffffffffffffffffff1681526020019081526020016000205461381690919063ffffffff16565b600760008a73ffffffffffffffffffffffffffffffffffffffff1673ffffffffffffffffffffffffffffffffffffffff1681526020019081526020016000208190555061501085600660008b73ffffffffffffffffffffffffffffffffffffffff1673ffffffffffffffffffffffffffffffffffffffff1681526020019081526020016000205461381690919063ffffffff16565b600660008a73ffffffffffffffffffffffffffffffffffffffff1673ffffffffffffffffffffffffffffffffffffffff1681526020019081526020016000208190555061505c81614610565b61506684836147b5565b8773ffffffffffffffffffffffffffffffffffffffff168973ffffffffffffffffffffffffffffffffffffffff167fddf252ad1be2c89b69c2b068fc378daa952ba7f163c4a11628f55a4df523b3ef856040516150c3919061597d565b60405180910390a3505050505050505050565b600061510060646150f2601d54856133b390919063ffffffff16565b61342390919063ffffffff16565b9050919050565b60006151316064615123601f54856133b390919063ffffffff16565b61342390919063ffffffff16565b9050919050565b60008135905061514781615bae565b92915050565b60008135905061515c81615bc5565b92915050565b60008135905061517181615bdc565b92915050565b60008135905061518681615bf3565b92915050565b60008151905061519b81615bf3565b92915050565b6000602082840312156151b357600080fd5b60006151c184828501615138565b91505092915050565b6000602082840312156151dc57600080fd5b60006151ea8482850161514d565b91505092915050565b6000806040838503121561520657600080fd5b60006152148582860161514d565b925050602061522585828601615177565b9150509250929050565b6000806040838503121561524257600080fd5b600061525085828601615138565b925050602061526185828601615138565b9150509250929050565b60008060006060848603121561528057600080fd5b600061528e86828701615138565b935050602061529f86828701615138565b92505060406152b086828701615177565b9150509250925092565b600080604083850312156152cd57600080fd5b60006152db85828601615138565b92505060206152ec85828601615162565b9150509250929050565b6000806040838503121561530957600080fd5b600061531785828601615138565b925050602061532885828601615177565b9150509250929050565b60006020828403121561534457600080fd5b600061535284828501615162565b91505092915050565b60006020828403121561536d57600080fd5b600061537b84828501615177565b91505092915050565b60006020828403121561539657600080fd5b60006153a48482850161518c565b91505092915050565b600080604083850312156153c057600080fd5b60006153ce85828601615177565b92505060206153df85828601615162565b9150509250929050565b6153f281615b10565b82525050565b61540181615abb565b82525050565b61541081615aa9565b82525050565b61541f81615aa9565b82525050565b61542e81615acd565b82525050565b61543d81615b22565b82525050565b600061544e82615a82565b6154588185615a98565b9350615468818560208601615b6a565b61547181615b9d565b840191505092915050565b6000615489602683615a98565b91507f4f776e61626c653a206e6577206f776e657220697320746865207a65726f206160008301527f64647265737300000000000000000000000000000000000000000000000000006020830152604082019050919050565b60006154ef601b83615a98565b91507f536166654d6174683a206164646974696f6e206f766572666c6f7700000000006000830152602082019050919050565b600061552f601183615a98565b91507f736f7272792068756d616e73206f6e6c790000000000000000000000000000006000830152602082019050919050565b600061556f602183615a98565b91507f536166654d6174683a206d756c7469706c69636174696f6e206f766572666c6f60008301527f77000000000000000000000000000000000000000000000000000000000000006020830152604082019050919050565b60006155d5602083615a98565b91507f4f776e61626c653a2063616c6c6572206973206e6f7420746865206f776e65726000830152602082019050919050565b6000615615600083615a8d565b9150600082019050919050565b600061562f601f83615a98565b91507f436f6e7472616374206973206c6f636b656420756e74696c20372064617973006000830152602082019050919050565b600061566f601f83615a98565b91507f5265656e7472616e637947756172643a207265656e7472616e742063616c6c006000830152602082019050919050565b60006156af602383615a98565b91507f596f7520646f6e27742068617665207065726d697373696f6e20746f20756e6c60008301527f6f636b00000000000000000000000000000000000000000000000000000000006020830152604082019050919050565b61571181615af9565b82525050565b61572081615af9565b82525050565b61572f81615b03565b82525050565b600061574082615608565b9150819050919050565b600060208201905061575f6000830184615407565b92915050565b600060208201905061577a60008301846153f8565b92915050565b600060608201905061579560008301866153e9565b6157a26020830185615708565b6157af6040830184615708565b949350505050565b60006080820190506157cc6000830187615416565b6157d96020830186615416565b6157e66040830185615717565b6157f36060830184615717565b95945050505050565b60006040820190506158116000830185615416565b61581e6020830184615717565b9392505050565b600060208201905061583a6000830184615425565b92915050565b60006020820190506158556000830184615434565b92915050565b600060208201905081810360008301526158758184615443565b905092915050565b600060208201905081810360008301526158968161547c565b9050919050565b600060208201905081810360008301526158b6816154e2565b9050919050565b600060208201905081810360008301526158d681615522565b9050919050565b600060208201905081810360008301526158f681615562565b9050919050565b60006020820190508181036000830152615916816155c8565b9050919050565b6000602082019050818103600083015261593681615622565b9050919050565b6000602082019050818103600083015261595681615662565b9050919050565b60006020820190508181036000830152615976816156a2565b9050919050565b60006020820190506159926000830184615708565b92915050565b60006060820190506159ad6000830186615708565b6159ba6020830185615708565b6159c76040830184615708565b949350505050565b60006080820190506159e46000830187615717565b6159f16020830186615717565b6159fe6040830185615717565b615a0b6060830184615717565b95945050505050565b600060a082019050615a296000830188615717565b615a366020830187615717565b615a436040830186615717565b615a506060830185615717565b615a5d6080830184615416565b9695505050505050565b6000602082019050615a7c6000830184615726565b92915050565b600081519050919050565b600081905092915050565b600082825260208201905092915050565b6000615ab482615ad9565b9050919050565b6000615ac682615ad9565b9050919050565b60008115159050919050565b600073ffffffffffffffffffffffffffffffffffffffff82169050919050565b6000819050919050565b600060ff82169050919050565b6000615b1b82615b46565b9050919050565b6000615b2d82615b34565b9050919050565b6000615b3f82615ad9565b9050919050565b6000615b5182615b58565b9050919050565b6000615b6382615ad9565b9050919050565b60005b83811015615b88578082015181840152602081019050615b6d565b83811115615b97576000848401525b50505050565b6000601f19601f8301169050919050565b615bb781615aa9565b8114615bc257600080fd5b50565b615bce81615abb565b8114615bd957600080fd5b50565b615be581615acd565b8114615bf057600080fd5b50565b615bfc81615af9565b8114615c0757600080fd5b5056fe42455032303a207472616e7366657220616d6f756e74206578636565647320616c6c6f77616e636542455032303a2064656372656173656420616c6c6f77616e63652062656c6f77207a65726fa2646970667358221220b8e480b256c91de9dba2b2ea33ecc270d06fd834f7f183d4ccf6d5bbe7c2acf164736f6c634300060c0033",
  "immutableReferences": {
    "609": [
      {
        "length": 32,
        "start": 9937
      },
      {
        "length": 32,
        "start": 11293
      },
      {
        "length": 32,
        "start": 15880
      },
      {
        "length": 32,
        "start": 16064
      }
    ],
    "611": [
      {
        "length": 32,
        "start": 4179
      },
      {
        "length": 32,
        "start": 10985
      },
      {
        "length": 32,
        "start": 15479
      },
      {
        "length": 32,
        "start": 15645
      }
    ]
  },
  "source": "//SPDX-License-Identifier: Unlicensed\n\npragma solidity >=0.6.8;\npragma experimental ABIEncoderV2;\nimport './Utils.sol';\nimport './ReentrancyGuard.sol';\nimport './Pancake.sol';\nimport './Address.sol';\nimport './BEP20Interface.sol';\nimport './Context.sol';\n\n\n/**\n * @dev Wrappers over Solidity's arithmetic operations with added overflow\n * checks.\n *\n * Arithmetic operations in Solidity wrap on overflow. This can easily result\n * in bugs, because programmers usually assume that an overflow raises an\n * error, which is the standard behavior in high level programming languages.\n * `SafeMath` restores this intuition by reverting the transaction when an\n * operation overflows.\n *\n * Using this library instead of the unchecked operations eliminates an entire\n * class of bugs, so it's recommended to use it always.\n */\n\ncontract WifeToken is Context, IBEP20, Ownable, ReentrancyGuard {\n    using SafeMath for uint256;\n    using Address for address;\n    \n    address payable public charityAddress = payable(0xE4557076D183D8F9244e3048f1b82C1D8266f896);\n    address payable public routerAddress = payable(0xD99D1c33F9fC3444f8101754aBC46c52416550D1);\n\n    mapping(address => uint256) private _rOwned;\n    mapping(address => uint256) private _tOwned;\n    mapping(address => mapping(address => uint256)) private _allowances;\n\n    mapping(address => bool) private _isExcludedFromFee;\n    mapping(address => bool) private _isExcluded;\n    mapping(address => bool) private _isExcludedFromMaxTx;\n\n    address[] private _excluded;\n\n    uint256 private constant MAX = ~uint256(0);\n    uint256 private _tTotal = 1000000000 * 10 ** 6 * 10 ** 9;\n    uint256 private _rTotal = (MAX - (MAX % _tTotal));\n    uint256 private _tFeeTotal;\n\n    string private _name = \"Wife Token\";\n    string private _symbol = \"WIFE\";\n    uint8 private _decimals = 9;\n\n    IPancakeRouter02 public immutable pancakeRouter;\n    address public immutable pancakePair;\n\n    bool inSwapAndLiquify = false;\n\n    event SwapAndLiquifyEnabledUpdated(bool enabled);\n    event SwapAndLiquify(\n        uint256 tokensSwapped,\n        uint256 ethReceived,\n        uint256 tokensIntoLiqudity\n    );\n\n    event ClaimBNBSuccessfully(\n        address recipient,\n        uint256 ethReceived,\n        uint256 nextAvailableClaimDate\n    );\n\n    modifier lockTheSwap {\n        inSwapAndLiquify = true;\n        _;\n        inSwapAndLiquify = false;\n    }\n\n    constructor (\n    ) public {\n        _rOwned[_msgSender()] = _rTotal;\n\n        IPancakeRouter02 _pancakeRouter = IPancakeRouter02(routerAddress);\n        // Create a pancake pair for this new token\n        pancakePair = IPancakeFactory(_pancakeRouter.factory())\n        .createPair(address(this), _pancakeRouter.WETH());\n\n        // set the rest of the contract variables\n        pancakeRouter = _pancakeRouter;\n\n        //exclude owner and this contract from fee\n        _isExcludedFromFee[owner()] = true;\n        _isExcludedFromFee[address(this)] = true;\n        \n        // exclude from max tx\n        _isExcludedFromMaxTx[owner()] = true;\n        _isExcludedFromMaxTx[address(this)] = true;\n        _isExcludedFromMaxTx[address(0xAA3913590512874D1EA660e2f4c71cab2D8Cc321)] = true;\n        _isExcludedFromMaxTx[address(0)] = true;\n       \n        emit Transfer(address(0), _msgSender(), _tTotal);\n    }\n\n    function name() public view returns (string memory) {\n        return _name;\n    }\n\n    function symbol() public view returns (string memory) {\n        return _symbol;\n    }\n\n    function decimals() public view returns (uint8) {\n        return _decimals;\n    }\n\n    function totalSupply() public view override returns (uint256) {\n        return _tTotal;\n    }\n\n    function balanceOf(address account) public view override returns (uint256) {\n        if (_isExcluded[account]) return _tOwned[account];\n        return tokenFromReflection(_rOwned[account]);\n    }\n\n    function transfer(address recipient, uint256 amount) public override returns (bool) {\n        _transfer(_msgSender(), recipient, amount, 0);\n        return true;\n    }\n\n    function allowance(address owner, address spender) public view override returns (uint256) {\n        return _allowances[owner][spender];\n    }\n\n    function approve(address spender, uint256 amount) public override returns (bool) {\n        _approve(_msgSender(), spender, amount);\n        return true;\n    }\n\n    function transferFrom(address sender, address recipient, uint256 amount) public override returns (bool) {\n        _transfer(sender, recipient, amount, 0);\n        _approve(sender, _msgSender(), _allowances[sender][_msgSender()].sub(amount, \"BEP20: transfer amount exceeds allowance\"));\n        return true;\n    }\n\n    function increaseAllowance(address spender, uint256 addedValue) public virtual returns (bool) {\n        _approve(_msgSender(), spender, _allowances[_msgSender()][spender].add(addedValue));\n        return true;\n    }\n\n    function decreaseAllowance(address spender, uint256 subtractedValue) public virtual returns (bool) {\n        _approve(_msgSender(), spender, _allowances[_msgSender()][spender].sub(subtractedValue, \"BEP20: decreased allowance below zero\"));\n        return true;\n    }\n\n    function isExcludedFromReward(address account) public view returns (bool) {\n        return _isExcluded[account];\n    }\n\n    function totalFees() public view returns (uint256) {\n        return _tFeeTotal;\n    }\n\n    function deliver(uint256 tAmount) public {\n        address sender = _msgSender();\n        require(!_isExcluded[sender]);\n        (uint256 rAmount,,,,,) = _getValues(tAmount);\n        _rOwned[sender] = _rOwned[sender].sub(rAmount);\n        _rTotal = _rTotal.sub(rAmount);\n        _tFeeTotal = _tFeeTotal.add(tAmount);\n    }\n\n    function reflectionFromToken(uint256 tAmount, bool deductTransferFee) public view returns (uint256) {\n        require(tAmount <= _tTotal);\n        if (!deductTransferFee) {\n            (uint256 rAmount,,,,,) = _getValues(tAmount);\n            return rAmount;\n        } else {\n            (,uint256 rTransferAmount,,,,) = _getValues(tAmount);\n            return rTransferAmount;\n        }\n    }\n\n    function tokenFromReflection(uint256 rAmount) public view returns (uint256) {\n        require(rAmount <= _rTotal);\n        uint256 currentRate = _getRate();\n        return rAmount.div(currentRate);\n    }\n\n    function excludeFromReward(address account) public onlyOwner() {\n        // require(account != 0x7a250d5630B4cF539739dF2C5dAcb4c659F2488D, 'We can not exclude Pancake router.');\n        require(!_isExcluded[account]);\n        if (_rOwned[account] > 0) {\n            _tOwned[account] = tokenFromReflection(_rOwned[account]);\n        }\n        _isExcluded[account] = true;\n        _excluded.push(account);\n    }\n\n    function includeInReward(address account) external onlyOwner() {\n        require(_isExcluded[account]);\n        for (uint256 i = 0; i < _excluded.length; i++) {\n            if (_excluded[i] == account) {\n                _excluded[i] = _excluded[_excluded.length - 1];\n                _tOwned[account] = 0;\n                _isExcluded[account] = false;\n                _excluded.pop();\n                break;\n            }\n        }\n    }\n\n    function _transferBothExcluded(address sender, address recipient, uint256 tAmount) private {\n        (uint256 rAmount, uint256 rTransferAmount, uint256 rFee, uint256 tTransferAmount, uint256 tFee, uint256 tLiquidity) = _getValues(tAmount);\n        _tOwned[sender] = _tOwned[sender].sub(tAmount);\n        _rOwned[sender] = _rOwned[sender].sub(rAmount);\n        _tOwned[recipient] = _tOwned[recipient].add(tTransferAmount);\n        _rOwned[recipient] = _rOwned[recipient].add(rTransferAmount);\n        _takeLiquidity(tLiquidity);\n        _reflectFee(rFee, tFee);\n        emit Transfer(sender, recipient, tTransferAmount);\n    }\n\n    function excludeFromFee(address account) public onlyOwner {\n        _isExcludedFromFee[account] = true;\n    }\n\n    function includeInFee(address account) public onlyOwner {\n        _isExcludedFromFee[account] = false;\n    }\n\n    function setTaxFeePercent(uint256 taxFee) external onlyOwner() {\n        _taxFee = taxFee;\n    }\n\n    function setLiquidityFeePercent(uint256 liquidityFee) external onlyOwner() {\n        _liquidityFee = liquidityFee;\n    }\n\n    function setSwapAndLiquifyEnabled(bool _enabled) public onlyOwner {\n        swapAndLiquifyEnabled = _enabled;\n        emit SwapAndLiquifyEnabledUpdated(_enabled);\n    }\n\n    //to receive BNB from pancakeRouter when swapping\n    receive() external payable {}\n\n    function _reflectFee(uint256 rFee, uint256 tFee) private {\n        _rTotal = _rTotal.sub(rFee);\n        _tFeeTotal = _tFeeTotal.add(tFee);\n    }\n\n   \n  function _getValues(uint256 tAmount) private view returns (uint256, uint256, uint256, uint256, uint256, uint256) {\n        (uint256 tTransferAmount, uint256 tFee, uint256 tLiquidity) = _getTValues(tAmount);\n        (uint256 rAmount, uint256 rTransferAmount, uint256 rFee) = _getRValues(tAmount, tFee, tLiquidity, _getRate());\n        return (rAmount, rTransferAmount, rFee, tTransferAmount, tFee, tLiquidity);\n    }\n\n    function _getTValues(uint256 tAmount) private view returns (uint256, uint256, uint256) {\n        uint256 tFee = calculateTaxFee(tAmount);\n        uint256 tLiquidity = calculateLiquidityFee(tAmount);\n        uint256 tTransferAmount = tAmount.sub(tFee).sub(tLiquidity);\n        return (tTransferAmount, tFee, tLiquidity);\n    }\n\n    function _getRValues(uint256 tAmount, uint256 tFee, uint256 tLiquidity, uint256 currentRate) private pure returns (uint256, uint256, uint256) {\n        uint256 rAmount = tAmount.mul(currentRate);\n        uint256 rFee = tFee.mul(currentRate);\n        uint256 rLiquidity = tLiquidity.mul(currentRate);\n        uint256 rTransferAmount = rAmount.sub(rFee).sub(rLiquidity);\n        return (rAmount, rTransferAmount, rFee);\n    }\n\n\n    function _getRate() private view returns (uint256) {\n        (uint256 rSupply, uint256 tSupply) = _getCurrentSupply();\n        return rSupply.div(tSupply);\n    }\n\n    function _getCurrentSupply() private view returns (uint256, uint256) {\n        uint256 rSupply = _rTotal;\n        uint256 tSupply = _tTotal;\n        for (uint256 i = 0; i < _excluded.length; i++) {\n            if (_rOwned[_excluded[i]] > rSupply || _tOwned[_excluded[i]] > tSupply) return (_rTotal, _tTotal);\n            rSupply = rSupply.sub(_rOwned[_excluded[i]]);\n            tSupply = tSupply.sub(_tOwned[_excluded[i]]);\n        }\n        if (rSupply < _rTotal.div(_tTotal)) return (_rTotal, _tTotal);\n        return (rSupply, tSupply);\n    }\n\n    function _takeLiquidity(uint256 tLiquidity) private {\n        uint256 currentRate = _getRate();\n        uint256 rLiquidity = tLiquidity.mul(currentRate);\n        _rOwned[address(this)] = _rOwned[address(this)].add(rLiquidity);\n        if (_isExcluded[address(this)])\n            _tOwned[address(this)] = _tOwned[address(this)].add(tLiquidity);\n    }\n\n    function calculateTaxFee(uint256 _amount) private view returns (uint256) {\n        return _amount.mul(_taxFee).div(\n            10 ** 2\n        );\n    }\n\n    function calculateLiquidityFee(uint256 _amount) private view returns (uint256) {\n        return _amount.mul(_liquidityFee).div(\n            10 ** 2\n        );\n    }\n    \n    function removeAllFee() private {\n        if (_taxFee == 0 && _liquidityFee == 0) return;\n\n        _previousTaxFee = _taxFee;\n        _previousLiquidityFee = _liquidityFee;\n      \n        _taxFee = 0;\n        _liquidityFee = 0;\n        \n    }\n\n    function restoreAllFee() private {\n        _taxFee = _previousTaxFee;\n        _liquidityFee = _previousLiquidityFee;\n       \n    }\n\n    function isExcludedFromFee(address account) public view returns (bool) {\n        return _isExcludedFromFee[account];\n    }\n\n    function _approve(address owner, address spender, uint256 amount) private {\n        require(owner != address(0));\n        require(spender != address(0));\n\n        _allowances[owner][spender] = amount;\n        emit Approval(owner, spender, amount);\n    }\n\n    function _transfer(\n        address from,\n        address to,\n        uint256 amount,\n        uint256 value\n    ) private {\n        require(from != address(0));\n        require(to != address(0));\n        require(amount > 0);\n\n        ensureMaxTxAmount(from, to, amount, value);\n\n        // swap and liquify\n        swapAndLiquify(from, to);\n\n        //indicates if fee should be deducted from transfer\n        bool takeFee = true;\n\n        //if any account belongs to _isExcludedFromFee account then remove the fee\n        if (_isExcludedFromFee[from] || _isExcludedFromFee[to] || reflectionFeesdiabled) {\n            takeFee = false;\n        }\n\n        //transfer amount, it will take tax, burn, liquidity fee\n        _tokenTransfer(from, to, amount, takeFee);\n    }\n\n    //this method is responsible for taking all fee, if takeFee is true\n    function _tokenTransfer(address sender, address recipient, uint256 amount, bool takeFee) private {\n        if (!takeFee)\n            removeAllFee();\n\n        // top up claim cycle\n        topUpClaimCycleAfterTransfer(recipient, amount);\n\n        if (_isExcluded[sender] && !_isExcluded[recipient]) {\n            _transferFromExcluded(sender, recipient, amount);\n        } else if (!_isExcluded[sender] && _isExcluded[recipient]) {\n            _transferToExcluded(sender, recipient, amount);\n        } else if (!_isExcluded[sender] && !_isExcluded[recipient]) {\n            _transferStandard(sender, recipient, amount);\n        } else if (_isExcluded[sender] && _isExcluded[recipient]) {\n            _transferBothExcluded(sender, recipient, amount);\n        } else {\n            _transferStandard(sender, recipient, amount);\n        }\n\n        if (!takeFee)\n            restoreAllFee();\n    }\n\n     function _transferStandard(address sender, address recipient, uint256 tAmount) private {\n        (uint256 rAmount, uint256 rTransferAmount, uint256 rFee, uint256 tTransferAmount, uint256 tFee, uint256 tLiquidity) = _getValues(tAmount);\n        _rOwned[sender] = _rOwned[sender].sub(rAmount);\n        _rOwned[recipient] = _rOwned[recipient].add(rTransferAmount);\n        _takeLiquidity(tLiquidity);\n        _reflectFee(rFee, tFee);\n        emit Transfer(sender, recipient, tTransferAmount);\n    }\n\n    function _transferToExcluded(address sender, address recipient, uint256 tAmount) private {\n        (uint256 rAmount, uint256 rTransferAmount, uint256 rFee, uint256 tTransferAmount, uint256 tFee, uint256 tLiquidity) = _getValues(tAmount);\n        _rOwned[sender] = _rOwned[sender].sub(rAmount);\n        _tOwned[recipient] = _tOwned[recipient].add(tTransferAmount);\n        _rOwned[recipient] = _rOwned[recipient].add(rTransferAmount);\n        _takeLiquidity(tLiquidity);\n        _reflectFee(rFee, tFee);\n        emit Transfer(sender, recipient, tTransferAmount);\n    }\n\n    function _transferFromExcluded(address sender, address recipient, uint256 tAmount) private {\n        (uint256 rAmount, uint256 rTransferAmount, uint256 rFee, uint256 tTransferAmount, uint256 tFee, uint256 tLiquidity) = _getValues(tAmount);\n        _tOwned[sender] = _tOwned[sender].sub(tAmount);\n        _rOwned[sender] = _rOwned[sender].sub(rAmount);\n        _rOwned[recipient] = _rOwned[recipient].add(rTransferAmount);\n        _takeLiquidity(tLiquidity);\n        _reflectFee(rFee, tFee);\n        emit Transfer(sender, recipient, tTransferAmount);\n    }\n\n    // Innovation for protocol by WifeToken Team\n    uint256 public rewardCycleBlock = 1 days;\n    uint256 public easyRewardCycleBlock = 1 days;\n    uint256 public threshHoldTopUpRate = 25; // 25 percent\n    uint256 public _maxTxAmount = _tTotal; // should be 0.05% percent per transaction, will be set again at activateContract() function\n    uint256 public disruptiveCoverageFee = 1 ether; // antiwhale\n    mapping(address => uint256) public nextAvailableClaimDate;\n    bool public swapAndLiquifyEnabled = false; // should be true\n    uint256 public disruptiveTransferEnabledFrom = 0;\n    uint256 public disableEasyRewardFrom = 0;\n    \n    bool public reflectionFeesdiabled = false;\n   \n    uint256 public _taxFee = 2;\n    uint256 private _previousTaxFee = _taxFee;\n    \n    uint256 public _liquidityFee = 8; // 4% will be added pool, 4% will be converted to BNB\n    uint256 private _previousLiquidityFee = _liquidityFee;\n    uint256 public rewardThreshold = 1 ether;\n\n    uint256 minTokenNumberToSell = _tTotal.mul(1).div(10000).div(10); // 0.001% max tx amount will trigger swap and add liquidity\n\n    function setMaxTxPercent(uint256 maxTxPercent) public onlyOwner() {\n        _maxTxAmount = _tTotal.mul(maxTxPercent).div(10000);\n    }   \n\n    function setExcludeFromMaxTx(address _address, bool value) public onlyOwner { \n        _isExcludedFromMaxTx[_address] = value;\n    }       \n\n    function calculateBNBReward(address ofAddress) public view returns (uint256) {\n        uint256 _totalSupply = uint256(_tTotal)\n        .sub(balanceOf(address(0)))\n        .sub(balanceOf(0xAA3913590512874D1EA660e2f4c71cab2D8Cc321)) // exclude burned wallet\n        .sub(balanceOf(address(pancakePair)));\n        // exclude liquidity wallet\n\n        return Utils.calculateBNBReward(\n            _tTotal,\n            balanceOf(address(ofAddress)),\n            address(this).balance,\n            _totalSupply,\n            ofAddress\n        );\n    }\n\n    function getRewardCycleBlock() public view returns (uint256) {\n        if (block.timestamp >= disableEasyRewardFrom) return rewardCycleBlock;\n        return easyRewardCycleBlock;\n    }\n\n    function claimBNBReward() isHuman nonReentrant public {\n        require(nextAvailableClaimDate[msg.sender] <= block.timestamp);\n        require(balanceOf(msg.sender) >= 0);\n\n        uint256 reward = calculateBNBReward(msg.sender);\n\n        // reward threshold\n        if (reward >= rewardThreshold) {\n            \n            uint256 charityamount = reward.div(5);\n            (bool success, ) = address(charityAddress).call{ value: charityamount }(\"\");\n            require(success);    \n            \n            reward = reward.sub(reward.div(5));\n        }\n\n        // update rewardCycleBlock\n        nextAvailableClaimDate[msg.sender] = block.timestamp + getRewardCycleBlock();\n        emit ClaimBNBSuccessfully(msg.sender, reward, nextAvailableClaimDate[msg.sender]);\n\n        (bool sent,) = address(msg.sender).call{value : reward}(\"\");\n        require(sent);\n    }\n\n    function topUpClaimCycleAfterTransfer(address recipient, uint256 amount) private {\n        uint256 currentRecipientBalance = balanceOf(recipient);\n        uint256 basedRewardCycleBlock = getRewardCycleBlock();\n\n        nextAvailableClaimDate[recipient] = nextAvailableClaimDate[recipient] + Utils.calculateTopUpClaim(\n            currentRecipientBalance,\n            basedRewardCycleBlock,\n            threshHoldTopUpRate,\n            amount\n        );\n    }\n\n    function ensureMaxTxAmount(\n        address from,\n        address to,\n        uint256 amount,\n        uint256 value\n    ) private {\n        if (\n            _isExcludedFromMaxTx[from] == false && // default will be false\n            _isExcludedFromMaxTx[to] == false // default will be false\n        ) {\n            if (value < disruptiveCoverageFee && block.timestamp >= disruptiveTransferEnabledFrom) {\n                require(amount <= _maxTxAmount);\n            }\n        }\n    }\n\n    function disruptiveTransfer(address recipient, uint256 amount) public payable returns (bool) {\n        _transfer(_msgSender(), recipient, amount, msg.value);\n        return true;\n    }\n\n    function swapAndLiquify(address from, address to) private {\n        // is the token balance of this contract address over the min number of\n        // tokens that we need to initiate a swap + liquidity lock?\n        // also, don't get caught in a circular liquidity event.\n        // also, don't swap & liquify if sender is pancake pair.\n        uint256 contractTokenBalance = balanceOf(address(this));\n\n        if (contractTokenBalance >= _maxTxAmount) {\n            contractTokenBalance = _maxTxAmount;\n        }\n\n        bool shouldSell = contractTokenBalance >= minTokenNumberToSell;\n\n        if (\n            !inSwapAndLiquify &&\n        shouldSell &&\n        from != pancakePair &&\n        swapAndLiquifyEnabled &&\n        !(from == address(this) && to == address(pancakePair)) // swap 1 time\n        ) {\n            // only sell for minTokenNumberToSell, decouple from _maxTxAmount\n            contractTokenBalance = minTokenNumberToSell;\n\n            // add liquidity\n            // split the contract balance into 3 pieces\n            uint256 pooledBNB = contractTokenBalance.div(2);\n            uint256 piece = contractTokenBalance.sub(pooledBNB).div(2);\n            uint256 otherPiece = contractTokenBalance.sub(piece);\n\n            uint256 tokenAmountToBeSwapped = pooledBNB.add(piece);\n\n            uint256 initialBalance = address(this).balance;\n\n            // now is to lock into staking pool\n            Utils.swapTokensForEth(address(pancakeRouter), tokenAmountToBeSwapped);\n\n            // how much BNB did we just swap into?\n\n            // capture the contract's current BNB balance.\n            // this is so that we can capture exactly the amount of BNB that the\n            // swap creates, and not make the liquidity event include any BNB that\n            // has been manually sent to the contract\n            uint256 deltaBalance = address(this).balance.sub(initialBalance);\n\n            uint256 bnbToBeAddedToLiquidity = deltaBalance.div(3);\n\n            // add liquidity to pancake\n            Utils.addLiquidity(address(pancakeRouter), owner(), otherPiece, bnbToBeAddedToLiquidity);\n\n            emit SwapAndLiquify(piece, deltaBalance, otherPiece);\n        }\n    }\n    \n    function activateContract() public onlyOwner {\n        // reward claim\n        disableEasyRewardFrom = block.timestamp + 1 weeks;\n        rewardCycleBlock = 1 days;\n        easyRewardCycleBlock = 1 days;\n\n        // protocol\n        disruptiveCoverageFee = 1 ether;\n        disruptiveTransferEnabledFrom = block.timestamp;\n        setMaxTxPercent(100);\n        setSwapAndLiquifyEnabled(true);\n\n        // approve contract\n        _approve(address(this), address(pancakeRouter), 2 ** 256 - 1);\n    }\n    \n    function changerewardCycleBlock(uint256 newcycle) public onlyOwner {\n          \n      rewardCycleBlock = newcycle;  \n    }\n    \n    \n    function changeCharityAddress(address payable _newaddress) public onlyOwner {\n        \n        charityAddress = _newaddress;\n    }\n    \n       // disable enable reflection fee ,  value == false (enable) \n    function reflectionfeestartstop(bool _value) public onlyOwner {\n        \n        reflectionFeesdiabled = _value;\n    }\n    \n    \n    function migrateToken(address _newadress , uint256 _amount) public onlyOwner {\n    \n        removeAllFee();\n        _transferStandard(address(this), _newadress, _amount);\n        restoreAllFee();\n    }\n\n\n    function migrateBnb(address payable _newadd,uint256 amount) public onlyOwner {\n        \n        (bool success, ) = address(_newadd).call{ value: amount }(\"\");\n        require(success);    \n    }\n    \n    \n    function changethreshHoldTopUpRate(uint256 _newrate)public onlyOwner {\n        \n         threshHoldTopUpRate = _newrate; \n    }   \n    \n}",
  "sourcePath": "/Users/israeladelaja/Desktop/MotherTokenDapp/src/contracts/MotherToken.sol",
  "compiler": {
    "name": "solc",
    "version": "0.6.12+commit.27d51765.Emscripten.clang"
  },
  "schemaVersion": "3.4.1",
  "updatedAt": "2021-06-07T08:04:16.572Z",
  "networkType": "ethereum",
  "devdoc": {
    "details": "Wrappers over Solidity's arithmetic operations with added overflow checks. Arithmetic operations in Solidity wrap on overflow. This can easily result in bugs, because programmers usually assume that an overflow raises an error, which is the standard behavior in high level programming languages. `SafeMath` restores this intuition by reverting the transaction when an operation overflows. Using this library instead of the unchecked operations eliminates an entire class of bugs, so it's recommended to use it always.",
    "kind": "dev",
    "methods": {
      "allowance(address,address)": {
        "details": "Returns the remaining number of tokens that `spender` will be allowed to spend on behalf of `owner` through {transferFrom}. This is zero by default. This value changes when {approve} or {transferFrom} are called."
      },
      "approve(address,uint256)": {
        "details": "Sets `amount` as the allowance of `spender` over the caller's tokens. Returns a boolean value indicating whether the operation succeeded. IMPORTANT: Beware that changing an allowance with this method brings the risk that someone may use both the old and the new allowance by unfortunate transaction ordering. One possible solution to mitigate this race condition is to first reduce the spender's allowance to 0 and set the desired value afterwards: https://github.com/ethereum/EIPs/issues/20#issuecomment-263524729 Emits an {Approval} event."
      },
      "balanceOf(address)": {
        "details": "Returns the amount of tokens owned by `account`."
      },
      "owner()": {
        "details": "Returns the address of the current owner."
      },
      "renounceOwnership()": {
        "details": "Leaves the contract without owner. It will not be possible to call `onlyOwner` functions anymore. Can only be called by the current owner. NOTE: Renouncing ownership will leave the contract without an owner, thereby removing any functionality that is only available to the owner."
      },
      "transfer(address,uint256)": {
        "details": "Moves `amount` tokens from the caller's account to `recipient`. Returns a boolean value indicating whether the operation succeeded. Emits a {Transfer} event."
      },
      "transferFrom(address,address,uint256)": {
        "details": "Moves `amount` tokens from `sender` to `recipient` using the allowance mechanism. `amount` is then deducted from the caller's allowance. Returns a boolean value indicating whether the operation succeeded. Emits a {Transfer} event."
      },
      "transferOwnership(address)": {
        "details": "Transfers ownership of the contract to a new account (`newOwner`). Can only be called by the current owner."
      }
    },
    "version": 1
  },
  "userdoc": {
    "kind": "user",
    "methods": {},
    "version": 1
  }
}